:020000040800F2
:100000000060002055020008492F0008FD27000865
:10001000452F0008F5110008A95D00080000000048
:100020000000000000000000000000009D0100082A
:100030009118000800000000F10100084944000880
:100040006F0200086F0200086F0200086F020008CC
:100050006F0200086F0200086F0200086F020008BC
:100060006F0200086F0200086F0200086F020008AC
:100070006F0200086F0200086F0200086F0200089C
:100080006F0200086F0200086F0200086F0200088C
:10009000251400086F0200086F0200086F020008B4
:1000A0006F0200086F0200086F0200086F0200086C
:1000B0004D490008654900087D4900086F020008A5
:1000C0006F0200086F0200086F0200086F0200084C
:1000D0006F020008095600085D5700084D5A0008D5
:1000E0006F0200086F0200086F020008AD490008A7
:1000F000C14E00086F020008C54900086F020008E1
:100100006F0200086F020008954900086F0200089E
:100110006F020008D95400086F0200086F0200083F
:100120006F0200086F0200086F0200086F020008EB
:100130006F0200086F0200086F0200086F020008DB
:100140006F0200086F0200086F0200086F020008CB
:100150006F0200086F0200086F0200086F020008BB
:100160006F0200086F0200086F0200086F020008AB
:100170006F0200086F0200086F0200086F0200089B
:100180006F0200086F020008DFF80CD000F06EFC70
:1001900000480047219D0008006000202A4B196894
:1001A0000868B0E8F04F80F30988BFF36F8F4FF015
:1001B000000080F3118870470000000006480068C6
:1001C000006880F3088862B661B6BFF34F8FBFF353
:1001D0006F8F00DF00BF00BF08ED00E0DFF80C000C
:1001E000016841F470010160704700BF88ED00E0D4
:1001F000EFF30980BFF36F8F134B1A681EF0100FD7
:1002000008BF20ED108A20E9F04F106008B44FF0CD
:10021000500080F31188BFF34F8FBFF36F8F0DF045
:1002200009FA4FF0000080F3118808BC19680868CB
:10023000B0E8F04F1EF0100F08BFB0EC108A80F34A
:100240000988BFF36F8F704714010020EFF305801A
:10025000704700000648804706480047FEE7FEE773
:10026000FEE7FEE7FEE7FEE7FEE7FEE7FEE7FEE766
:1002700059440008890100082DE9F05F0546002077
:1002800092469B4688460646814640241BE0284607
:1002900041464746224600F0DDFA53465A46C01A08
:1002A000914110D311461846224600F047F82D1A06
:1002B00067EB01084F4622460120002100F03EF87E
:1002C00017EB00094E41201EA4F10104DFDC484673
:1002D00031462A464346BDE8F09F2DE9F04100240F
:1002E000061B254671F1000605DA01240027D0EB34
:1002F000070067EB0101161E73F1000605DA0027FF
:10030000D2EB0702012567EB0303FFF7B5FF864633
:100310000E4617469C46AC4204D00025D0EB050E95
:1003200065EB010624B10020D2EB000760EB030C63
:10033000704631463A466346BDE8F081202A04DB28
:10034000203A00FA02F1002070479140C2F12003E8
:1003500020FA03F3194390407047202A06DBCB179D
:10036000203A41FA02F043EAE07306E041FA02F370
:10037000D040C2F12002914008431946704740EA3C
:1003800001039B0703D009E008C9121F08C0042A13
:10039000FAD203E011F8013B00F8013B521EF9D2FA
:1003A0007047D2B201E000F8012B491EFBD2704722
:1003B0000022F6E710B513460A4604461946FFF731
:1003C000F0FF204610BD30B504460020034600E093
:1003D0005B1C934203D2E05CCD5C401BF8D030BD87
:1003E0002DE9FE4F804681EA0300C00F0C460090C5
:1003F00021F0004123F00045B8EB0200A94105D2ED
:100400004046214690461C460B46024623F00040DB
:10041000104347D0270DC7F30A00C3F30A510290D7
:10042000401A019040286BDAC3F3130040F4801B9C
:100430000098924620B10023D2EB030A63EB0B0B2A
:1004400001985946C0F140025046FFF777FF064633
:100450000D4650465946019AFFF77FFF10EB080002
:100460006141002487EA115284EAE7731A4340D0BD
:10047000009A62B3019A012A4FEA075215DC001B69
:1004800061EB02014FF0004202EA0752CDE900425F
:10049000001C41F5801132462B4600F031FA03B0C2
:1004A000BDE8F08F40462146F9E7001B61EB0201F1
:1004B000001C41F5801300185B412018A2F50017BD
:1004C00047EB030140EAD570B6196D4111E06D08A4
:1004D0004FEA360645EAC0754FEA0752001B61EB4A
:1004E0000201001C41F5801149084FEA3000001953
:1004F000514132462B4603B0BDE8F04F00F0F1B950
:100500000098012240000023D0EB020263EBE0736D
:10051000009821464FEAE074B8EB000061EB04015B
:10052000E9E783F000435BE781F0004158E72DE9FC
:10053000FE4F81EA030404F0004421F000410094DE
:100540004FF0000B23F0004350EA01045ED052EA62
:1005500003045BD0C3F30A54C1F30A552C44A4F23C
:10056000F3340194A0FB0254C1F3130141F4801150
:10057000C3F3130343F4801301FB024400FB034E57
:10058000840A970A44EA815447EA8357A4FB076820
:1005900002958D0A05FB07854FEA932C04FB0C544A
:1005A0002705029D4FEA065847EA1637B5EB0805BE
:1005B0006EEB070C870E920E47EA811742EA831210
:1005C000A7FB0201B6EB0B0164EB00042B0D43EA21
:1005D0000C335E1844EB1C50DA465146E7FB02012F
:1005E000C5F313044FEA0B3343EA14534FEA0432C2
:1005F000019C43EA0603A4F10C040294009CCDE99B
:1006000000B400F07DF903B0BDE8F08F0020014692
:10061000F9E72DE9F04D81EA030404F0004B21F0E5
:10062000004514464FF0000A23F0004150EA05024D
:1006300020D054EA01021DD0C5F30A570246C5F383
:100640001303C1F31300C1F30A5640F4801543F4B9
:100650008013A7EB0608101BD64608F2FD3873EB93
:10066000050002D308F1010801E092185B41B8F1DE
:10067000000F03DA00200146BDE8F08D00204FF4A2
:100680008011064684460EE0171B73EB050705D361
:10069000121B63EB050306434CEA010C49084FEAC1
:1006A000300092185B4150EA0107EDD152EA030095
:1006B00012D082EA040083EA0501084305D0101B2A
:1006C000AB4106D20122002306E000224FF0004396
:1006D00002E06FF0010253101AEB06004CEB0851D8
:1006E00010EB0A0041EB0B01BDE8F04D00F0F9B84A
:1006F0000EB5C10F80EAE0700844CA07002140F23D
:1007000033438DE80E000A460B4600F0F9F803B0BB
:1007100000BD0EB540F2334102910021CDE9001138
:100720000A460B4600F0ECF803B000BD70B5C1F30B
:100730000A5201F000450024C1F3130140F2FF33D7
:1007400041F480119A4201DA002070BD40F2334337
:100750009A42A2F2334203DC524200F07BF800E0FE
:1007600090402C43F1D0404270BD00F0004230F088
:1007700000400AD0C10D01F56071C0F3160042EAD5
:100780000151C208400711437047002001467047DD
:1007900030B5041E71F1000404DB4FF00044404208
:1007A00064EB0101141E73F1000405DB1C464FF0DD
:1007B0000043524263EB04038B4208BF824230BDC8
:1007C00030B5041E71F1000404DB4FF000444042D8
:1007D00064EB0101141E73F1000405DB1C464FF0AD
:1007E0000043524263EB0403994208BF904230BD7C
:1007F00001F0004330B421F0004150EA010206D07C
:100800000A0DA2F56072C1F31301002A02DC30BCAC
:1008100000207047440F44EAC104C100E01830BC16
:1008200000EBC25000F026B830B50B460146002060
:100830002022012409E021FA02F59D4205D303FAA2
:1008400002F5491B04FA02F52844151EA2F1010223
:10085000F1DC30BD202A04DB203A21FA02F000212D
:10086000704721FA02F3D040C2F1200291400843C0
:10087000194670470029A8BF7047401C490008BFAF
:1008800020F00100704710B4B0FA80FC00FA0CF0C0
:1008900050EA010404BF10BC704749B1CCF12004F8
:1008A00021FA04F411FA0CF118BF01212143084385
:1008B000A3EB0C01CB1D4FEA00614FEA102042BFB1
:1008C000002010BC704700EBC35010440029A4BFA7
:1008D00010BC7047401C490008BF20F0010010BC4C
:1008E000704710B5141E73F1000408DA401C41F182
:1008F000000192185B411A4301D120F0010010BDA4
:100900002DE9F04D92469B4611B1B1FA81F202E019
:10091000B0FA80F220329046FFF710FD04460F46F1
:1009200040EA0A0041EA0B0153465A46084313D0F5
:10093000114653EA010019D0C8F140025046FFF7B2
:1009400089FF05460E46504659464246FFF7F6FCDB
:10095000084305D0012004E020463946BDE8F08D6B
:100960000020054346EAE0762C4337430A986305A6
:10097000E40AA0EB08000022FD0A44EA47540A30CA
:1009800002D500200146E9E7010510196941DDE9BA
:10099000084500196941BDE8F04DA2E770B521F0A6
:1009A000004303430CD0C1F30A550024D5EB0405E2
:1009B00064EB0403D617AD1AB34102DB00200146F5
:1009C00070BD201841EB025170BD2DE9F04D0023A0
:1009D0001A461B1A8A4103DB00200146BDE8F08D50
:1009E000C1F30A52C1F3130141F480154FF0000B1B
:1009F000D10702D100186D41521E0027044640F273
:100A0000FF11384601EB620A3E468046024600204E
:100A10004FF48011FFF71EFFC2197141BB1846EB5E
:100A20000100B4EB030C75EB000C04D3E41A65EB86
:100A3000000517460E46241908F101006D41804655
:100A40003428E3DDF91946EB0600091BA84103D25F
:100A50004FF0FF32134601E0002213461BEB070064
:100A600046EB0A51BDE8F04DFFF73BBF064C074D82
:100A700006E0E06840F0010394E80700984710346E
:100A8000AC42F6D3FFF784FBB0080108D008010898
:100A900070B58C1810F8015B15F0070301D110F840
:100AA000013B2A1106D110F8012B03E010F8016B6D
:100AB00001F8016B5B1EF9D12B0705D40023521EF0
:100AC0000DD401F8013BFAE710F8013BCB1A921C58
:100AD00003E013F8015B01F8015B521EF9D5A14256
:100AE000D8D3002070BD21B1826842F0010282603B
:100AF00003E0826822F00102826070470021084A08
:100B00001168084A1140D0E900231A4383681A4348
:100B1000C3681A431143044AC2F804137047000023
:100B200004230140E030FCFF002001400146C86C76
:100B300080B270470246002013680B400BB10120C1
:100B400000E000207047000030B50246002000237E
:100B50005068104C20400D790C6844EA052420436D
:100B6000506090680C4C2040D1E903542C438D68B0
:100B70002C434D7944EA450420439060D06A20F428
:100B800070000C7D641EE4B2234340EA0350D0623F
:100B900030BD0000FFFEFFFCFDF7FFC0F0B50446CE
:100BA0000D4600200021092D11DDE068A5F10A069F
:100BB00006EB4607072606FA07F18843A5F10A0661
:100BC00006EB460603FA06F10843E0600CE02069F4
:100BD00005EB4507072606FA07F1884305EB4506AE
:100BE00003FA06F108432061072A0FDA606B561EEC
:100BF00006EB86071F2606FA07F18843561E06EB0A
:100C0000860605FA06F10843606322E00D2A0FDA32
:100C1000206BD61F06EB86071F2606FA07F18843CE
:100C2000D61F06EB860605FA06F10843206310E09E
:100C3000E06AA2F10D0606EB86071F2606FA07F109
:100C40008843A2F10D0606EB860605FA06F1084375
:100C5000E062F0BD816841F0804181607047000032
:100C6000F8B53848D0ED000A9FED371A9FED370AE6
:100C700010EE810AF3EE0B0A80EE201ABDEEC10AD7
:100C800010EE106A642E00DD6426314890ED000AF3
:100C9000DFED300A20EE200ABDEEC00A10EE104A49
:100CA000002C00DA64422C4890ED000ADFED290A9E
:100CB00020EE200ABDEEC00A10EE105A002D00DA18
:100CC0006D422648007808B9012000E00020234941
:100CD00008702348007801281BD1224890ED000AB3
:100CE000BDEEC00A10EE103A1F4890ED000ABDEEAE
:100CF000C00A10EE102A1D4890ED000ABDEEC00A91
:100D000010EE101A1AA005F0F9F800201449087026
:100D100017E01248007850B91948B0F90400EAB257
:100D2000E1B23346009017A005F0E8F809E0144856
:100D3000B0F90430B0F90220B0F9001015A005F0A8
:100D4000DDF8F8BD1800002000007A4400401C4681
:100D5000745B00200000C842885B002098020020DD
:100D6000DA010020AC010020A80100209801002039
:100D70007B4325643A25643A25647D240000000005
:100D80009C0200207B4125643A25643A25643A257B
:100D9000647D24007B4225643A25643A25647D24E1
:100DA0000000000000B58DB00121022002F056FDC8
:100DB0000121080202F072FD02200B9003208DF841
:100DC000300000208DF833000BA9154801F00CFB12
:100DD0000121080202F072FD00214FF4807002F040
:100DE0006DFD002007900A9009904FF400300890A4
:100DF00007A8FFF783FE002001908DF808008DF80A
:100E000009000390059001208DF8180001A90548FC
:100E1000FFF79AFE01210348FFF765FE0DB000BD04
:100E2000000402400020014000B58DB001210220E5
:100E300002F014FD0121480202F030FD01200B9068
:100E400003208DF8300000208DF833000BA91548E1
:100E500001F0CAFA0121480202F030FD00214FF4EE
:100E6000007002F02BFD002007900A9009904FF4CB
:100E70000030089007A8FFF741FE002001908DF890
:100E800008008DF809000390059001208DF81800E6
:100E900001A90548FFF758FE01210348FFF723FE8B
:100EA0000DB000BD00040240002101401CB508F057
:100EB000FBFA01906CE10A2101A80CF08DF9B5480C
:100EC000006840F6B831884204DAB2480068401C35
:100ED000B049086001F026FBAF4800680028E9D15E
:100EE000AE48007801280AD1AD4890ED001ADFED38
:100EF000AD0AAD4890ED000A00F0CCFC07E09FED94
:100F0000A91ADFEDA80A9FEDA70A00F0C3FC01F0C3
:100F100013FFA648006801287ED1A54890ED021A6B
:100F2000F0EE410A90ED001AB0EE410A9FEDA12AC1
:100F3000A148D0ED001AA14890ED001A01F06EFE14
:100F400000EE100AB8EEC00A994880ED010A9C48EC
:100F500090ED021AF0EE410A90ED001AB0EE410A4F
:100F60009FED942A9448D0ED001A944890ED001A11
:100F700001F054FE00EE100AB8EEC00A904880ED71
:100F8000010A90480078062828D2DFE800F00328FC
:100F90004F6586AB00208C4C009094ED010ABDEEAD
:100FA000C00A10EE103A894C94ED010AB1EE400AE5
:100FB000BDEEC00A10EE102A814C94ED010AB1EE8C
:100FC000400ABDEEC00A10EE101A794C94ED010AE9
:100FD000BDEEC00A10EE100A03F0F6F8A3E0002000
:100FE000794C009094ED010ABDEEC00A10EE103A63
:100FF000764C94ED010AB1EE400ABDEEC00A10EE47
:10100000102A6F4C94ED010ABDEEC00A10EE101AC2
:10101000674C94ED010A00E086E0B1EE400ABDEEB7
:10102000C00A10EE100A03F0CFF87CE068480068B0
:10103000634A009092ED010ABDEEC00A10EE101A4C
:101040005B4A92ED010ABDEEC00A10EE100A614B38
:101050005A4203F0B9F866E000205B4C009094ED32
:10106000010ABDEEC00A10EE103A584C94ED010A88
:10107000BDEEC00A10EE102A514C94ED010ABDEEEF
:10108000C00A10EE101A4A4C94ED010ABDEEC00AD7
:1010900010EE100A03F098F845E000204A4C00904A
:1010A00094ED010ABDEEC00A10EE103A474C94EDE3
:1010B000010AB1EE400ABDEEC00A10EE102A404C03
:1010C00094ED010AB1EE400ABDEEC00A10EE101A0E
:1010D000374C94ED010ABDEEC00A10EE100A03F081
:1010E00073F820E00020384C009094ED010ABDEE2A
:1010F000C00A10EE103A354C94ED010ABDEEC00A5C
:1011000010EE102A2E4C94ED010ABDEEC00A10EE2E
:10111000101A274C94ED010ABDEEC00A10EE100A19
:1011200003F052F800BF2DE09FED1E0A2A4880ED23
:10113000000A9FED1C0A294880ED000A9FED190A5C
:10114000274880ED000A9FED170A264880ED000A27
:1011500040F2DC5000231A4619460090184603F06E
:1011600033F82148007801280CD1204890ED000A7E
:10117000B5EEC00AF1EE10FA04D090ED000A1C485A
:1011800080ED000A174B164A1449134802F00CFE72
:1011900091E600000C020020F0010020C8000020B1
:1011A000A4010020000000009C0100200C824142AC
:1011B000745B00200AD7233CB8010020B401002052
:1011C000885B002090010020B05B00209C5B002029
:1011D0009401002061BEFFFF2002002024020020B5
:1011E000280200202C0200200D030020B402002061
:1011F0003002002000BFFEE71CB50121084602F0C6
:101200002DFB4FF48070009001208DF80400002029
:101210008DF8060003208DF8050001208DF80700E9
:101220006946024801F0E0F81CBD000000000240E1
:101230002DE9FE4304460D4616461F46DDF828906C
:101240004FF0000814B10DB106B117B90120BDE887
:10125000FE83601EC4B2681EC5B2701EC6B2781E80
:1012600087B20121082002F0F9FA0121480602F0B4
:1012700005FB0320019002208DF8080000208DF866
:101280000A0003208DF8090001208DF80B0001A948
:10129000614801F0A9F8092200215F4801F0ECF84B
:1012A000092201215C4801F0E7F800205B49086051
:1012B0000846006840F00100086008E008F10100FD
:1012C0001FFA80F8B8F1640F01DD0220BFE7534830
:1012D000001D006800F001000028EFD04F480068B2
:1012E0004E490860084600680860084600680860C3
:1012F0000846006840F01000086008460068086072
:10130000084600680860002044491C31086008460F
:10131000006840EA897008600846006840EA046096
:1013200008600846006840EA055008600846006802
:1013300040EA0640086008460068384308603748BD
:10134000006820F001003549086009E008F101005B
:101350001FFA80F84FF6F070804501DD032076E734
:101360002E48001D006800F001000028EED12C4836
:10137000006840F001002A49086029481C300068D4
:1013800020F0010026491C31086025480C30006817
:1013900040F0010022490C3108602148001D00681E
:1013A0001F49091D08601E48143000681C4914318B
:1013B000086000201A494031086000211848443074
:1013C000016017481C30006840F0010014491C31CE
:1013D0000860134800680020114908600F48143065
:1013E000006840F002000D491431086014208DF8A7
:1013F000000001208DF8010003208DF8020001207B
:101400008DF80300684601F0A1FD01220221034886
:1014100000F00CF900201AE7000C024000640040C4
:101420000066004000B52DED028B89B003A805A928
:1014300006AB07AACDE9001008A9002000F08AF841
:1014400040F281110898884266D101203549087020
:10145000002035490870354908703549087035490C
:10146000087035490870354908709DF80D009DF8E1
:101470000C1000EB012000B200EE100AB8EEC00A1A
:10148000DFED2F0A80EE201A2E4880ED001A9DF81D
:101490000F009DF80E1000EB012000B200EE100AC4
:1014A000B8EEC00ADFED260A80EE201A264880ED4D
:1014B000001A9DF811009DF8101000EB012000B2F9
:1014C00000EE100AB8EEC00ADFED1D0A80EE201A09
:1014D000B0EE418A1D48007802280AD1F0EE480A91
:1014E000184890ED000A04F061FC194880ED000AEC
:1014F00011E09DF811009DF8101000EB012000B2E2
:1015000000EE100AB8EEC00ADFED0D0A80EE201AD8
:101510000F4880ED001A00E000BF09B0BDEC028B5F
:1015200000BD0000D3010020D0010020D201002026
:10153000D1010020D4010020D50100201602002096
:1015400000007A449C010020A001002090010020AE
:10155000A4010020F0B5DDE90554324E06EB00167B
:10156000366806F004061670167836B92D4E06EB6E
:1015700000163668760D0E6005E02A4E06EB001662
:101580003668F6080E60274E06EB0016366806F041
:1015900002061E70234E06EB0016766806F00F0654
:1015A0002E70204E06EB0016B66826701D4E06EB18
:1015B0000016B668360A66701A4E06EB0016B66854
:1015C000360CA670174E06EB0016B668360EE6709F
:1015D000144E06EB0016F6682671124E06EB001646
:1015E000F668360A66710F4E06EB0016F668360C82
:1015F000A6710C4E06EB0016F668360EE67130B991
:10160000094E366846F02006074F3E6009E0012883
:1016100007D1054E361D366846F02006024F3F1DA5
:101620003E60F0BDB06500400C6400401AB14369F3
:101630000B43436102E043698B4343617047000001
:1016400010B502460B460020012B08D1002104E012
:10165000084C645C60404C1CE1B29142F8DB43B939
:10166000002104E0044C645C60404C1CE1B29142F7
:10167000F8DB10BDC2070020B700002038B50020FD
:1016800000906B4601227521682008F091FA2DA088
:1016900004F034FC9DF80000682811D000BFBFF3AF
:1016A0004F8F3148006800F4E06030490843001D66
:1016B0002D490860BFF34F8F00BF00BF00BFFDE79B
:1016C00008F064FC00283CD1782009F069FA10B9D0
:1016D0001CA004F013FC782008F03EFB10B924A0F5
:1016E00004F00CFCC82009F00DFA10B92AA004F08F
:1016F00005FC07F03DFA10B931A004F0FFFB3D48AE
:1017000008F0C1FA044607F08DFC10B93AA004F0C5
:10171000F5FB40F2731007F0D3F810B940A004F0C5
:10172000EDFBC82007F0AEFB10B947A004F0E6FBC4
:101730000AF040FF012009F0E1F810B94BA004F0D5
:10174000DDFB38BD6D70755F7365745F73656E73B7
:101750006F7220636F6D706C657465202E2E2E2E57
:101760002E2E0D0A000000000CED00E00000FA052E
:101770006D70755F636F6E6669677572655F6669C8
:10178000666F20636F6D706C657465202E2E2E2E33
:101790002E2E0D0A000000006D70755F7365745F7A
:1017A00073616D706C655F7261746520636F6D70DD
:1017B0006C657465202E2E2E2E2E2E0D0A00000034
:1017C000646D705F6C6F61645F6D6F74696F6E5F85
:1017D0006472697665725F6669726D7761726520A1
:1017E000636F6D706C657465202E2E2E2E2E2E0D5F
:1017F0000A00000004030020646D705F7365745F6D
:101800006F7269656E746174696F6E20636F6D705D
:101810006C657465202E2E2E2E2E2E0D0A000000D3
:10182000646D705F656E61626C655F66656174753D
:10183000726520636F6D706C657465202E2E2E2E80
:101840002E2E0D0A00000000646D705F7365745FDA
:101850006669666F5F7261746520636F6D706C6539
:101860007465202E2E2E2E2E2E0D0A006D70755FA3
:101870007365745F646D705F737461746520636F0A
:101880006D706C657465202E2E2E2E2E2E0D0A0086
:101890007047000000B52DED108B89B0B0EE408A86
:1018A000F0EE609AF0EE418AB0EE0C0AB0EE409A8B
:1018B000FC48007818B1FB480078012814D1B0EE3C
:1018C000681AF0EE690AB0EE480A02F0CBFCF6485E
:1018D00090ED000AB0EE408A90ED010AF0EE409AD9
:1018E00090ED020AF0EE408AEE480078002879D1A7
:1018F00039EE880AED48D0ED000AED4890ED001A67
:1019000070EE810A08EEE00AEA4880ED020AB1EEC4
:10191000690A30EE080AE548D0ED000AE44890ED87
:10192000001A70EE810A08EEE00AE34880ED020A30
:1019300039EE880ADD48D0ED000ADD4890ED001A46
:1019400070EE810A08EEA00ADC4880ED020AB1EED2
:10195000690A30EE080AD548D0ED000AD44890ED67
:10196000001A70EE810A08EEA00AD54880ED020A3E
:10197000D048D0ED020AB0EE600AB0EE491AF1EE9E
:10198000490A0BF08AF8CB4880ED020ACA48D0ED2C
:10199000020AB0EE600AB0EE491AF1EE490A0BF005
:1019A0007CF8C54880ED020AC448D0ED020AB0EECA
:1019B000600AB0EE491AF1EE490A0BF06EF8BF4822
:1019C00080ED020ABE48D0ED020AB0EE600AB0EE29
:1019D000491AF1EE490A0BF060F8B94880ED020AA5
:1019E00038E3FFE7AF48007801287AD1B548D0ED59
:1019F000000AB0EE690A00EEA80AAE4880ED020ABD
:101A0000B04890ED000A20EE280A10EE101A0846A1
:101A1000FEF7ABFE41EC1B0BB6EE000A29EE800A86
:101A200010EE101A0846FEF7A0FECDE9040118EEEC
:101A3000100AFEF79AFE41EC1C0B9FEDA30B05F07C
:101A400097FDB0EE40FAF0EE60FA9FEDA10B53EC7B
:101A5000102B51EC1F0BFEF7DCFD41EC1D0B81F050
:101A6000004141EC1E0B53EC1C2BFEF760FDCDE951
:101A700002019DED040B53EC102B9DED020B51EC7C
:101A8000100BFEF74EFD53EC1B2BCDE906019DED2F
:101A9000060B51EC100BFEF7A3FC41EC1A0BFEF702
:101AA000A7FE85498860874890ED000A20EE280A45
:101AB00010EE101A0846FEF758FE41EC1B0BB6EE6E
:101AC000000A29EE800A10EE101A0846FEF74DFEB5
:101AD00041EC1C0B18EE100AFEF747FE41EC1D0B03
:101AE00000E05BE09FED780B05F042FD8DED040B0F
:101AF0009FED770B53EC102B9DED040B51EC100B6D
:101B0000FEF787FD53EC1D2BCDE906019DED060B7D
:101B100051EC100BFEF70BFD41EC1F0B53EC1C2B93
:101B2000FEF7FFFC41EC1E0B53EC1B2BFEF758FCA1
:101B300041EC1A0BFEF75CFE604988605D48D0ED11
:101B4000020AB0EE600AB0EE491AF1EE490A0AF054
:101B5000A4FF584880ED020A5748D0ED020AB0EEC3
:101B6000600AB0EE491AF1EE490A0AF096FF5248AF
:101B700080ED020A5148D0ED020AB0EE600AB0EEE4
:101B8000491AF1EE490A0AF088FF4C4880ED020A32
:101B90009FED510A4A4880ED020A5BE24148007815
:101BA00002287DD19FED4D0AF0EE40DAB0EE68AA32
:101BB0003F4890ED000AF6EE000A20EE200A10EEF3
:101BC000101A0846FEF7D1FD41EC1B0B1AEE100A65
:101BD000FEF7CBFDCDE904019DED040B05F008FDFA
:101BE000B0EE40EAF0EE60EA30480068FEF7BDFD76
:101BF00041EC1F0B53EC1E2BFEF70BFD41EC1C0BB5
:101C000053EC1B2BFEF78DFCCDE906019DED060B79
:101C100051EC100BFEF7ECFD0AEE900A9FED301A26
:101C2000DFED300AB0EE4A0A0AF037FFB0EE40AA04
:101C3000B5EEC0AAF1EE10FA20D01D48D0ED000A92
:101C4000B6EE001AB0EE6A0A01EE600A20EE080A4B
:101C5000C0EE2A0A1748C0ED020A1548D0ED000A66
:101C6000B6EE001AB0EE6A0A01EE200A20EE080A6B
:101C7000C0EE2A0A1048C0ED020A05E00D4880EDCA
:101C8000028A0D4880ED028A9FED170A2AEE000AAB
:101C900010EE101A0846FEF768FD41EC1E0B25E019
:101CA000C0E0000090010020685B0020C801002017
:101CB000C4010020745B0020885B00209C5B002036
:101CC000B05B0020CC0100200000000000000840B4
:101CD000000000000000004000000000D7231F4467
:101CE00048E1FA3E48E1FABEE5D0E23F1AEE100ABA
:101CF000FEF73BFD41EC1C0B1FED0B1BB0EE4C0A3D
:101D0000F0EE6C0A04F0A8FDB0EE40BAF0EE60BA56
:101D10009FEDD20B53EC102B51EC1B0BFEF707FC85
:101D2000CDE902011AEE100AFEF71FFD41EC1B0B74
:101D30001FED1B1BB0EE4B0AF0EE6B0A04F08CFD9E
:101D4000B0EE40CAF0EE60CA9FEDC60B53EC102B0C
:101D500051EC1C0BFEF7EBFBCDE900019DED020BF6
:101D600053EC102B9DED000B51EC100BFEF738FBE4
:101D700041EC1F0B53EC1E2BFEF7D3FB9FEDBB0B6F
:101D800053EC102BCDE904019DED040B51EC100B2D
:101D9000FEF726FBCDE906019DED060B51EC100B7D
:101DA000FEF726FD0DEE100A9FEDB20A7DEE400A09
:101DB0009FEDB10A00EEAD0ABDEEC00AAF4880ED5E
:101DC000000AAF48D0ED020AB0EE600AB0EE491A40
:101DD000F1EE490A0AF061FEA94880ED020AA9481D
:101DE000D0ED020AB0EE600AB0EE491AF1EE490AEF
:101DF0000AF053FEA34880ED020A1FED490AA248EB
:101E000080ED020A1FED4C0AA04880ED020A40F660
:101E100098024FF44871994800680AF053FE9749B8
:101E2000086017E19A480078032842D1994890ED5C
:101E3000000A68EE800AB0EE001A80EE810A38EEE1
:101E4000400A8F4880ED020A924890ED000A68EE41
:101E5000800AB0EE001A80EE810A30EE080A894846
:101E600080ED020A8648D0ED020AB0EE600AB0EEBC
:101E7000491AF1EE490A0AF010FE814880ED020A83
:101E80008048D0ED020AB0EE600AB0EE491AF1EED9
:101E9000490A0AF002FE7B4880ED020A1FED720A31
:101EA000794880ED020A1FED740A784880ED020A35
:101EB000D0E07748007804287DD1764890ED000A7C
:101EC0007548D0ED000A30EE200A60EE280AB0EE28
:101ED000001A80EE810A38EE400A694880ED020A55
:101EE0006C4890ED000A6C48D0ED000A30EE200AF4
:101EF00060EE280AB0EE001A80EE810A38EE400A41
:101F0000604880ED020A634890ED000A6248D0ED17
:101F1000000A30EE200A60EE280AB0EE001A80EEC9
:101F2000810A30EE080A584880ED020A594890EDBF
:101F3000000A5948D0ED000A30EE200A60EE280A67
:101F4000B0EE001A80EE810A30EE080A4F4880EDAC
:101F5000020A4B48D0ED020AB0EE600AB0EE491A10
:101F6000F1EE490A0AF099FD454880ED020A45481C
:101F7000D0ED020AB0EE600AB0EE491AF1EE490A5D
:101F80000AF08BFD3F4880ED020A3F48D0ED020A7F
:101F9000B0EE600AB0EE491AF1EE490A0AF07DFD92
:101FA000394880ED020A3948D0ED020AB0EE600AE5
:101FB000B0EE491A00E007E0F1EE490A0AF06DFDC3
:101FC000324880ED020A45E031480078052841D1C9
:101FD000304890ED000A68EE800AB0EE001A80EEFC
:101FE000810A38EE400A264880ED020A294890ED21
:101FF000000A68EE800AB0EE001A80EE810A30EE28
:10200000080A204880ED020A1D48D0ED020AB0EE11
:10201000600AB0EE491AF1EE490A0AF03EFD18488E
:1020200080ED020A1748D0ED020AB0EE600AB0EE69
:10203000491AF1EE490A0AF030FD124880ED020A11
:102040001FEDDB0A104880ED020A1FEDDD0A0F4884
:1020500080ED020A09B0BDEC108B00BD000000004D
:10206000D34DF43F000000809318E4BF000000004F
:10207000022BF93F1058C93F0080BB449401002057
:10208000745B0020885B00209C5B0020B05B00201C
:1020900090010020C4010020C80100201CB50121CE
:1020A000082001F0DBFB0820009000208DF80400E0
:1020B00003208DF8050001208DF8070069460248CD
:1020C00000F092F91CBD0000000C024000B589B080
:1020D0000121084601F0D2FB0121032001F0BEFBE3
:1020E0004FF40040019003208DF8090002208DF884
:1020F000080001208DF80A008DF80B0001A92B487B
:1021000000F072F90820019003208DF809000220E8
:102110008DF8080001208DF80A008DF80B0001A948
:10212000234800F061F901220F21204800F0A4F9B2
:10213000012203211E4800F09FF906A803F0C2F90E
:102140000020ADF818004FF6FF7007900020ADF8A2
:102150002000ADF81A0006A94FF0804003F070F996
:1021600000231A4603214FF0804002F03CFF03A8F1
:1021700002F0AEFF0020ADF8140003A94FF080403C
:1021800002F06FFF0121880702F00CFF01221146C7
:10219000900702F0A6FF00214FF0804003F022F9E3
:1021A0000121880702F004FF09B000BD00000240D1
:1021B0000004024000B589B00121022001F05EFB5D
:1021C0000121022001F04AFB3020019003208DF80C
:1021D000090002208DF8080001208DF80A008DF812
:1021E0000B0001A9204800F0FFF8022204211E483C
:1021F00000F042F9022205211B4800F03DF906A833
:1022000003F060F90020ADF818004FF6FF7007905A
:102210000020ADF82000ADF81A0006A9134803F01D
:102220000FF900231A460321104802F0DCFE03A830
:1022300002F04EFF0020ADF8140003A90B4802F095
:1022400010FF0121094802F0ADFE012211460748A6
:1022500002F047FF0021054803F0C4F801210348BC
:1022600002F0A6FE09B000BD0004024000040040D8
:1022700000B589B00121042001F000FB01210220FA
:1022800001F0ECFAC020019003208DF80900022033
:102290008DF8080001208DF80A008DF80B0001A9C7
:1022A000204800F0A1F8022206211E4800F0E4F8C0
:1022B000022207211B4800F0DFF806A803F002F90C
:1022C0000020ADF818004FF6FF7007900020ADF821
:1022D0002000ADF81A0006A9134803F0B1F8002356
:1022E0001A460321104802F07EFE03A802F0F0FE19
:1022F0000020ADF8140003A90B4802F0B2FE012142
:10230000094802F04FFE01221146074802F0E9FE9B
:102310000021054803F066F80121034802F048FE59
:1023200009B000BD000402400008004000B589B0BB
:102330000121082001F0A2FA0121084601F08EFADD
:1023400002220021264800F097F8022201212448A9
:1023500000F092F80320019002208DF809008DF81A
:10236000080001208DF80A008DF80B0001A91C4817
:1023700000F03AF806A803F0A5F80020ADF8180020
:102380004FF6FF7007900020ADF82000ADF81A005E
:1023900006A9144803F054F800231A4603211148F3
:1023A00002F021FE03A802F093FE0020ADF8140015
:1023B00003A90C4802F055FE01210A4802F0F2FD83
:1023C00001221146074802F08CFE0021054803F067
:1023D00009F80121034802F0EBFD09B000BD00003F
:1023E00000000240000C0040F0B50A460021002326
:1023F000002400BF3DE0012505FA01F3156805EA58
:1024000003049C4234D105684F000326BE40B54307
:10241000056015794E00B5400668354305601579AD
:10242000012D02D01579022D16D185684F000326A3
:10243000BE40B543856055794E00B540866835434A
:102440008560456801268E40B543456045689679AC
:102450008E40B6B235434560C5684F000326BE4086
:10246000B543C560D5794E00B540C6683543C560F3
:10247000491C1029BFD3F0BDF0B5002300244D073F
:10248000ED0E02FA05F3CE1000F1200555F82650A6
:102490004E07F70E0F26BE40B543CF1000F12006C1
:1024A00046F82750CE1000F1200555F8265045EA91
:1024B0000304CE1000F1200545F82640F0BD01834D
:1024C0007047000010B50446072301222146084842
:1024D000FEF764FB0648FEF7BDFB00BF022104487F
:1024E000FEF728FB0028F9D00148FEF71FFB10BDBE
:1024F0000020014010B50446072301222146084868
:10250000FEF74CFB0648FEF7A5FB00BF022104487E
:10251000FEF710FB0028F9D00148FEF707FB10BDBD
:102520000021014010B52DED048B022001F0ACFB21
:1025300075490860032001F0A7FB73494860042037
:1025400001F0A2FB70498860052001F09DFB6E49F7
:10255000C8606E48007806281AD2DFE800F0031A37
:10256000374C6178684890ED000AB8EEC08A90ED6B
:10257000010AF8EEC08A8068404200EE100AB8EE08
:10258000C09A6148C068404200EE100AF8EEC09A56
:1025900072E05D480068404200EE100AB8EEC08A62
:1025A00059484068404200EE100AF8EEC08A56488A
:1025B0008068404200EE100AB8EEC09A5248C068E7
:1025C000404200EE100AF8EEC09A55E04E4890EDF9
:1025D000000AB8EEC08A4068404200EE100AF8EEE9
:1025E000C08A494890ED020AB8EEC09A90ED030AFD
:1025F000F8EEC09A40E0444890ED000AB8EEC08A78
:102600004068404200EE100AF8EEC08A3E4890ED65
:10261000020AB8EEC09A90ED030AF8EEC09A2BE0D9
:10262000394890ED000AB8EEC08A90ED010AF8EE44
:10263000C08A8068404200EE100AB8EEC09A324864
:10264000C068404200EE100AF8EEC09A14E02E482E
:1026500090ED000AB8EEC08A4068404200EE100AD1
:10266000F8EEC08A284890ED020AB8EEC09A90EDC4
:10267000030AF8EEC09A00BF00BF9FED250A28EEBE
:10268000000A2448D0ED000A20EE200A2248D0EDAE
:10269000000A80EE201A214880ED001A9FED1C0AE6
:1026A00028EE800A1B48D0ED000A20EE200A1A48C6
:1026B000D0ED000A80EE201A194880ED001A9FED37
:1026C000140A29EE000A1348D0ED000A20EE200A71
:1026D0001148D0ED000A80EE201A124880ED001A51
:1026E0009FED0B0A29EE800A0A48D0ED000A20EE81
:1026F000200A0948D0ED000A80EE201A0A4880ED31
:10270000001ABDEC048B10BDC45B002090010020BA
:102710000000C842C0010020BC010020745B002002
:10272000885B00209C5B0020B05B00202DE9F0411D
:1027300007460C460025002608E03846FFF7C2FE93
:102740000544052006F05AF8701CC6B2A642F4DB18
:10275000B5FBF4F080B2BDE8F081000010B52DEDBE
:102760000E8B0820FFF7C6FE0446FDF7D2FF41ECB2
:102770001E0B9FED180B53EC102BFDF7D8FE41EC10
:102780001D0B9FED160B53EC102BFDF7D0FE41EC0B
:102790001C0B9FED140B53EC102BFDF7C8FE41EC06
:1027A0001B0B9FED120B53EC102BFDF732FF41EC8E
:1027B0001A0B9FED100B53EC102BFDF72AFF41EC89
:1027C000190BFEF715F808EE100AB0EE480ABDEC3A
:1027D0000E8B10BD6666666666660A4000000000E5
:1027E000000026400000008014AEEF3F0000000013
:1027F0000000F03F000000000000B04000BFFEE716
:102800001CB50121022001F029F84FF4406000902E
:1028100001208DF8040000208DF8060003208DF8BB
:10282000050001208DF8070069460548FFF7DCFD2B
:102830000120044908600449C1F8AC021CBD000035
:1028400000040240A88240420080404270B5054624
:102850000E46002400F0EAF8284600F0B5F8641CA3
:1028600000F03CF9304600F0AFF8641C00F036F997
:1028700000F0DCF8691CC8B200F0A6F8641C00F097
:102880002DF9002000F06AF8044600F003F9204614
:1028900070BD70B504460D46164600F0C7F82046D8
:1028A00000F092F800F01AF9284600F08DF800F0D8
:1028B00015F9304600F088F800F010F900F0EAF859
:1028C000012070BD10B500200E4908600E48006858
:1028D00020F440000C4908600846006840F480007D
:1028E000086000200949C1F8AC02012005F0A6FFEC
:1028F00001200449086005F0A1FF00200349C1F848
:10290000A80210BDA882404200040240008040425C
:1029100010B500200E4908600E48006820F4400001
:102920000C4908600846006840F4800008600120F7
:102930000949C1F8AC0205F081FF01200449086093
:1029400005F07CFF00200449C1F8A80210BD00007A
:10295000A8824042000402400080404270B5054613
:1029600000241648006820F4400014490860084616
:1029700000680860002616E0002011490860022067
:1029800005F05CFF01200F49C1F8A8026006040EA3
:102990000B487C38006808B1601CC4B2022005F006
:1029A0004DFF701CC6B2082EE6DB15B1FFF78AFF9B
:1029B00001E0FFF7ADFF204670BD000000040240BB
:1029C000A88240420080404270B504461448006826
:1029D00020F44000124908600846006840F4800076
:1029E000086000200F490860002516E0E0090D4945
:1029F000091D08606006040E012005F01FFF01207C
:102A00000949C1F8A80205F019FF0020054908602E
:102A1000012005F013FF681CC5B2082DE6DB70BD70
:102A200000040240A88240420080404210B516488F
:102A3000006820F44000144908600846006840F42B
:102A4000800008600120114908601148D0F82C026C
:102A500008B9002010BD01200C49091F086005F0CD
:102A6000EDFE00200A49C1F8AC0208488038006831
:102A700008B10020EEE7012005F0E0FE0020034948
:102A8000091F08600120E5E700040240AC824042D3
:102A90000080404210B50E48006820F440000C4908
:102AA00008600846006840F480000860002009497A
:102AB00008600949C1F8AC02012005F0BFFE012001
:102AC000044908600449C1F8AC0205F0B7FE10BD26
:102AD00000040240A88240420080404210B5002419
:102AE0001448006820F44000124908600846006855
:102AF000086001201049086005F0A0FE01200F4980
:102B0000C1F8A80205F09AFE0AE0601CC4B2322C9B
:102B100003DDFFF7BFFF002010BD012005F08EFE92
:102B20000548803800680028EFD10349091F086074
:102B30000120F1E700040240AC82404200804042A4
:102B400070B505460E46144631462846FFF77EFE10
:102B50002070012070BD2DE9F843074688461446D1
:102B60001D46089E6A4641463846FFF7E9FF28B3EE
:102B7000601CFF2101FA00F0C4F108012944491E3C
:102B8000FF220A41104300F0FF09C5F1080006FAD0
:102B900000F0C6B2C4F1070006419DF8000000EA4B
:102BA000090000909DF80000304300909DF800203F
:102BB0004146384600F004F8BDE8F8830020FBE702
:102BC00037B504460D4602AB01222946204600F0E7
:102BD00001F83EBD2DE9F04180460D4616461F46E0
:102BE0000024FFF723FF4046FFF7EEFEFFF776FFD6
:102BF0002846FFF7E9FEFFF771FF00BF06E0385DEA
:102C0000FFF7E2FEFFF76AFF601CC4B2B442F6DBD6
:102C1000FFF740FF0120BDE8F081000000B5B0EEF5
:102C2000403AF0EE603AF0EE412A33EEC30A2D4806
:102C300080ED000A2C4890ED000A2A48D0ED000AE9
:102C400020EE200A294880ED000A294890ED000A6C
:102C50002448D0ED000A60EE200A264890ED000AD4
:102C600000EE820A80ED000A1E4890ED000A22481C
:102C7000D0ED000A30EE600A2048D0ED000A20EEC8
:102C8000200AC0EE020A1E48C0ED000AF0EE620AF9
:102C9000B1EE620A174800F041F9144890ED000ABD
:102CA0001448D0ED000A30EE200A1548D0ED000A95
:102CB00030EE200A134880ED000AF0EE610AB1EE12
:102CC000610A00F02BF9074890ED000A0A4880EDF0
:102CD000000A0C4890ED000ABDEEC00A10EE100A82
:102CE00000BD000044020020A801002034020020A2
:102CF000AC0100203802002048020020B001002072
:102D00003C020020400200201CB50121102000F0F0
:102D1000A5FD0120009000208DF8040003208DF80F
:102D2000050001208DF8070069460248FFF75CFBAB
:102D30001CBD00000010024010B5322005F0DEFB83
:102D40000446022C0BD1064806490A6802608988AD
:102D50008180054805490A6802608988818010BD24
:102D6000BC020020C2020020C8020020CE020020C7
:102D70001CB50121084600F071FD4FF48050009011
:102D800001208DF8040000208DF8060003208DF846
:102D9000050001208DF8070069460448FFF724FB71
:102DA0004FF480510148FFF78AFB1CBD0000024030
:102DB00070B504460025BC2C01DB012510E0622C17
:102DC00001DB02250CE02A2C01DB032508E0142C92
:102DD00001DB042504E00A2C01DB052500E00625C3
:102DE0002A461A21D020FFF754FD70BD70B5044665
:102DF000B4F57A7F01DD4FF47A74042C00DA0424F0
:102E00004FF47A7090FBF4F0401EC5B22A461921A7
:102E1000D020FFF73EFD0546264604EBD671C1F3F0
:102E20004F00FFF7C5FF70BD10B580226B21D02089
:102E3000FFF72FFDC82005F0E1FC00226B21D02018
:102E4000FFF727FD012000F03DF8002000F030F8EA
:102E50003220FFF7CBFF00223821D020FFF719FDE9
:102E600000226A21D020FFF714FD00222321D02068
:102E7000FFF70FFD80223721D020FFF70AFD7521D3
:102E8000D020FFF7E3FC0446682C0DD101226B2112
:102E9000D020FFF7FEFC00226C21D020FFF7F9FCC8
:102EA0003220FFF7A3FF01E0012010BD0020FCE766
:102EB00038B50446022304221C21D0200094FFF7D9
:102EC0004AFE38BD38B50446022304221B21D02017
:102ED0000094FFF740FE38BD08B506F0E5FA009013
:102EE00017E0022168460AF077F900F081FD0948F1
:102EF0000068401C074908600846006840F6B83181
:102F0000884206DD0448007818B906F043FB024900
:102F10000870E6E7B80200200D03002090ED001ACB
:102F2000B4EEC01AF1EE10FA02D280ED000A08E009
:102F300090ED001AB4EEE01AF1EE10FA01DDC0EDEA
:102F4000000A704700BFFEE77047000070B500211F
:102F500000230F22C4781CB3174C246804F4E064E7
:102F6000C4F5E064C4F30721C1F10404E3B20A41EB
:102F700044789C40E1B28478144021430C07210E30
:102F80000E4C05786155047804F01F050124AC400F
:102F900005786D11AD0005F1E025C5F8004109E0A7
:102FA000047804F01F050124AC40054D0678761125
:102FB00045F8264070BD00000CED00E000E400E0A4
:102FC00080E100E002490143024A116070470000BD
:102FD0000000FA050CED00E030B500240CE00025FF
:102FE00006E00020074901EBC5010855681CC5B281
:102FF000802DF6DB601CC4B2082CF0DB00F0D2F8A8
:1030000030BD00004C030020F0B5144600267F2898
:1030100001DC3F2900DDF0BD0B46CF1701EB5777F0
:10302000FF10C7F10707FAB2CF1701EB5777FF1070
:10303000A1EBC707FDB2C5F107070123BB40DEB214
:103040004CB10A4B03EBC0039B5C3343074F07EBC8
:10305000C007BB5408E0054B03EBC0039B5CB343C4
:10306000024F07EBC007BB5400BFD4E74C0300205E
:103070001CB50121082000F0F1FB4FF4F040009056
:1030800001208DF8040000208DF806008DF8050061
:103090008DF8070069464048FFF7A6F901210807A7
:1030A00000F0ECFB012000F0D3FB002000F08AFCD4
:1030B000002000F0CDFB002038490860642005F0B6
:1030C0009DFB01203649C1F8B0020021AE2000F07E
:1030D0004FF90021D52000F04BF90021502000F0DD
:1030E00047F90021A82000F043F900213F2000F01B
:1030F0003FF90021D32000F03BF90021084600F001
:1031000037F90021402000F033F900218D2000F034
:103110002FF90021142000F02BF90021202000F0CD
:1031200027F90021022000F023F90021A12000F05E
:103130001FF90021C02000F01BF90021DA2000F067
:1031400017F90021122000F013F90021812000F06E
:103150000FF90021EF2000F00BF90021D92000F039
:1031600007F90021F12000F003F90021DB2000F035
:10317000FFF80021302000F0FBF80021A42000F02F
:10318000F7F80021A62000F0F3F80021AF2000F0AE
:10319000EFF8FFF721FF1CBD000C0240B082414256
:1031A0000080414230B500241CE004F1B001C8B2F7
:1031B000002100F0DDF80021084600F0D9F80021D8
:1031C000102000F0D5F8002508E0084901EBC50102
:1031D000085D012100F0CCF8681CC5B2802DF4DB3D
:1031E000601CC4B2082CE0DB30BD00004C030020A2
:1031F0002DE9F04F80460C4615461E46A346A5F124
:103200002000C5B200273EE00C2E07D105EB45009B
:103210001F4901EB800010F8079004E01D4800EB07
:10322000051010F807904FF0000A26E009F0800022
:1032300028B121464046099AFFF7E6FE09E00998C1
:1032400008B9012000E00020024621464046FFF771
:10325000DBFE4FEA49604FEA1069601CC4B2A4EB80
:103260000B00B04205D15C4608F1010000F0FF08F8
:1032700006E00AF1010000F0FF0ABAF1080FD5DB01
:1032800000BF781CC7B2B742BEDBBDE8F08F0000BC
:103290007CE40008F0E800082DE9FF4F81B0074604
:1032A00091461E460E9D4FF0000A002439E0301B67
:1032B000401EC1B20A2007F01CFDB9FBF0F00A2144
:1032C000B0FBF1F201FB1208BAF1000F16D1701E2B
:1032D000A04213DDB8F1000F0ED10120AB4605EB83
:1032E000DB71491001FB04710090C8B22B4620220B
:1032F0000299FFF77DFF12E04FF0010A0120AB4673
:1033000005EBDB71491001FB04710090C8B208F1B4
:103310003001CAB22B460299FFF76AFF00BF601C5A
:10332000C4B2B442C3DB05B0BDE8F08F78B5054642
:103330000E46144618E07A2D03DD002506F1100034
:10334000C6B23A2E04DD002005460646FFF744FECD
:103350000120009022780C2331462846FFF748FFD1
:1033600005F10800C5B2641C20780028E3D178BDBF
:1033700010B50A461AB10123124C236002E0002363
:10338000104C2360002116E000230E4C0C34236007
:1033900000F080031BB10123241F236003E00023FE
:1033A000084C083423600123064C0C342360430688
:1033B000180E4B1CD9B20829E6DB0123014C23600F
:1033C00010BD0000AC82414201460148405C70479C
:1033D0004C070020002004E00021034A1154411C46
:1033E000C8B20928F8DB70474C07002038B50446FE
:1033F0000120009000201E494870012000902EE01E
:10340000BDF80000204018B101201A49086002E010
:10341000002018490860012016491039086005206D
:1034200005F00CFA00201449C1F8A002052005F0AF
:1034300005FA01201049C1F8A0020846D0F83C0264
:1034400030B10B484078BDF8001008430849487077
:10345000BDF800004FF6FF7101EA40000090BDF892
:103460000000FF28CCDD102005F0E8F938BD000091
:103470004C070020B00242420000424210B5FFF764
:10348000A9FF00F02FF90F48C0780E49097940EAEA
:1034900001200D49088000240FE00C4810F81400AA
:1034A000401E012101FA00F007490988084010B9BF
:1034B000601CC0B210BD601CC4B2102CEDDB00203B
:1034C000F8E700004C0700204000002044000020E6
:1034D00010B5002013490860102005F0AFF9012055
:1034E000FFF784FF4320FFF781FF0020FFF77EFFF7
:1034F0000120FFF77BFF0020FFF778FF0020FFF798
:1035000075FF0020FFF772FF0020FFF76FFF00201C
:10351000FFF76CFF01200449C1F8A802102005F054
:103520008DF910BDA80242420000424210B50020B1
:1035300013490860102005F081F90120FFF756FFBC
:103540004320FFF753FF0020FFF750FF0020FFF755
:103550004DFF5A20FFF74AFF5A20FFF747FF5A2036
:10356000FFF744FF5A20FFF741FF5A20FFF73EFFC5
:1035700001200449C1F8A802102005F05FF910BD30
:10358000A8024242000042421CB50121102000F076
:1035900065F94FF40040009000208DF804000320EE
:1035A0008DF8050002208DF8070069460B48FEF7EC
:1035B0001BFF4FF4A850009001208DF8040000205C
:1035C0008DF8060002208DF8050001208DF8070017
:1035D00069460248FEF708FF1CBD000000100240CB
:1035E00010B5FFF74BFF00EE100AB8EE400A2F4867
:1035F00080ED000A0720FFF7E7FE00EE100AB8EEA4
:10360000400A2B4880ED000A0820FFF7DDFE00EE9F
:10361000100AB8EE400A274880ED000A0520FFF79F
:10362000D3FE00EE100AB8EE400A234880ED000AEF
:103630000620FFF7C9FE00EE100AB8EE400A1F4848
:1036400080ED000A194890ED000AF1EE000AB4EE90
:10365000600AF1EE10FA05D11948007810B901207E
:103660001849086017480068F8B1124890ED000A40
:10367000DFED150AB4EEE00AF1EE10FA15D21048AB
:10368000007890B911480068B0F57A7F0DDB012011
:103690000B49087000200E4908700E4908700E4949
:1036A00008700E4908700E49087010BDEC0100202A
:1036B000DC010020E0010020E4010020E8010020FE
:1036C000D0010020640000200000EC42B80200207D
:1036D000D2010020D1010020D3010020D40100201C
:1036E000D50100201CB50020019001200090002091
:1036F0002549086025490878FFF778FE234948786E
:10370000FFF774FE0220019036E00120009027E0D0
:1037100001201D4908390860052005F08FF80020B8
:103720001B49C1F8A002052005F088F801201849BE
:10373000C1F8A0020846D0F83C0250B115489DF8E7
:103740000410405CBDF80010084312499DF80420A5
:103750008854BDF800004FF6FF7101EA4000009068
:10376000BDF80000FF28D3DD102005F067F89DF8B4
:103770000400401CC0B201909DF804000928C4DB7D
:103780000120014908601CBDA802424242000020FD
:10379000000042424C07002010B500F00BF800F08A
:1037A00009F800F007F8FFF793FE00F025F8FFF79F
:1037B000BDFE10BD10B500200D490860102005F0B9
:1037C0003DF80120FFF712FE4220FFF70FFE002018
:1037D000FFF70CFE0020FFF709FE0020FFF706FEB2
:1037E00001200449C1F8A802102005F027F810BDF7
:1037F000A80242420000424210B50020124908606F
:103800000120FFF7F3FD4420FFF7F0FD0020FFF754
:10381000EDFD0120FFF7EAFD0320FFF7E7FD0020A3
:10382000FFF7E4FD0020FFF7E1FD0020FFF7DEFDDC
:103830000020FFF7DBFD01200449C1F8A802102099
:1038400004F0FCFF10BD0000A8024242000042420A
:10385000014908627047000000000E4229B1064A83
:1038600012680243044B1A6004E0034A1268824360
:10387000014B1A60704700003038024029B1064AF7
:1038800012680243044B1A6004E0034A1268824340
:10389000014B1A60704700004038024029B1064AC7
:1038A00012680243044B1A6004E0034A1268824320
:1038B000014B1A60704700004438024029B1064AA3
:1038C00012680243044B1A6004E0034A1268824300
:1038D000014B1A607047000024380240F0B5002107
:1038E00000220024022500260223324F3F6807F001
:1038F0000C0121B1042905D0082937D105E02E4F4C
:10390000076036E02D4F076033E02A4F3F1F3F68C6
:10391000C7F38056274F3F1F3F6807F03F036EB144
:10392000264FB7FBF3F7DFF88CC0ACF1040CDCF8E2
:1039300000C0CCF3881C07FB0CF40CE01E4FB7FB57
:10394000F3F7DFF870C0ACF1040CDCF800C0CCF386
:10395000881C07FB0CF4174F3F1F3F68C7F3014754
:103960007F1C7D00B4FBF5F7076002E0124F076093
:1039700000BF00BF0F4F3F6807F0F0010909104F6B
:103980007A5C0768D74047600A4F3F6807F4E05108
:10399000890A0B4F7A5C4768D7408760054F3F68BC
:1039A00007F46041490B064F7A5C4768D740C7600F
:1039B000F0BD0000083802400024F40000127A0034
:1039C000020100200021094A11701170012802D063
:1039D000042808D103E00121044A117004E0052104
:1039E000024A117000E000BF00BF7047703802400B
:1039F00000B52DED088B89B007A8964908AB03AA3E
:103A0000CDE900109449954805F0BEF8914800882A
:103A100000F4807000287DD09DED030AB8EEC00A46
:103A2000DFED8F0A80EE201A8E4880ED001A9DEDA2
:103A3000040AB8EEC00ADFED8A0A80EE201A8A482E
:103A400080ED001A9DED050AB8EEC00ADFED840A8C
:103A500080EE201A854880ED001A9DED060AB8EE2A
:103A6000C00ADFED7F0A80EE201A814880ED001A3F
:103A70007D4890ED000AF8EE000A20EE200A7C480E
:103A8000D0ED000A20EE200A7648D0ED000AB0EE14
:103A9000001A60EE810A754890ED001A00EE810A66
:103AA00010EE101A0846FCF760FE41EC1A0BB0EE5F
:103AB0004A0AF0EE6A0A02F04BFAB0EE409AF0EED3
:103AC000609A9FED6C0B53EC102B51EC190BFCF72B
:103AD0002EFD41EC180BFCF78BFE6849086062482C
:103AE00090ED000AF8EE000A20EE200AD0ED000A60
:103AF00020EE200A5D48D0ED000AB0EE001A60EE1C
:103B0000810A90ED001A00EEC10AF7EE000A30EECD
:103B1000200A00E099E010EE101A0846FCF725FE96
:103B200041EC1A0B514890ED000AF0EE000A20EE2D
:103B3000200A4F48D0ED000A20EE200A4948D0ED77
:103B4000000AB0EE001A60EE810A474890ED001AB4
:103B500000EE810A10EE101A0846FCF706FE41EC52
:103B60001B0BB0EE4A1AF0EE6A1AB0EE4B0AF0EEFA
:103B70006B0A02F009FDB0EE409AF0EE609A9FEDFC
:103B80003D0B53EC102B51EC190BFCF7D0FC41EC26
:103B9000180BFCF72DFE3A490860324890ED000AF8
:103BA00020EE000A3048D0ED000A90ED001A00EE39
:103BB000810A2E48D0ED000A90ED001A00EEC10AED
:103BC0002B48D0ED000A90ED001A00EEC10A10EE6D
:103BD000101A0846FCF7C9FD41EC1A0B224890ED7B
:103BE000000A2248D0ED000A20EE200A1D48D0ED40
:103BF000000A1F4890ED001A00EE810AF0EE000A5C
:103C000020EE200A10EE101A0846FCF7AEFD41EC3B
:103C10001B0BB0EE4A1AF0EE6A1AB0EE4B0AF0EE49
:103C20006B0A02F0B1FCB0EE409AF0EE609A9FEDA4
:103C3000110B53EC102B51EC190BFCF778FC41ECF9
:103C4000180BFCF7D5FD0F49086009B0BDEC088BD7
:103C500000BD0000A8020020A20200209C0200205B
:103C60000000804ED4020020D8020020DC02002098
:103C7000E00200206666666666A64C40AC02002044
:103C8000B0020020B40200200146022906D0032918
:103C90000DD0042912D005291ED116E04FF0804224
:103CA000526A10B200224FF080435A6216E00C4A6A
:103CB000126810B200220A4B1A600FE0094A12681B
:103CC00010B20022074B1A6008E0074A126810B2CF
:103CD0000022054B1A6001E0002000BF00BF7047C2
:103CE0002404004024080040240C004010B52DEDB1
:103CF000088BB0EE40BAF0EE60BAB0EE418AF0EE5A
:103D0000618AB0EE429AF0EE629AB0EE43AA51ECAC
:103D10001B0BFCF76DFD1D490860084680ED018A0C
:103D2000C0ED058ABDEEC90A80ED020ABDEEE90AC2
:103D300080ED030A80ED04AAC068800089684843CA
:103D400000EE100AB8EEC00A114880ED000A0F48D4
:103D500090ED040ADFED0F0A20EE200A0E4880EDF8
:103D6000000A0A4890ED000A0C4880ED000A074856
:103D700090ED010A0A4880ED000A044890ED050A1A
:103D8000084880ED000ABDEC088B10BDD45B002014
:103D9000BC010020DB0F4940C0010020C40100200D
:103DA000C8010020CC010020F0B52DED108B81B0B2
:103DB00005460E4614461F469FED520A8DED000A39
:103DC0005148D0ED000A514890ED000A30EE800ACB
:103DD000F0EE000A80EE201AB0EE418A90ED000A63
:103DE0004948D0ED000A70EE600A494890ED001A8B
:103DF00080EE810AF0EE408A94ED000A10EE101A6F
:103E00000846FCF7B2FC41EC1F0BB0EE4F0AF0EE97
:103E10006F0A02F0B1FCB0EE40DAF0EE60DA18EEB4
:103E2000100AFCF7A2FC41EC1E0B53EC1D2BFCF717
:103E30007EFB41EC1C0B9FED370B53EC102BFCF77A
:103E400076FB41EC1A0B95ED000A10EE101A0846AD
:103E5000FCF78BFC41EC1B0B53EC1A2BFCF7C0FA64
:103E600041EC190BFCF7C4FC286094ED000A10EE3D
:103E7000101A0846FCF779FC41EC1F0BB0EE4F0A14
:103E8000F0EE6F0A03F010FBB0EE40DAF0EE60DA0D
:103E900018EE100AFCF769FC41EC1E0B53EC1D2BCD
:103EA000FCF745FB41EC1C0B9FED1A0B53EC102B60
:103EB000FCF73DFB41EC1A0B96ED000A10EE101AD0
:103EC0000846FCF752FC41EC1B0B53EC1A2BFCF799
:103ED00087FA41EC190BFCF78BFC306094ED000A7B
:103EE000DFED080A08EEA00A84ED000A97ED000A4B
:103EF000DFED040A08EE200A87ED000A01B0BDECF0
:103F0000108BF0BD0AD7233C745B0020885B002037
:103F1000C401002000000040E17A843F10B54FF456
:103F2000AD70554908600A210920FEF7FFFB524990
:103F3000096890FBF1F0514908700846007805289F
:103F400001DD052008704D48007806285ED2DFE8C4
:103F500000F0031221303F4E9FED493AF2EE0A2A5B
:103F6000B3EE0E2ADFED471A9FED471A9FED470B80
:103F7000FFF7BCFE4AE09FED473AF2EE0A2AB3EEA5
:103F80000E2ADFED451A9FED3F1A9FED440BFFF718
:103F9000ADFE3BE09FED433AF2EE0A2AB3EE0E2A65
:103FA000DFED381A9FED401A9FED400BFFF79EFEA4
:103FB0002CE09FED3C3AF2EE0A2AB3EE0E2ADFED3A
:103FC000311A9FED301A9FED3B0BFFF78FFE1DE07E
:103FD0009FED343AF2EE0A2AB3EE0E2ADFED291AEB
:103FE0009FED361A9FED360BFFF780FE0EE09FED3A
:103FF000363AF2EE0A2AB3EE0E2ADFED221A9FEDD0
:10400000211A9FED320BFFF771FE00BF00BF1B4866
:10401000007806282ED2DFE800F0030A11181F26C8
:1040200008202C4908600E202B49086022E0062059
:10403000284908600A20284908601BE00420254917
:10404000086007202449086014E004202149086022
:104050000720214908600DE008201E4908600B2058
:104060001D49086006E004201A49086007201A4923
:10407000086000BF00BF10BD8C010020900100202F
:104080009A99993D000000007B14AE3D022B8716E3
:10409000D9CEB73F8FC2753D643BDF3D00000000C5
:1040A00000000000B81E853DBC74133E0000008077
:1040B0006ABCC43F000000A0EFA7C63FE926313E1E
:1040C000000000C09DEFC73FC520303D000000E06C
:1040D0007A14CE3F00020020040200200CB500201C
:1040E000019000903448006840F480303249086004
:1040F00000BF3148006800F4003000900198401C77
:104100000190009818B90198B0F5A04FF1D12A4854
:10411000006800F4003010B10120009001E00020A0
:1041200000900098012846D123484030006840F0B4
:1041300080502149403108602048006840F44040E8
:104140001E4908601C48083000681B490831086097
:104150000846006840F4004008600846006840F4E3
:10416000A05008601648091F0860081F006840F04A
:104170008070091F086000BF0F48006800F00070E1
:104180000028F9D040F205700E4908600A4808304E
:10419000006820F0030008490831086008460068FC
:1041A00040F00200086000BF03480830006800F0DB
:1041B0000C000828F8D10CBD003802400070004007
:1041C00008544007003C024070B5049C002807DA00
:1041D00044F29F151E4E356005441E4E356006E0C4
:1041E00044F29F151B4E35602D1A194E356000297B
:1041F00006DA44F29F15184E75630D44B56305E069
:1042000044F29F15144EB5636D1A7563002A06DAE1
:1042100044F29F15114EB5631544756305E044F2F1
:104220009F150E4E7563AD1AB563002B06DA44F286
:104230009F150A4E35641D44F56305E044F29F1551
:10424000064EF563ED1A3564054D2C6070BD000017
:104250003444014034480140004001400000014026
:104260003818004000B5F0EE403AF0EE602AB0EEAB
:10427000413A9FED680AB0EE402AF5EEC03AF1EE01
:1042800010FA07DD644890ED000A30EE020A80ED76
:10429000000A1AE0F5EEC03AF1EE10FA07D25E48D5
:1042A00090ED000A30EE420A80ED000A0DE0F5EED6
:1042B000C03AF1EE10FA08D1574890ED000ADFED50
:1042C000570A20EE200A80ED000AF5EEC02AF1EE32
:1042D00010FA07DD504890ED010A30EE020A80ED39
:1042E000010A1AE0F5EEC02AF1EE10FA07D24A48A8
:1042F00090ED010A30EE420A80ED010A0DE0F5EE84
:10430000C02AF1EE10FA08D1434890ED010ADFED22
:10431000430A20EE200A80ED010AB5EEC03AF1EE24
:1043200010FA07DD3C4890ED020A30EE020A80EDFB
:10433000020A1AE0B5EEC03AF1EE10FA07D236489A
:1043400090ED020A30EE420A80ED020A0DE0B5EE71
:10435000C03AF1EE10FA08D12F4890ED020ADFEDD5
:104360002F0A20EE200A80ED020AB0EE630A05F063
:104370007FF8B0EE404AB0EE630A05F079F8B1EE8E
:10438000400AF0EE404A2448D0ED000AB0EE600A40
:10439000B0EE441AF0EE640A08F07FFB1E4880ED90
:1043A000000AB0EE620A05F063F8B0EE404AB0EEE3
:1043B000620A05F05DF8B1EE400AF0EE404A164898
:1043C000D0ED010AB0EE600AB0EE441AF0EE640AD5
:1043D00008F063FB104880ED010AB0EE430A05F0D7
:1043E00047F8B0EE404AB0EE430A05F041F8B1EEAE
:1043F000400AF0EE404A0848D0ED020AB0EE600AEA
:10440000B0EE441AF0EE640A08F047FB024880ED73
:10441000020A00BD0AD7233C685B00206666663F3F
:10442000042808D14FF0E021096941F004014FF060
:10443000E022116107E04FF0E021096921F0040159
:104440004FF0E0221161704710B509F06FFD0128AF
:1044500001D009F0F1F910BD10B51548006840F41D
:104460007000134908601348006840F001001149CA
:10447000086000200F49083108600E4800680E49A6
:1044800008400C4908600D48091D0860081F0068B5
:1044900020F48020091F0860002006490C310860C4
:1044A000FFF71CFE4FF0006001498039086010BD25
:1044B00088ED00E000380240FFFFF6FE10300024D7
:1044C00010B54FF0E022926922F07F42104B1A6043
:1044D00002681B689A4204D30D4B02681B68D11A0C
:1044E00006E00C4B02681B68094C24681B1BD118A2
:1044F00000EE901AB8EE601A074AD2ED000AF8EE04
:10450000600A81EE200A024A1268026010BD0000B3
:10451000F8000020F400002004000020F0B50C4654
:10452000154600210022068C4FF6FE773E40068499
:10453000018B028C4FF60C7631407E1C06EA031686
:104540002E4331434FF6F576324044F001063243B4
:1045500001830284F0BDF0B50C461546002100220F
:104560000026078C4FF6EF7C07EA0C070784018BC7
:10457000028C4FF6FF7707EA041640F6FF473940F2
:104580004FF6FF7707EA033739434FF6FF7707EA1D
:10459000052739434FF65F773A4046F010073A4314
:1045A00001830284F0BDF0B50C46154600210022BF
:1045B0000026078C4FF6FF6C07EA0C070784818BF7
:1045C000028C4FF6FF7707EA04264FF60C77394046
:1045D0004FF6FF7707EA03172F4339434FF2FF5790
:1045E0003A4046F480773A4381830284F0BDF0B5C7
:1045F0000C461546002100220026078C4EF6FF7C53
:1046000007EA0C070784818B028C4FF6FF7707EAD5
:10461000043640F6FF4739404FF6FF7707EA052793
:1046200039434FF6FF7707EA0337394345F6FF77FB
:104630003A4046F480573A4381830284F0BD00003B
:1046400030B58BB005460C4601210220FFF706F974
:1046500001214804FFF722F9032208211E48FDF733
:104660000BFF02208DF81C0000208DF81E004FF477
:104670008070069001208DF81F0003208DF81D002A
:1046800006A91548FDF7B0FE0995ADF820400020B9
:10469000ADF82800ADF8220008A9104800F0D0FEBF
:1046A0006020ADF804000120ADF806000020ADF850
:1046B000100001A9094800F01DFD0821074800F07D
:1046C00060FD0121054800F061FC0121034800F074
:1046D0006FFC0BB030BD00000004024000440140FC
:1046E00030B58BB005460C4601210220FFF7B6F825
:1046F00001218804FFF7D2F8032209212048FDF7A1
:10470000BBFE02208DF81C0000208DF81E004FF427
:104710000070069001208DF81F0003208DF81D0009
:1047200006A91748FDF760FE0995ADF82040002066
:10473000ADF82800ADF8220008A9124800F080FE6C
:104740006020ADF804000120ADF806000020ADF8AF
:10475000100001A90B4800F0CDFC0821094800F029
:1047600010FD0121074800F02FFC0121054800F051
:104770000DFC0121034800F01BFC0BB030BD000014
:10478000000402400048014030B58BB005460C469D
:1047900001214020FFF772F801210220FFF75EF8A7
:1047A00002208DF828004FF44040099003208DF836
:1047B000290000208DF82A0001208DF82B0009A97E
:1047C0002248FDF711FE09220E212048FDF754FE74
:1047D00009220F211D48FDF74FFE0795ADF818403F
:1047E0000020ADF82000ADF81A0006A9184800F026
:1047F00027FE6020ADF804000120ADF8060000207F
:104800000390ADF81000ADF8140001A9104800F0B5
:1048100071FC01A90E4800F0BDFC08210C4800F015
:10482000B0FC08210A4800F014FD0121084800F0FE
:10483000CBFB0121064800F0BBFB40F2DC500449F1
:1048400038310860091F08600BB030BD0004024019
:104850000018004030B58BB005460C4601210846D3
:10486000FFF71CF801211020FEF7F8FF01220921B3
:104870003448FDF701FE01220B213248FDF7FCFD13
:1048800001220D212F48FDF7F7FD01220E212D48B1
:10489000FDF7F2FD4FF4D440099002208DF8280076
:1048A00003208DF8290000208DF82A0001208DF8C2
:1048B0002B0009A92348FDF797FD0795ADF818408F
:1048C0000120ADF820000020ADF81A0006A91E480E
:1048D00000F0B6FD6020ADF804000120ADF8060040
:1048E0000020ADF8100001A9174800F003FC01A951
:1048F000154800F04FFC01A9134800F0B7FC01A9CE
:10490000114800F019FD01210F4800F05DFB08215E
:104910000D4800F036FC08210B4800F09AFC0821F5
:10492000094800F000FD0821074800F04EFD012174
:10493000054800F02BFB0121034800F039FB0BB0C8
:1049400030BD000000100240000001404FF08040E8
:10495000008A4FF08040008A20F001004FF0804133
:1049600008827047044800880348008820F001004E
:104970000149088070470000100400400448008886
:104980000348008820F001000149088070470000BA
:1049900010080040044800880348008820F0010007
:1049A0000149088070470000100C0040044800884E
:1049B0000348008820F0010001490880704700008A
:1049C0001018004010B5CA480068B0F5C86F15DD72
:1049D000C848007890B9C8480068B0F57A7F0DDB08
:1049E0000120C44908700020C4490870C4490870F7
:1049F000C4490870C4490870C4490870C4480078A4
:104A000000F08000002857D10221C24800F018FBB6
:104A1000002851D00221BF4800F0C7FABC480078F6
:104A200000F04000C0B3BB4800F0FEFABA4908806D
:104A300008460088B9490988884204DA42F20F70B2
:104A4000B749086002E00020B5490860B248008814
:104A5000B2490988401AB24909680844B149086056
:104A60000968B14A1268881A002801DB014600E093
:104A70004142B1F5FA7F03DDAB480068A9490860FF
:104A8000A8480068A84908600020A14908700021D2
:104A9000A04800F06DFB0FE0FFE79E4800F0C4FA6D
:104AA0009E4908809A48007840F040009849087074
:104AB0000221984800F05CFB9C48007800F08000E0
:104AC000002857D10421934800F0BAFA002851D0A9
:104AD0000421904800F069FA9448007800F0400002
:104AE000C0B38C4800F0A3FA9149088008460088BA
:104AF00090490988884204DA42F20F708E490860B2
:104B000002E000208C4908608948008889490988AA
:104B1000401A894909680844754908600968874A44
:104B20001268881A002801DB014600E04142B1F515
:104B3000FA7F03DD814800686D4908606C480068B1
:104B40007E4908600020794908700021714800F012
:104B500073FB0FE0FFE76F4800F069FA75490880C2
:104B60007248007840F0400070490870022169489E
:104B700000F062FB7248007800F08000002857D1F6
:104B80000821644800F05CFA002851D008216148EF
:104B900000F00BFA6A48007800F04000C0B35D48AE
:104BA00000F048FA67490880084600886649098885
:104BB000884204DA42F20F706449086002E0002083
:104BC000624908605F4800885F490988401A5F4968
:104BD000096808445E49086009685E4A1268881AD4
:104BE000002801DB014600E04142B1F5FA7F03DD18
:104BF000584800685649086055480068554908609B
:104C000000204F4908700021424800F07FFB0FE070
:104C1000FFE7404800F00EFA4B490880484800780A
:104C200040F040004649087002213A4800F06EFB0F
:104C30004948007800F08000002857D110213548FD
:104C400000F0FEF9002851D01021324800F0ADF9F3
:104C50004148007800F04000C0B32E4800F0EDF964
:104C60003E490880084600883D490988884204DAA0
:104C700042F20F703B49086002E0002039490860A9
:104C80003648008836490988401A36490968084478
:104C9000354908600968354A1268881A002801DB1E
:104CA000014600E04142B1F5FA7F03DD2F4800687C
:104CB0002D4908602C4800682C49086000202649CE
:104CC00008700021134800F073FB0FE0FFE7114864
:104CD00000F0B3F9224908801F48007840F04000F6
:104CE0001D49087002210B4800F062FB10BD000056
:104CF00094000020D2010020B8020020D101002041
:104D0000D0010020D3010020D4010020D5010020D3
:104D100068000020000401406C0000206A000020B0
:104D20008000002090000020A00000206E000020E5
:104D3000720000207000002084000020A4000020E9
:104D400074000020780000207600002088000020F9
:104D500098000020A80000207A0000207E0000209B
:104D60007C0000208C0000209C000020AC00002073
:104D700030B589B005460C4601210220FEF78EFDB4
:104D800001210420FEF76AFD4FF4707007900220A5
:104D90008DF8200003208DF8210000208DF82200DE
:104DA00002208DF8230007A94348FDF71DFB0322CD
:104DB00006214148FDF760FB032207213E48FDF72D
:104DC0005BFB032208213C48FDF756FB0322092127
:104DD0003948FDF751FB0595ADF810400020ADF8BE
:104DE0001800ADF8120004A9344800F029FB002097
:104DF000ADF80000ADF802000120ADF8040000207D
:104E0000ADF806000F20ADF8080069462B4800F009
:104E100028F90420ADF800000020ADF802000120C0
:104E2000ADF804000020ADF80600ADF808006946B2
:104E3000224800F016F90820ADF800000020ADF877
:104E400002000120ADF804000020ADF80600ADF826
:104E500008006946194800F004F90C20ADF800007C
:104E60000020ADF802000120ADF804000020ADF8EC
:104E70000600ADF808006946104800F0F2F82E2050
:104E80008DF80C0002208DF80D008DF80E00012029
:104E90008DF80F0003A8FEF759F801221E210748DC
:104EA00000F01FF90121054800F08EF801210348A8
:104EB00000F07EF809B030BD000802400004014057
:104EC0000348008820F00100014908807047000075
:104ED0001004014030B58BB005460C460121080492
:104EE000FEF7DCFC01211020FEF7B8FC03220521AF
:104EF0002448FDF7C1FA032206212248FDF7BCFA37
:104F00006020069002208DF81C0003208DF81D0003
:104F100000208DF81E0001208DF81F0006A91948F9
:104F2000FDF762FA0995ADF820400020ADF82800A1
:104F3000ADF8220008A9144800F082FA6020ADF80C
:104F400004000120ADF806000020ADF8100001A912
:104F50000D4800F0CFF801A90B4800F01BF908211B
:104F6000094800F00EF90821074800F072F9012104
:104F7000054800F00BF80121034800F019F80BB0C8
:104F800030BD0000001002400040014021B1028805
:104F900042F08002028004E002884FF67F731A40DC
:104FA00002807047CA4302827047CA430282704738
:104FB00021B1028842F00102028004E002884FF62B
:104FC000FE731A400280704731B1B0F8442042F4B9
:104FD0000042A0F8442005E0B0F84420C2F30E02DD
:104FE000A0F844207047F0B50C4615461E46002137
:104FF000002200230189028B038C4FF6F877394099
:1050000021434FF6FC473A4040F201173A434FF62E
:10501000DD773B404FF6FF7707EA06172F433B4308
:10502000018102830384F0BD0146486B704701464D
:10503000886B70470146C86B70470146086C704723
:1050400030B50246002000230024158A05EA01033A
:10505000958905EA010413B10CB1012000E000209C
:1050600030BD70B505460C46208850B92389A2880A
:1050700061882846FFF752FAE188284600F0B4F923
:1050800025E0208804280AD12389A288618828463F
:10509000FFF761FAE188284600F0AFF917E02088B1
:1050A00008280AD12389A28861882846FFF77BFA5D
:1050B000E188284600F0AEF909E02389A2886188DA
:1050C0002846FFF794FAE188284600F0ACF970BD55
:1050D000002101804180012181800021C180018166
:1050E00070471AB183890B43838102E083898B4324
:1050F0008381704770B5002400220023058C4FF691
:10510000FE7635400584028C8388048B4FF68F75BC
:105110002C40B51E2C400D882C43751E2A408D89CD
:105120002A434D882A43104DA84202D00F4DA84271
:1051300013D14FF6F7752A40CD892A434FF6FB75F8
:105140002A408D882A434FF6FF652B404FF6FF55C6
:105150002B400D8A2B434D8A2B43838004838D681B
:105160004563028470BD000000000140000401405E
:105170000A460021018C4FF6FD731940114301844A
:1051800070470A460021018B4FF6F773194011430F
:105190000183704770B5002400220023058C4FF670
:1051A000EF7635400584028C8388048B48F6FF75C2
:1051B0002C404FF6FF452C400D884FF6FF7606EA4F
:1051C00005252C434FF6DF752A408D8906EA051523
:1051D0002A434D8806EA05152A43154DA84202D0F8
:1051E000144DA8421DD14FF67F752A40CD894FF648
:1051F000FF7606EA05152A434FF6BF752A408D88CB
:1052000006EA05152A434FF6FF352B404FF2FF758E
:105210002B400D8A06EA85052B434D8A06EA850553
:105220002B43838004838D688563028470BD0000F6
:1052300000000140000401400A460021018C4FF6A5
:10524000DF7319404FF6FF7303EA02131943018419
:1052500070470A460021018B4FF2FF7319404FF649
:10526000FF7303EA022319430183704770B50024DA
:1052700000220023058C4FF6FF6635400584028C22
:105280008388848B4FF68F752C404FF6FC752C402D
:105290000D882C434FF6FF552A408D894FF6FF7637
:1052A00006EA05252A434D8806EA05252A43154DB9
:1052B000A84202D0144DA8421DD14FF2FF752A40DA
:1052C000CD894FF6FF7606EA05252A434FF6FF35CE
:1052D0002A408D8806EA05252A434EF6FF752B40A5
:1052E0004DF6FF752B400D8A06EA05152B434D8AB6
:1052F00006EA05152B43838084838D68C563028489
:1053000070BD000000000140000401400A46002179
:10531000018C4FF6FF5319404FF6FF7303EA022347
:105320001943018470470A460021818B4FF6F773B9
:10533000194011438183704770B500220023002477
:10534000058C4EF6FF7635400584038C8488828B6D
:1053500048F6FF752A404FF6FF452A400D884FF664
:10536000FF7606EA05252A434DF6FF752B408D8909
:1053700006EA05352B434D8806EA05352B430A4DD1
:10538000A84202D0094DA84208D14BF6FF752C4027
:105390000D8A4FF6FF7606EA85152C4384808283BA
:1053A0008D680564038470BD000001400004014065
:1053B0000A460021018C4DF6FF7319404FF6FF732A
:1053C00003EA02331943018470470A460021818BA6
:1053D0004FF2FF7319404FF6FF7303EA022319439C
:1053E0008183704741627047028B4FF6F3731A4016
:1053F0000283028B0A4302837047028B4FF2FF3312
:105400001A400283028B4FF6FF7303EA01231A430B
:1054100002837047828B4FF6F3731A408283828B2C
:105420000A4382837047828B4FF2FF331A40828394
:10543000828B4FF6FF7303EA01231A43828370477E
:1054400000220288184B98420ED0184B98420BD07D
:10545000B0F1804F08D0164B984205D0154B9842BA
:1054600002D0154B984204D14FF68F731A404B88E7
:105470001A43124B984207D0114B984204D04FF672
:10548000FF431A400B891A4302804B68C3620B88A2
:105490000385054B984202D0044B984201D18B7A88
:1054A000038601238382704700000140000401400D
:1054B0000004004000080040000C004000100040C4
:1054C000001400404FF0FF31416000210180018154
:1054D000418081727047000010B52DED028B40F2C3
:1054E00025513B4800F088FB00286ED0384800F07A
:1054F0003DFCC4B237480068B0F57A7F03DA00207B
:10550000BDEC028B10BD34483449097844547B2CDF
:1055100003D032480078002805DD30480078401C70
:105520002E49087002E000202C4908702B480078B2
:105530000B284AD10020294908702748807A7D2805
:1055400043D100210920FCF77BF82349497A88429E
:105550003BD1002022490870224908702249087076
:105560002249087022490870224908701A4A1179A4
:10557000D07800F08BFC204880ED000A164A917923
:10558000507900F083FC1D4880ED000A124A117A20
:10559000D07900F07BFCB0EE408A194800780228F0
:1055A0000AD1F0EE480A144890ED000A00F0FEFB24
:1055B000144880ED000A07E0074A117AD07900F01C
:1055C00065FC104880ED000A00BF002098E700004D
:1055D000005000400C02002088070020E900002055
:1055E000D0010020D2010020D1010020D3010020F1
:1055F000D5010020160200209C010020A0010020FF
:1056000090010020A40100202DE9F0412DED028B36
:1056100040F22551434800F0EFFA00287FD00026E1
:105620000127404800F0A2FBC5B23F480068B0F532
:105630007A7F04DA0020BDEC028BBDE8F0813B48A4
:105640003B49097845547B2D03D039480078002820
:1056500005DD37480078401C3549087002E000201D
:1056600033490870324800780B2857D10020304960
:1056700008702E48807A7D2850D1002403E02B4802
:10568000005D4640641C092CF9DB2848407AB04292
:1056900000D10027002F41D12648007858B90120B9
:1056A00024490870002024490870244908702449BE
:1056B0000870244908700020234908701B4A11799A
:1056C000D07800F0E3FB214880ED000A174A917979
:1056D000507900F0DBFB1E4880ED000A134A117A76
:1056E000D07900F0D3FBB0EE408A1A480078022847
:1056F0000BD1F0EE480A154890ED000A00F056FB79
:10570000154880ED000A08E009E0084A117AD079CE
:1057100000F0BCFB104880ED000A00BF00BF002075
:1057200089E70000001001400C020020DC07002087
:10573000DD000020D4010020D1010020D001002094
:10574000D2010020D3010020160200209C0100207D
:10575000A001002090010020A401002010B52DED33
:105760000C8B40F225519F4800F046FA00287DD06E
:105770009C48001D04889C480068B0F57A7F03DAD5
:105780000020BDEC0C8B10BD412C15D19748007842
:10579000412811D19648007870B9002095490870C9
:1057A00095490870012092490870002093490870BB
:1057B00093490870934908708C490C704B2C03D1A5
:1057C00001209149087006E0492C01D04A2C02D1F1
:1057D00000208D4908708C48007888B9412C06DB80
:1057E000482C04DCA4F14000884908702FE0082C04
:1057F00002DC86490C702AE000208449087026E00B
:1058000081480078012822D1432C06D1002080490C
:10581000087001207F4908700DE0472C06D1012057
:105820007B49087000207B49087004E0002078491B
:10583000087078490870412C01D0452C04D1A4F19E
:1058400040007249087002E0002070490870582C2E
:1058500008D1714890ED000ADFED700A30EE200AA1
:1058600080ED000A592C0AD16B4800E0B7E090EDBA
:10587000000ADFED6A0A30EE600A80ED000A7B2C38
:1058800002D10120664908707D2C02D102206449B2
:10589000087063480078012808D16249624A12788A
:1058A0008C5461480078401C5F4908705C4800785F
:1058B000022870D15B48C078502803D101205B4991
:1058C000087070E05748407823286CD0564800781C
:1058D000574908703AE054490978554A1278881AAD
:1058E000FAF706FF41EC1D0BB0EE4D1AF0EE6D1A03
:1058F0009FED500B00F0B0FFB0EE40BAF0EE60BA92
:105900004B490978491E474A515CA1F13000FAF72A
:10591000EFFE41EC1C0B53EC1B2BFAF708FE41EC9D
:10592000190B46480068FAF720FF41EC1A0B53ECBC
:10593000192BFAF755FD41EC180BFAF759FF3F49BF
:1059400008603B480078401E3949087038480078A4
:105950000428C0DA334840783038092822D2DFE8FA
:1059600000F0050C131B1C1D1E1F2000334890ED7A
:10597000000A294880ED000A14E0304890ED000A42
:105980002F4880ED000A0DE02C4890ED000A2D48CC
:1059900080ED000A06E016E004E003E002E001E02A
:1059A00000E000BF00BF00201D4908701E490870BC
:1059B0001F4908709FED240A204880ED000A32211B
:1059C0001848FAF7F5FC144890ED000AB5EEC00A45
:1059D000F1EE10FA03D29FED1C0A80ED000A0020C0
:1059E000CFE6000000440040B8020020E1000020A3
:1059F000D1010020D0010020D2010020D3010020DD
:105A0000D4010020D5010020D9010020D8010020B8
:105A1000D6010020D7010020980100200000C842D4
:105A2000DE000020E7070020DF000020DA01002070
:105A3000E00000200000000000002440E4000020FE
:105A4000A8010020AC0100200000000010B52DEDE1
:105A5000028B40F22551444800F0CEF8002877D060
:105A6000414800F083F9C4B240480068B0F57A7F3D
:105A700003DA0020BDEC028B10BD3D483D4909789A
:105A800044547B2C03D03B480078002805DD39487E
:105A90000078401C3749087002E000203549087042
:105AA0003448007807285DD1002032490870324818
:105AB0002F490A6802608A88828089798171807999
:105AC0007D284FD100210520FBF7BAFD2A494979ED
:105AD000884247D10020294908702949087029497E
