:020000040800F2
:100000009061002031030008B12F0008DD240008B2
:10001000AD2F0008B10E0008B35A00080000000020
:10002000000000000000000000000000790200084D
:100030007115000800000000CD020008AD41000865
:100040004B0300084B0300084B0300084B03000858
:100050004B0300084B0300084B0300084B03000848
:100060004B0300084B0300084B0300084B03000838
:100070004B0300084B0300084B0300084B03000828
:100080004B0300084B0300084B0300084B03000818
:10009000E11000084B0300084B0300084B03000865
:1000A0004B0300084B0300084B0300084B030008F8
:1000B000554600086D460008854600084B030008B9
:1000C0004B0300084B0300084B0300084B030008D8
:1000D0004B030008115300088554000875570008A9
:1000E0004B0300084B0300084B030008B54600080B
:1000F000C94B00084B030008CD4600084B0300081D
:100100004B0300084B0300089D4600084B03000802
:100110004B030008E15100084B0300084B030008A3
:100120004B0300084B0300084B0300084B03000877
:100130004B0300084B0300084B0300084B03000867
:100140004B0300084B0300084B0300084B03000857
:100150004B0300084B0300084B0300084B03000847
:100160004B0300084B0300084B0300084B03000837
:100170004B0300084B0300084B0300084B03000827
:100180004B0300084B03000800F002F800F064F88D
:100190000AA090E8000C82448344AAF10107DA45E2
:1001A00001D100F059F8AFF2090EBAE80F0013F0D0
:1001B000010F18BFFB1A43F00103184774D6000063
:1001C00094D600000A444FF0000C10F8013B13F0E5
:1001D000070408BF10F8014B1D1108BF10F8015BA0
:1001E000641E05D010F8016B641E01F8016BF9D193
:1001F00013F0080F1EBF10F8014BAD1C0C1B09D1EA
:100200006D1E58BF01F801CBFAD505E014F8016B5B
:1002100001F8016B6D1EF9D59142D6D370470000ED
:100220000023002400250026103A28BF78C1FBD8FF
:10023000520728BF30C148BF0B607047642900F0E7
:100240000381732900F03E82002070471FB50BF038
:10025000C6FE1FBD10B510BD00F0B0FA1146FFF785
:10026000F5FF07F005FD00F0CEFA03B4FFF7F2FF4B
:1002700003BC07F045FB00002A4B19680868B0E88A
:10028000F04F80F30988BFF36F8F4FF0000080F3C9
:10029000118870470000000006480068006880F37D
:1002A000088862B661B6BFF34F8FBFF36F8F00DF70
:1002B00000BF00BF08ED00E0DFF80C00016841F46A
:1002C00070010160704700BF88ED00E0EFF3098026
:1002D000BFF36F8F134B1A681EF0100F08BF20ED8D
:1002E000108A20E9F04F106008B44FF0500080F3FE
:1002F0001188BFF34F8FBFF36F8F0AF0FDF84FF0F7
:10030000000080F3118808BC19680868B0E8F04F55
:100310001EF0100F08BFB0EC108A80F30988BFF3FD
:100320006F8F7047EC000020EFF3058070470000EE
:100330000948804709480047FEE7FEE7FEE7FEE779
:10034000FEE7FEE7FEE7FEE7FEE7FEE704480549B5
:10035000054A064B70470000BD41000889010008AE
:10036000905B002090610020905D0020905D002057
:10037000704700000FB4044910B503AA029800F0BA
:10038000A5F910BC5DF814FBD40000202DE9F04164
:100390000E460446002020622046E168884730B3BC
:1003A000252805D0D4E901219047206A401CF2E7B6
:1003B000E168204600278847050018D0A5F14100D4
:1003C000192802D820354FF40067324629462046C6
:1003D0002760FFF733FF40B1012804D0F61D26F057
:1003E00007060836D8E7361DD6E72846DAE7206A3A
:1003F000BDE8F08170B50C460546012A05D0287885
:10040000800600D5EA69002302E0012305E05B1CB9
:10041000934202D2E05C0028F9D1A869E618C01A1C
:10042000A861286A184428622846AFF3008004E0D7
:10043000D5E9012114F8010B9047B442F8D32846BE
:10044000AFF3008070BD00002DE9F04106460024A6
:1004500010687529314616A510D0AFF3008000282A
:1004600002DA404213A507E031688A0701D512A5D8
:1004700002E0490704D511A5012401E0AFF3008093
:1004800000210A2206F1240709E0B0FBF2FCB0FBD0
:10049000F2F302FB1C00303078541846491C002847
:1004A000F3D123462A463046BDE8F04100F086B835
:1004B000000000002D0000002B00000020000000C4
:1004C000032A40F2308010F0030C00F0158011F880
:1004D000013BBCF1020F624498BF11F801CB00F858
:1004E000013B38BF11F8013BA2F1040298BF00F8AC
:1004F00001CB38BF00F8013B11F0030300F0F88096
:10050000083AC0F0088051F8043B083A51F804CB8F
:10051000A0E80810F5E7121D5CBF51F8043B40F855
:10052000043BAFF30080D20724BF11F8013B11F860
:1005300001CB48BF11F8012B24BF00F8013B00F8A4
:1005400001CB48BF00F8012B704702F0FF0343EADC
:10055000032242EA024200F002B84FF000020429EE
:10056000C0F0128010F0030C00F0F680CCF1040C07
:10057000BCF1020F18BF00F8012BA8BF20F8022B16
:10058000A1EB0C0100F0E8B85FEAC17C24BF00F8E1
:10059000012B00F8012B48BF00F8012B7047704772
:1005A00070477047704710B500F0FCF8006810BD48
:1005B00010B5044600F0F6F8046010BD2DE9F047D0
:1005C0000D4699469246044600F1240801688806C3
:1005D00004D5E06921F01001216000E00120A8426B
:1005E00001DD471B00E00027A1697A1902EB090031
:1005F000081AA0612078C00602D42046AFF300801C
:10060000002608E0D4E901211AF806009047206A84
:10061000401C761C20624E45F4DB2078C0060AD5CB
:100620002046AFF3008006E0D4E901213020904756
:10063000206A401C2062381EA7F10107F4DC07E0A5
:10064000D4E9012118F805009047206A401C206277
:10065000281EA5F10105F3DC2046AFF300802078C9
:10066000000602D50220BDE8F0870120FBE700006C
:1006700001694A1C02610878704700B58FB0CDE966
:1006800001310021059105497944CDE90310114656
:100690006846FFF77BFE0FB000BD0000E5FFFFFFDF
:1006A00010B5436913B1AFF3008001E0FFF7A2FE7C
:1006B000012010BD127800F124010A7000224A7056
:1006C0000122EDE711684FF0FF32E9E7074B70B503
:1006D0000D467B44FFF7D1FF0446284600F066F83C
:1006E00010B14FF0FF3070BD204670BD3F75000067
:1006F00010B5203AC0F00B80B1E81850203AA0E8BD
:100700001850B1E81850A0E81850BFF4F5AF5FEAF0
:10071000027C24BFB1E81850A0E8185044BF18C9A3
:1007200018C0BDE810405FEA827C24BF51F8043B4A
:1007300040F8043B08BF7047D20728BF31F8023B9E
:1007400048BF11F8012B28BF20F8023B48BF00F832
:10075000012B70474FF0000200B5134694469646B1
:10076000203922BFA0E80C50A0E80C50B1F12001C4
:10077000BFF4F7AF090728BFA0E80C5048BF0CC072
:100780005DF804EB890028BF40F8042B08BF7047D0
:1007900048BF20F8022B11F0804F18BF00F8012B42
:1007A00070470000004870472C5B0020007B00F081
:1007B00080007047004870472C5B00207546FFF7AB
:1007C000F9FFAE4605006946534620F0070085460E
:1007D00018B020B5FFF7BAFDBDE820404FF0000685
:1007E0004FF000074FF000084FF0000B21F0070119
:1007F000AC46ACE8C009ACE8C009ACE8C009ACE85C
:10080000C0098D46704710B50446AFF300802046FE
:10081000BDE81040FFF729BD21B1826842F0010216
:10082000826003E0826822F001028260704700006B
:100830000021084A1168084A1140D0E900231A43F0
:1008400083681A43C3681A431143044AC2F8041365
:100850007047000004230140E030FCFF002001400D
:100860000146C86C80B270470246002013680B40F6
:100870000BB1012000E000207047000030B50246B7
:10088000002000235068104C20400D790C6844EA89
:1008900005242043506090680C4C2040D1E903545B
:1008A0002C438D682C434D7944EA450420439060E5
:1008B000D06A20F470000C7D641EE4B2234340EA49
:1008C0000350D06230BD0000FFFEFFFCFDF7FFC00B
:1008D000F0B504460D4600200021092D11DDE06829
:1008E000A5F10A0606EB4607072606FA07F1884334
:1008F000A5F10A0606EB460603FA06F10843E06096
:100900000CE0206905EB4507072606FA07F1884346
:1009100005EB450603FA06F108432061072A0FDAC2
:10092000606B561E06EB86071F2606FA07F1884302
:10093000561E06EB860605FA06F10843606322E0C0
:100940000D2A0FDA206BD61F06EB86071F2606FA44
:1009500007F18843D61F06EB860605FA06F1084321
:10096000206310E0E06AA2F10D0606EB86071F2661
:1009700006FA07F18843A2F10D0606EB860605FA92
:1009800006F10843E062F0BD816841F0804181607A
:1009900070470000F8B53848D0ED000A9FED371ACF
:1009A0009FED370A10EE810AF3EE0B0A80EE201A53
:1009B000BDEEC10A10EE106A642E00DD64263148D7
:1009C00090ED000ADFED300A20EE200ABDEEC00AED
:1009D00010EE104A002C00DA64422C4890ED000A18
:1009E000DFED290A20EE200ABDEEC00A10EE105AF3
:1009F000002D00DA6D422648007808B9012000E099
:100A00000020234908702348007801281BD1224880
:100A100090ED000ABDEEC00A10EE103A1F4890EDAE
:100A2000000ABDEEC00A10EE102A1D4890ED000A23
:100A3000BDEEC00A10EE101A1AA0FFF79BFC0020B2
:100A40001449087017E01248007850B91948B0F9F5
:100A50000400EAB2E1B23346009017A0FFF78AFC27
:100A600009E01448B0F90430B0F90220B0F90010E0
:100A700015A0FFF77FFCF8BD1800002000007A44A5
:100A800000401C46B45A00200000C842C85A00204A
:100A900044020020A60100208401002080010020E3
:100AA000700100207B4325643A25643A25647D2447
:100AB00000000000480200207B4125643A25643A8A
:100AC00025643A25647D24007B4225643A25643AF6
:100AD00025647D240000000000B58DB001210220B6
:100AE00002F0F0FE0121080202F00CFF02200B9040
:100AF00003208DF8300000208DF833000BA9154835
:100B000001F0E2FA0121080202F00CFF00214FF48B
:100B1000807002F007FF002007900A9009904FF4C0
:100B20000030089007A8FFF783FE002001908DF8A1
:100B300008008DF809000390059001208DF8180039
:100B400001A90548FFF79AFE01210348FFF764FE5B
:100B50000DB000BD000402400020014000B58DB082
:100B60000121022002F0AEFE0121480202F0CAFE7D
:100B700001200B9003208DF8300000208DF8330009
:100B80000BA9154801F0A0FA0121480202F0CAFEA3
:100B900000214FF4007002F0C5FE002007900A907B
:100BA00009904FF40030089007A8FFF741FE00209D
:100BB00001908DF808008DF8090003900590012040
:100BC0008DF8180001A90548FFF758FE01210348D8
:100BD000FFF722FE0DB000BD0004024000210140DD
:100BE0001CB507F025F8019042E10A2101A809F09F
:100BF00055FAA048006840F6B831884204DA9D48AA
:100C00000068401C9B49086001F0FCFA9A4A9B4925
:100C10009B4802F0B1FF9B4800680028E4D19A4845
:100C200090ED001ADFED990A994890ED000A00F066
:100C3000A1FC01F097FF974890ED021AF0EE410AEF
:100C400090ED001AB0EE410A01F014FE00EE100A19
:100C5000B8EEC00A8F4880ED010A8F4890ED021A65
:100C6000F0EE410A90ED001AB0EE410A01F05AFE92
:100C700000EE100AB8EEC00A874880ED010A8748E6
:100C800090ED021AF0EE410A90ED001AB0EE410A22
:100C900001F0A0FE00EE100AB8EEC00A7F4880ED19
:100CA000010A7F4890ED021AF0EE410A90ED001A19
:100CB000B0EE410A01F0E6FE00EE100AB8EEC00AFE
:100CC000774880ED010A44F23C1001F087FF754837
:100CD0000078062828D2DFE800F003284D6384A9B5
:100CE00000206F4C009094ED010ABDEEC00A10EE9A
:100CF000103A6A4C94ED010AB1EE400ABDEEC00A0A
:100D000010EE102A644C94ED010AB1EE400ABDEEDB
:100D1000C00A10EE101A5F4C94ED010ABDEEC00A35
:100D200010EE100A03F002F9A1E000205C4C0090E4
:100D300094ED010ABDEEC00A10EE103A574C94ED46
:100D4000010AB1EE400ABDEEC00A10EE102A524C64
:100D500094ED010ABDEEC00A10EE101A4D4C94ED50
:100D6000010AB1EE400ABDEEC00A10EE100A03F00F
:100D7000DDF87CE04C480068474A009092ED010A9B
:100D8000BDEEC00A10EE101A424A92ED010ABDEE05
:100D9000C00A10EE100A454B5A4203F0C7F866E04D
:100DA00000203F4C009094ED010ABDEEC00A10EE09
:100DB000103A3A4C94ED010ABDEEC00A10EE102A2A
:100DC000354C94ED010ABDEEC00A10EE101A314CFC
:100DD00094ED010ABDEEC00A10EE100A03F0A6F869
:100DE00045E000202E4C009094ED010ABDEEC00AB3
:100DF00010EE103A294C94ED010AB1EE400ABDEE16
:100E0000C00A10EE102A244C94ED010AB1EE400AFB
:100E1000BDEEC00A10EE101A1E4C94ED010ABDEE94
:100E2000C00A10EE100A03F081F820E000201C4CEC
:100E3000009094ED010ABDEEC00A10EE103A174C76
:100E400094ED010ABDEEC00A10EE102A124C94ED8A
:100E5000010ABDEEC00A10EE101A0E4C94ED010A04
:100E6000BDEEC00A10EE100A03F060F800BF00BF2C
:100E7000BBE60000D8010020F4010020F0010020B2
:100E8000EC010020BC010020E8010020000000006F
:100E9000E4010020B45A0020C85A0020DC5A002087
:100EA000F05A0020680100206C01002061BEFFFFA5
:100EB00000BFFEE71CB50121084602F003FD4FF418
:100EC0008070009001208DF8040000208DF806004D
:100ED00003208DF8050001208DF8070069460248BF
:100EE00001F0F2F81CBD0000000002402DE9FE43B5
:100EF00004460D4616461F46DDF828904FF00008C0
:100F000014B10DB106B117B90120BDE8FE83601E12
:100F1000C4B2681EC5B2701EC6B2781E87B2012167
:100F2000082002F0CFFC0121480602F0DBFC032080
:100F3000019002208DF8080000208DF80A0003209F
:100F40008DF8090001208DF80B0001A9614801F01E
:100F5000BBF8092200215F4801F0FEF809220121B7
:100F60005C4801F0F9F800205B4908600846006819
:100F700040F00100086008E008F101001FFA80F865
:100F8000B8F1640F01DD0220BFE75348001D00687F
:100F900000F001000028EFD04F4800684E4908607B
:100FA000084600680860084600680860084600684F
:100FB00040F01000086008460068086008460068B5
:100FC0000860002044491C3108600846006840EA77
:100FD000897008600846006840EA046008600846B6
:100FE000006840EA055008600846006840EA06408C
:100FF000086008460068384308603748006820F0F9
:1010000001003549086009E008F101001FFA80F885
:101010004FF6F070804501DD032076E72E48001D75
:10102000006800F001000028EED12C48006840F074
:1010300001002A49086029481C30006820F001009E
:1010400026491C31086025480C30006840F001003A
:1010500022490C3108602148001D00681F49091D04
:1010600008601E48143000681C49143108600020D4
:101070001A4940310860002118484430016017487F
:101080001C30006840F0010014491C31086013480E
:1010900000680020114908600F481430006840F0D3
:1010A00002000D491431086014208DF80000012061
:1010B0008DF8010003208DF8020001208DF8030057
:1010C000684601F077FF01220221034800F0F2F99F
:1010D00000201AE7000C0240006400400066004057
:1010E00000B52DED028B89B003A805A906AB07AAB0
:1010F000CDE9001008A9002000F088F840F2811125
:101100000898884266D1012034490870002034498B
:1011100008703449087034490870344908703449FB
:101120000870344908709DF80D009DF80C1000EB14
:10113000012000B200EE100AB8EEC00ADFED2E0A60
:1011400080EE201A2D4880ED001A9DF80F009DF8C2
:101150000E1000EB012000B200EE100AB8EEC00A3B
:10116000DFED250A80EE201A254880ED001A9DF853
:1011700011009DF8101000EB012000B200EE100AE3
:10118000B8EEC00ADFED1C0A80EE201AB0EE418AEC
:101190001C48007802280AD1F0EE480A174890ED62
:1011A000000A04F089FC184880ED000A11E09DF85F
:1011B00011009DF8101000EB012000B200EE100AA3
:1011C000B8EEC00ADFED0C0A80EE201A0E4880ED62
:1011D000001A00BF09B0BDEC028B00BD9F010020CA
:1011E0009C0100209E0100209D010020A001002004
:1011F000A1010020E201002000007A4474010020D7
:1012000078010020680100207C010020F0B5DDE9B4
:101210000554324E06EB0016366806F004061670CA
:10122000167836B92D4E06EB00163668760D0E6030
:1012300005E02A4E06EB00163668F6080E60274ECB
:1012400006EB0016366806F002061E70234E06EB0B
:101250000016766806F00F062E70204E06EB00167C
:10126000B66826701D4E06EB0016B668360A667024
:101270001A4E06EB0016B668360CA670174E06EB33
:101280000016B668360EE670144E06EB0016F668C9
:101290002671124E06EB0016F668360A66710F4E7E
:1012A00006EB0016F668360CA6710C4E06EB00161F
:1012B000F668360EE67130B9094E366846F02006FB
:1012C000074F3E6009E0012807D1054E361D3668FC
:1012D00046F02006024F3F1D3E60F0BDB065004065
:1012E0000C640040F8B506460D4600240823002291
:1012F00011463046009500F015F8074601E0601CE5
:1013000084B2384600F094F8072803D040F6FF7006
:101310008442F4DB40F6FF70844201DB0120F8BD1B
:101320000020FCE7F0B505460E46059C3E480068E7
:1013300000F0806008B100210FE03B48006800F039
:10134000006008B1012108E03748006800F08050D3
:1013500008B1022101E0FF20F0BD0027334800EB77
:10136000011007601EB9C5F30A056D0502E025F0FE
:101370006045ED002D4800EB0110006828432B4F1D
:1013800007EB01173860294800EB0110006840EABC
:101390008607264800EB01100760244800EB011087
:1013A000006840EA4207214800EB0110076003F0A3
:1013B0000F031E4800EB0110406820F00F071B4888
:1013C00000EB01104760194800EB0110406818431A
:1013D000164F07EB01177860E0790006A77940EA1D
:1013E0000740677940EA0727207907430F4800EB59
:1013F0000110C760E0780006A77840EA07406778E8
:1014000040EA072027783843084F07EB0117B860F8
:10141000064800EB0110006840F00107034800EBAC
:1014200001100760084697E70864004080650040A7
:101430000146002021B1012913D0022933D121E036
:101440001B4A126802F001021043194A126802F0A6
:1014500002021043164A126802F0806240EA1260EB
:1014600023E0134A126802F001021043104A126886
:1014700002F0020210430E4A126802F0006240EAD3
:10148000526012E00A4A126802F001021043084A50
:10149000126802F002021043054A126802F08052FC
:1014A00040EA926001E0052000BF00BF70470000E5
:1014B000086400401AB143690B43436102E0436989
:1014C0008B434361704700001CB5002405E01848B9
:1014D000005D0DF80400601CC4B2082CF7DB6946FF
:1014E00040F20110FFF7FEFE002407E0104904F16E
:1014F0000800085C0DF80400601CC4B2082CF5DB81
:1015000069464FF48170FFF7EDFE002407E00849BB
:1015100004F11000085C0DF80400601CC4B2082C33
:10152000F5DB694640F20310FFF7DCFE1CBD00004E
:101530009806002010B502460B460020012B08D16A
:10154000002104E0084C645C60404C1CE1B2914214
:10155000F8DB43B9002104E0044C645C60404C1C9F
:10156000E1B29142F8DB10BD02070020B700002075
:101570007047000000B52DED108B89B0B0EE408AA9
:10158000F0EE609AF0EE418AB0EE0C0AB0EE409AAE
:10159000FC48007818B1FB480078012814D1B0EE5F
:1015A000681AF0EE690AB0EE480A02F00DFDF6483E
:1015B00090ED000AB0EE408A90ED010AF0EE409AFC
:1015C00090ED020AF0EE408AEE480078002879D1CA
:1015D00039EE880AED48D0ED000AED4890ED001A8A
:1015E00070EE810A08EEE00AEA4880ED020AB1EEE8
:1015F000690A30EE080AE548D0ED000AE44890EDAB
:10160000001A70EE810A08EEE00AE34880ED020A53
:1016100039EE880ADD48D0ED000ADD4890ED001A69
:1016200070EE810A08EEA00ADC4880ED020AB1EEF5
:10163000690A30EE080AD548D0ED000AD44890ED8A
:10164000001A70EE810A08EEA00AD54880ED020A61
:10165000D048D0ED020AB0EE600AB0EE491AF1EEC1
:10166000490A08F064F9CB4880ED020ACA48D0ED77
:10167000020AB0EE600AB0EE491AF1EE490A08F02B
:1016800056F9C54880ED020AC448D0ED020AB0EE12
:10169000600AB0EE491AF1EE490A08F048F9BF486D
:1016A00080ED020ABE48D0ED020AB0EE600AB0EE4C
:1016B000491AF1EE490A08F03AF9B94880ED020AF0
:1016C00038E3FFE7AF48007801287AD1B548D0ED7C
:1016D000000AB0EE690A00EEA80AAE4880ED020AE0
:1016E000B04890ED000A20EE280A10EE101A0846C5
:1016F0000AF004FC41EC1B0BB6EE000A29EE800A4E
:1017000010EE101A08460AF0F9FBCDE9040118EEB4
:10171000100A0AF0F3FB41EC1C0B9FEDA30B05F044
:1017200083FAB0EE40FAF0EE60FA9FEDA10B53ECB5
:10173000102B51EC1F0B09F0FDFE41EC1D0B09F0C5
:10174000FFFD41EC1E0B53EC1C2B0AF0E1F8CDE938
:1017500002019DED040B53EC102B9DED020B51EC9F
:10176000100B0AF0E1FA53EC1B2BCDE906019DEDBD
:10177000060B51EC100B09F021FE41EC1A0B09F09D
:10178000EBFD85498860874890ED000A20EE280A25
:1017900010EE101A08460AF0B1FB41EC1B0BB6EE36
:1017A000000A29EE800A10EE101A08460AF0A6FB7D
:1017B00041EC1C0B18EE100A0AF0A0FB41EC1D0BCB
:1017C00000E05BE09FED780B05F02EFA8DED040B49
:1017D0009FED770B53EC102B9DED040B51EC100B90
:1017E00009F0A8FE53EC1D2BCDE906019DED060B7B
:1017F00051EC100B0AF08CF841EC1F0B53EC1C2B36
:101800000AF092FA41EC1E0B53EC1B2B09F0D6FDAB
:1018100041EC1A0B09F0A0FD604988605D48D0EDED
:10182000020AB0EE600AB0EE491AF1EE490A08F079
:101830007EF8584880ED020A5748D0ED020AB0EE13
:10184000600AB0EE491AF1EE490A08F070F8524801
:1018500080ED020A5148D0ED020AB0EE600AB0EE07
:10186000491AF1EE490A08F062F84C4880ED020A84
:101870009FED510A4A4880ED020A5BE24148007838
:1018800002287DD19FED4D0AF0EE40DAB0EE68AA55
:101890003F4890ED000AF6EE000A20EE200A10EE16
:1018A000101A08460AF02AFB41EC1B0B1AEE100A2C
:1018B0000AF024FBCDE904019DED040B05F0F4F9D9
:1018C000B0EE40EAF0EE60EA304800680AF016FB3D
:1018D00041EC1F0B53EC1E2B09F02CFE41EC1C0BB2
:1018E00053EC1B2B0AF020FACDE906019DED060B07
:1018F00051EC100B09F030FD0AEE900A9FED301A02
:10190000DFED300AB0EE4A0A08F011F8B0EE40AA56
:10191000B5EEC0AAF1EE10FA20D01D48D0ED000AB5
:10192000B6EE001AB0EE6A0A01EE600A20EE080A6E
:10193000C0EE2A0A1748C0ED020A1548D0ED000A89
:10194000B6EE001AB0EE6A0A01EE200A20EE080A8E
:10195000C0EE2A0A1048C0ED020A05E00D4880EDED
:10196000028A0D4880ED028A9FED170A2AEE000ACE
:1019700010EE101A08460AF0C1FA41EC1E0B25E0E1
:10198000C0E0000068010020A85A00209401002057
:1019900090010020B45A0020C85A0020DC5A0020D0
:1019A000F05A0020980100200000000000000840CC
:1019B000000000000000004000000000D7231F448A
:1019C0000AD7A33E48E1FABEE5D0E23F1AEE100A7C
:1019D0000AF094FA41EC1C0B1FED0B1BB0EE4C0A05
:1019E000F0EE6C0A04F094FAB0EE40BAF0EE60BA91
:1019F0009FEDD20B53EC102B51EC1B0B09F088FF21
:101A0000CDE902011AEE100A0AF078FA41EC1B0B3C
:101A10001FED1B1BB0EE4B0AF0EE6B0A04F078FAD8
:101A2000B0EE40CAF0EE60CA9FEDC60B53EC102B2F
:101A300051EC1C0B09F06CFFCDE900019DED020B90
:101A400053EC102B9DED000B51EC100B09F0B6FC84
:101A500041EC1F0B53EC1E2B0AF066F99FEDBB0BFC
:101A600053EC102BCDE904019DED040B51EC100B50
:101A700009F0A4FCCDE906019DED060B51EC100B1D
:101A800009F06AFC0DEE100A9FEDB20A7DEE400AE5
:101A90009FEDB10A00EEAD0ABDEEC00AAF4880ED81
:101AA000000AAF48D0ED020AB0EE600AB0EE491A63
:101AB000F1EE490A07F03BFFA94880ED020AA94868
:101AC000D0ED020AB0EE600AB0EE491AF1EE490A12
:101AD00007F02DFFA34880ED020A1FED490AA24836
:101AE00080ED020A1FED4C0AA04880ED020A40F684
:101AF00098024FF448719948006807F02DFF974904
:101B0000086017E19A480078032842D1994890ED7F
:101B1000000A68EE800AB0EE001A80EE810A38EE04
:101B2000400A8F4880ED020A924890ED000A68EE64
:101B3000800AB0EE001A80EE810A30EE080A894869
:101B400080ED020A8648D0ED020AB0EE600AB0EEDF
:101B5000491AF1EE490A07F0EAFE814880ED020ACF
:101B60008048D0ED020AB0EE600AB0EE491AF1EEFC
:101B7000490A07F0DCFE7B4880ED020A1FED720A7D
:101B8000794880ED020A1FED740A784880ED020A58
:101B9000D0E07748007804287DD1764890ED000A9F
:101BA0007548D0ED000A30EE200A60EE280AB0EE4B
:101BB000001A80EE810A38EE400A694880ED020A78
:101BC0006C4890ED000A6C48D0ED000A30EE200A17
:101BD00060EE280AB0EE001A80EE810A38EE400A64
:101BE000604880ED020A634890ED000A6248D0ED3B
:101BF000000A30EE200A60EE280AB0EE001A80EEED
:101C0000810A30EE080A584880ED020A594890EDE2
:101C1000000A5948D0ED000A30EE200A60EE280A8A
:101C2000B0EE001A80EE810A30EE080A4F4880EDCF
:101C3000020A4B48D0ED020AB0EE600AB0EE491A33
:101C4000F1EE490A07F073FE454880ED020A454867
:101C5000D0ED020AB0EE600AB0EE491AF1EE490A80
:101C600007F065FE3F4880ED020A3F48D0ED020ACA
:101C7000B0EE600AB0EE491AF1EE490A07F057FEDD
:101C8000394880ED020A3948D0ED020AB0EE600A08
:101C9000B0EE491A00E007E0F1EE490A07F047FE0E
:101CA000324880ED020A45E031480078052841D1EC
:101CB000304890ED000A68EE800AB0EE001A80EE1F
:101CC000810A38EE400A264880ED020A294890ED44
:101CD000000A68EE800AB0EE001A80EE810A30EE4B
:101CE000080A204880ED020A1D48D0ED020AB0EE35
:101CF000600AB0EE491AF1EE490A07F018FE1848DA
:101D000080ED020A1748D0ED020AB0EE600AB0EE8C
:101D1000491AF1EE490A07F00AFE124880ED020A5C
:101D20001FEDDB0A104880ED020A1FEDDD0A0F48A7
:101D300080ED020A09B0BDEC108B00BD0000000070
:101D4000D34DF43F000000809318E4BF0000000072
:101D5000022BF93F1058C93F0080BB446C010020A2
:101D6000B45A0020C85A0020DC5A0020F05A002043
:101D70006801002090010020940100201CB5012181
:101D8000082001F09FFD0820009000208DF804003D
:101D900003208DF8050001208DF8070069460248F0
:101DA00000F092F91CBD0000000C024000B589B0A3
:101DB0000121084601F096FD0121032001F082FD7A
:101DC0004FF40040019003208DF8090002208DF8A7
:101DD000080001208DF80A008DF80B0001A92B489E
:101DE00000F072F90820019003208DF8090002200C
:101DF0008DF8080001208DF80A008DF80B0001A96C
:101E0000234800F061F901220F21204800F0A4F9D5
:101E1000012203211E4800F09FF906A803F0D6F91D
:101E20000020ADF818004FF6FF7007900020ADF8C5
:101E30002000ADF81A0006A94FF0804003F084F9A5
:101E400000231A4603214FF0804002F050FF03A800
:101E500002F0C2FF0020ADF8140003A94FF080404B
:101E600002F083FF0121880702F020FF01221146C2
:101E7000900702F0BAFF00214FF0804003F036F9DE
:101E80000121880702F018FF09B000BD00000240E0
:101E90000004024000B589B00121022001F022FDBA
:101EA0000121022001F00EFD3020019003208DF869
:101EB000090002208DF8080001208DF80A008DF835
:101EC0000B0001A9204800F0FFF8022204211E485F
:101ED00000F042F9022205211B4800F03DF906A856
:101EE00003F074F90020ADF818004FF6FF7007906A
:101EF0000020ADF82000ADF81A0006A9134803F041
:101F000023F900231A460321104802F0F0FE03A82B
:101F100002F062FF0020ADF8140003A90B4802F0A4
:101F200024FF0121094802F0C1FE012211460748A1
:101F300002F05BFF0021054803F0D8F801210348B7
:101F400002F0BAFE09B000BD0004024000040040E7
:101F500000B589B00121042001F0C4FC0121022058
:101F600001F0B0FCC020019003208DF80900022090
:101F70008DF8080001208DF80A008DF80B0001A9EA
:101F8000204800F0A1F8022206211E4800F0E4F8E3
:101F9000022207211B4800F0DFF806A803F016F91B
:101FA0000020ADF818004FF6FF7007900020ADF844
:101FB0002000ADF81A0006A9134803F0C5F8002365
:101FC0001A460321104802F092FE03A802F004FF13
:101FD0000020ADF8140003A90B4802F0C6FE012151
:101FE000094802F063FE01221146074802F0FDFE97
:101FF0000021054803F07AF80121034802F05CFE55
:1020000009B000BD000402400008004000B589B0DE
:102010000121082001F066FC0121084601F052FC74
:1020200002220021264800F097F8022201212448CC
:1020300000F092F80320019002208DF809008DF83D
:10204000080001208DF80A008DF80B0001A91C483A
:1020500000F03AF806A803F0B9F80020ADF818002F
:102060004FF6FF7007900020ADF82000ADF81A0081
:1020700006A9144803F068F800231A460321114802
:1020800002F035FE03A802F0A7FE0020ADF8140010
:1020900003A90C4802F069FE01210A4802F006FE7D
:1020A00001221146074802F0A0FE0021054803F076
:1020B0001DF80121034802F0FFFD09B000BD00003A
:1020C00000000240000C0040F0B50A460021002349
:1020D000002400BF3DE0012505FA01F3156805EA7B
:1020E00003049C4234D105684F000326BE40B5432B
:1020F000056015794E00B5400668354305601579D1
:10210000012D02D01579022D16D185684F000326C6
:10211000BE40B543856055794E00B540866835436D
:102120008560456801268E40B543456045689679CF
:102130008E40B6B235434560C5684F000326BE40A9
:10214000B543C560D5794E00B540C6683543C56016
:10215000491C1029BFD3F0BDF0B5002300244D0762
:10216000ED0E02FA05F3CE1000F1200555F82650C9
:102170004E07F70E0F26BE40B543CF1000F12006E4
:1021800046F82750CE1000F1200555F8265045EAB4
:102190000304CE1000F1200545F82640F0BD018370
:1021A0007047000010B50446072301222146084865
:1021B000FEF78EFB0648FEF7E7FB00BF022104484E
:1021C000FEF752FB0028F9D00148FEF749FB10BD8D
:1021D0000020014010B5044607230122214608488B
:1021E000FEF776FB0648FEF7CFFB00BF022104484E
:1021F000FEF73AFB0028F9D00148FEF731FB10BD8D
:102200000021014010B52DED048B022001F024FCCB
:1022100075490860032001F01FFC734948600420E1
:1022200001F01AFC70498860052001F015FC6E4928
:10223000C8606E48007806281AD2DFE800F0031A5A
:10224000374C6178684890ED000AB8EEC08A90ED8E
:10225000010AF8EEC08A8068404200EE100AB8EE2B
:10226000C09A6148C068404200EE100AF8EEC09A79
:1022700072E05D480068404200EE100AB8EEC08A85
:1022800059484068404200EE100AF8EEC08A5648AD
:102290008068404200EE100AB8EEC09A5248C0680A
:1022A000404200EE100AF8EEC09A55E04E4890ED1C
:1022B000000AB8EEC08A4068404200EE100AF8EE0C
:1022C000C08A494890ED020AB8EEC09A90ED030A20
:1022D000F8EEC09A40E0444890ED000AB8EEC08A9B
:1022E0004068404200EE100AF8EEC08A3E4890ED89
:1022F000020AB8EEC09A90ED030AF8EEC09A2BE0FD
:10230000394890ED000AB8EEC08A90ED010AF8EE67
:10231000C08A8068404200EE100AB8EEC09A324887
:10232000C068404200EE100AF8EEC09A14E02E4851
:1023300090ED000AB8EEC08A4068404200EE100AF4
:10234000F8EEC08A284890ED020AB8EEC09A90EDE7
:10235000030AF8EEC09A00BF00BF9FED250A28EEE1
:10236000000A2448D0ED000A20EE200A2248D0EDD1
:10237000000A80EE201A214880ED001A9FED1C0A09
:1023800028EE800A1B48D0ED000A20EE200A1A48E9
:10239000D0ED000A80EE201A194880ED001A9FED5A
:1023A000140A29EE000A1348D0ED000A20EE200A94
:1023B0001148D0ED000A80EE201A124880ED001A74
:1023C0009FED0B0A29EE800A0A48D0ED000A20EEA4
:1023D000200A0948D0ED000A80EE201A0A4880ED54
:1023E000001ABDEC048B10BD045B002068010020C6
:1023F0000000C8428C01002088010020B45A00204F
:10240000C85A0020DC5A0020F05A00202DE9F04183
:1024100007460C460025002608E03846FFF7C2FEB6
:102420000544052005F098FB701CC6B2A642F4DBFB
:10243000B5FBF4F080B2BDE8F081000010B52DEDE1
:102440000E8B0820FFF7C6FE044609F011FA41EC96
:102450001E0B9FED180B53EC102B09F059FA41ECB1
:102460001D0B9FED160B53EC102B09F051FA41ECAC
:102470001C0B9FED140B53EC102B09F049FA41ECA7
:102480001B0B9FED120B53EC102B09F053F841EC92
:102490001A0B9FED100B53EC102B09F04BF841EC8D
:1024A000190B08F059FF08EE100AB0EE480ABDEC0F
:1024B0000E8B10BD6666666666660A400000000008
:1024C000000026400000008014AEEF3F0000000036
:1024D0000000F03F000000000000B04000BFFEE739
:1024E00010B500200E4908600E48006820F4400036
:1024F0000C4908600846006840F48000086000202D
:102500000949C1F8AC02012005F046FB012004494D
:10251000086005F041FB00200349C1F8A80210BD86
:10252000A882404200040240008040421CB50121C4
:10253000022001F0C7F94FF44060009001208DF8AF
:10254000040000208DF8060003208DF8050001200E
:102550008DF8070069460548FFF7B6FD01200449DC
:1025600008600449C1F8AC021CBD00000004024030
:10257000A88240420080404210B500200E49086009
:102580000E48006820F440000C49086008460068C6
:1025900040F48000086001200949C1F8AC0205F050
:1025A000FBFA01200449086005F0F6FA002004490E
:1025B000C1F8A80210BD0000A882404200040240F9
:1025C0000080404270B5054600241748006820F49A
:1025D000400015490860084600680860002619E0B8
:1025E000002012490860012005F0D6FA01201049A8
:1025F000C1F8A8026006040E0C487C38006810B1CF
:1026000044F0010401E024F00104012005F0C4FAC3
:10261000701CC6B2082EE3DB15B9FFF761FF01E0BD
:10262000FFF7AAFF204670BD00040240A882404286
:102630000080404270B504460D46002600F01AF8AE
:10264000204600F0CBF800F06BF8284600F0C6F802
:1026500000F066F800F00EF844F0010000F0BEF85B
:1026600000F05EF80120FFF7ADFF064600F034F8F9
:10267000304670BD10B51548006820F4400013497D
:1026800008600846006840F4800008600120104996
:1026900008601048D0F82C0200B910BD01200C4988
:1026A000091F086005F078FA00200A49C1F8AC0259
:1026B00007488038006800B1EFE7012005F06CFAA8
:1026C00000200349091F086000BFE6E7000402403C
:1026D000AC8240420080404210B50E48006820F4B1
:1026E00040000C4908600846006840F4800008601B
:1026F0000020094908600949C1F8AC02012005F031
:102700004BFA0120044908600449C1F8AC0205F005
:1027100043FA10BD00040240A882404200804042BB
:1027200010B500241448006820F4400012490860E5
:1027300008460068086001201049086005F02CFA7E
:1027400001200F49C1F8A80205F026FA0AE0601C32
:10275000C4B2322C03DDFFF7BFFF002010BD012003
:1027600005F01AFA0548803800680028EFD10349BF
:10277000091F08600120F1E700040240AC824042DA
:10278000008040422DE9F0478046894614461D46A8
:10279000089E49464046FFF74DFF0746601CFF2153
:1027A00001FA00F0C4F108012944491EFF220A4140
:1027B000104300F0FF0AC5F1080006FA00F0C6B2A7
:1027C000C4F10700064107EA0A0737433A4649467B
:1027D000404600F035F80120BDE8F08770B50446AA
:1027E0001448006820F44000124908600846006858
:1027F00040F48000086000200F490860002516E0C2
:10280000E0090D49091D08606006040E012005F06D
:10281000C3F901200949C1F8A80205F0BDF900205B
:1028200005490860012005F0B7F9681CC5B2082DFC
:10283000E6DB70BD00040240A882404200804042B6
:1028400070B504460D461646FFF714FF2046FFF705
:10285000C5FFFFF765FF2846FFF7C0FFFFF760FFE2
:102860003046FFF7BBFFFFF75BFFFFF735FF0120A7
:1028700070BD000030EEC01A234880ED001A90EDC4
:10288000001A2248D0ED001A31EE611A2048D0ED2E
:10289000001A21EE211A1F48D0ED001A1A4890EDB7
:1028A000002A01EE821A1C48D0ED001A31EE211ADE
:1028B00080ED001A90ED001ADFED181AB4EEE11A5F
:1028C000F1EE10FA03DD9FED151A80ED001A1248A3
:1028D00090ED001ADFED121AB4EEE11AF1EE10FAE3
:1028E00003D29FED0F1A80ED001A074890ED001AF1
:1028F000064880ED001A084890ED001ABDEEC11A96
:1029000011EE100A70470000F801002000020020BC
:102910008001002084010020FC0100200078824614
:10292000007882C630EEC01A234880ED001A90ED80
:10293000001A2248D0ED001A31EE611A2048D0ED7D
:10294000001A21EE211A1F48D0ED001A1A4890ED06
:10295000002A01EE821A1C48D0ED001A31EE211A2D
:1029600080ED001A90ED001ADFED181AB4EEE11AAE
:10297000F1EE10FA03DD9FED151A80ED001A1248F2
:1029800090ED001ADFED121AB4EEE11AF1EE10FA32
:1029900003D29FED0F1A80ED001A074890ED001A40
:1029A000064880ED001A084890ED001ABDEEC11AE5
:1029B00011EE100A70470000040200200C020020F3
:1029C0008001002084010020080200200078824657
:1029D000007882C630EEC01A234880ED001A90EDD0
:1029E000001A2248D0ED001A31EE611A2048D0EDCD
:1029F000001A21EE211A1F48D0ED001A1A4890ED56
:102A0000002A01EE821A1C48D0ED001A31EE211A7C
:102A100080ED001A90ED001ADFED181AB4EEE11AFD
:102A2000F1EE10FA03DD9FED151A80ED001A124841
:102A300090ED001ADFED121AB4EEE11AF1EE10FA81
:102A400003D29FED0F1A80ED001A074890ED001A8F
:102A5000064880ED001A084890ED001ABDEEC11A34
:102A600011EE100A7047000010020020180200202A
:102A7000800100208401002014020020007882469A
:102A8000007882C630EEC01A234880ED001A90ED1F
:102A9000001A2248D0ED001A31EE611A2048D0ED1C
:102AA000001A21EE211A1F48D0ED001A1A4890EDA5
:102AB000002A01EE821A1C48D0ED001A31EE211ACC
:102AC00080ED001A90ED001ADFED181AB4EEE11A4D
:102AD000F1EE10FA03DD9FED151A80ED001A124891
:102AE00090ED001ADFED121AB4EEE11AF1EE10FAD1
:102AF00003D29FED0F1A80ED001A074890ED001ADF
:102B0000064880ED001A084890ED001ABDEEC11A83
:102B100011EE100A704700001C0200202402002061
:102B200080010020840100202002002000788246DD
:102B3000007882C61CB50121102000F0C3FE0120E0
:102B4000009000208DF8040003208DF8050001207E
:102B50008DF8070069460248FFF7B6FA1CBD000071
:102B60000010024010B5322004F0CCFE0446022CC6
:102B70000BD1064806490A680260898881800548A9
:102B800005490A6802608988818010BD5C020020C6
:102B900062020020680200206E0200201CB50121A4
:102BA000084600F08FFE4FF48050009001208DF811
:102BB000040000208DF8060003208DF80500012098
:102BC0008DF8070069460448FFF77EFA4FF48051FC
:102BD0000148FFF7E4FA1CBD0000024000B5264999
:102BE000D1ED010AB0EE600A00EE900AB8EEE01AEC
:102BF000414200EE901AF8EEE00A06F098FE1E49F7
:102C000081ED010A1D49D1ED010AB0EE600A00EE26
:102C1000900AB8EEE01A414200EE901AF8EEE00A8F
:102C200006F085FE154981ED010A1549D1ED010A2D
:102C3000B0EE600A00EE900AB8EEE01A414200EEF3
:102C4000901AF8EEE00A06F072FE0D4981ED010AD5
:102C50000C49D1ED010AB0EE600A00EE900AB8EE20
:102C6000E01A414200EE901AF8EEE00A06F05FFE2C
:102C7000044981ED010A00BDB45A0020C85A002061
:102C8000DC5A0020F05A002070B504460025BC2C08
:102C900001DB012510E0622C01DB02250CE02A2C6F
:102CA00001DB032508E0142C01DB042504E00A2CD9
:102CB00001DB052500E006252A461A21D020FFF772
:102CC000BFFD70BD70B50446B4F57A7F01DD4FF4E9
:102CD0007A74042C00DA04244FF47A7090FBF4F038
:102CE000401EC5B22A461921D020FFF7A9FD05468E
:102CF000264604EBD671C1F34F00FFF7C5FF70BD48
:102D000010B580226B21D020FFF79AFDC82004F077
:102D100023FF00226B21D020FFF792FD012000F05D
:102D20003DF8002000F030F83220FFF7CBFF002202
:102D30003821D020FFF784FD00226A21D020FFF740
:102D40007FFD00222321D020FFF77AFD802237214A
:102D5000D020FFF775FD7521D020FFF76BFC0446EE
:102D6000682C0DD101226B21D020FFF769FD0022D4
:102D70006C21D020FFF764FD3220FFF7A3FF01E0B4
:102D8000012010BD0020FCE738B5044602230422D0
:102D90001C21D0200094FFF7F5FC38BD38B504465F
:102DA000022304221B21D0200094FFF7EBFC38BD46
:102DB00008B504F03DFF00901DE00A21684607F0C9
:102DC0006DF90D480068B0F57A7F10DA0A4800689E
:102DD000401C09490860094809490A680260898855
:102DE0008180084808490A6802608988818000F06B
:102DF0006BF800F00BF8E0E7580200205C020020BE
:102E000048020020680200204E02002010B53C213C
:102E1000D020FFF70FFC04463B21D020FFF70AFC2F
:102E200004EB002000B2244908803E21D020FFF7A7
:102E300001FC04463D21D020FFF7FCFB04EB002001
:102E400000B21D4948804021D020FFF7F3FB044623
:102E50003F21D020FFF7EEFB04EB002000B2164923
:102E6000888016480068B0F57A7F23DB0846008822
:102E7000134908801048408848800F48808888801F
:102E8000084600880F490988401A00B20A4908809C
:102E90000B4840880B494988401A00B206494880CF
:102EA0000748808807498988401A00F5804000B2A9
:102EB0000149888010BD00004E0200205802002009
:102EC0006E0200206802002010B54421D020FFF7D8
:102ED000B1FB04464321D020FFF7ACFB04EB0020FC
:102EE00000B22C4908804621D020FFF7A3FB0446FE
:102EF0004521D020FFF79EFB04EB002000B22549BE
:102F000048804821D020FFF795FB04464721D02078
:102F1000FFF790FB04EB002000B21E4988801E489A
:102F20000068B0F57A7F05DA01201C4908601C4969
:102F300008702DE018480068B0F57A7F02D10020B3
:102F4000174908704FF496701449086011480088BA
:102F5000144908800F48408848800E48808888803F
:102F60000846008810490988401A00B209490880BB
:102F70000C4840880C494988401A00B205494880ED
:102F80000848808808498988401A00B20149888029
:102F900010BD000048020020580200203800002028
:102FA00060010020620200205C02002000BFFEE7FA
:102FB0007047000070B5002100230F22C4781CB3B5
:102FC000174C246804F4E064C4F5E064C4F30721FA
:102FD000C1F10404E3B20A4144789C40E1B2847830
:102FE000144021430C07210E0E4C057861550478DE
:102FF00004F01F050124AC4005786D11AD0005F10A
:10300000E025C5F8004109E0047804F01F0501241B
:10301000AC40054D0678761145F8264070BD00009D
:103020000CED00E000E400E080E100E00249014333
:10303000024A1160704700000000FA050CED00E044
:1030400030B500240CE0002506E00020074901EB24
:10305000C5010855681CC5B2802DF6DB601CC4B2E2
:10306000082CF0DB00F0D2F830BD00008C0200200C
:10307000F0B5144600267F2801DC3F2900DDF0BDB5
:103080000B46CF1701EB5777FF10C7F10707FAB2CE
:10309000CF1701EB5777FF10A1EBC707FDB2C5F1C2
:1030A00007070123BB40DEB24CB10A4B03EBC00360
:1030B0009B5C3343074F07EBC007BB5408E0054B4D
:1030C00003EBC0039B5CB343024F07EBC007BB5449
:1030D00000BFD4E78C0200201CB50121082000F0BD
:1030E000F1FB4FF4F040009001208DF80400002027
:1030F0008DF806008DF805008DF8070069464048F8
:10310000FEF7E2FF0121080700F0ECFB012000F0D0
:10311000D3FB002000F08AFC002000F0CDFB002053
:1031200038490860642004F017FD01203649C1F8D1
:10313000B0020021AE2000F04FF90021D52000F0B0
:103140004BF90021502000F047F90021A82000F0A1
:1031500043F900213F2000F03FF90021D32000F087
:103160003BF90021084600F037F90021402000F02B
:1031700033F900218D2000F02FF90021142000F0F8
:103180002BF90021202000F027F90021022000F077
:1031900023F90021A12000F01FF90021C02000F038
:1031A0001BF90021DA2000F017F90021122000F0AD
:1031B00013F90021812000F00FF90021EF2000F029
:1031C0000BF90021D92000F007F90021F12000F0CF
:1031D00003F90021DB2000F0FFF80021302000F08F
:1031E000FBF80021A42000F0F7F80021A62000F051
:1031F000F3F80021AF2000F0EFF8FFF721FF1CBD2E
:10320000000C0240B08241420080414230B50024AF
:103210001CE004F1B001C8B2002100F0DDF800218B
:10322000084600F0D9F80021102000F0D5F800255C
:1032300008E0084901EBC501085D012100F0CCF868
:10324000681CC5B2802DF4DB601CC4B2082CE0DB26
:1032500030BD00008C0200202DE9F04F80460C4666
:1032600015461E46A346A5F12000C5B200273EE044
:103270000C2E07D105EB45001F4901EB800010F82B
:10328000079004E01D4800EB051010F807904FF080
:10329000000A26E009F0800028B121464046099A3C
:1032A000FFF7E6FE09E0099808B9012000E00020D8
:1032B000024621464046FFF7DBFE4FEA49604FEAEF
:1032C0001069601CC4B2A4EB0B00B04205D15C468F
:1032D00008F1010000F0FF0806E00AF1010000F02B
:1032E000FF0ABAF1080FD5DB00BF781CC7B2B7429E
:1032F000BEDBBDE8F08F0000E2C0000856C5000844
:103300002DE9FF4F81B0074691461E460E9D4FF0B6
:10331000000A002439E0301B401EC1B20A2004F02C
:10332000C3FCB9FBF0F00A21B0FBF1F201FB12087B
:10333000BAF1000F16D1701EA04213DDB8F1000FD4
:103340000ED10120AB4605EBDB71491001FB047186
:103350000090C8B22B4620220299FFF77DFF12E0B1
:103360004FF0010A0120AB4605EBDB71491001FB70
:1033700004710090C8B208F13001CAB22B4602991C
:10338000FFF76AFF00BF601CC4B2B442C3DB05B0E4
:10339000BDE8F08F78B505460E46144618E07A2D44
:1033A00003DD002506F11000C6B23A2E04DD002030
:1033B00005460646FFF744FE0120009022780C23C4
:1033C00031462846FFF748FF05F10800C5B2641CE6
:1033D00020780028E3D178BD10B50A461AB1012340
:1033E000124C236002E00023104C2360002116E001
:1033F00000230E4C0C34236000F080031BB101232A
:10340000241F236003E00023084C083423600123B9
:10341000064C0C3423604306180E4B1CD9B2082905
:10342000E6DB0123014C236010BD0000AC82414269
:1034300001460148405C70478C060020002004E0F3
:103440000021034A1154411CC8B20928F8DB704717
:103450008C06002038B504460120009000201E494B
:103460004870012000902EE0BDF80000204018B107
:1034700001201A49086002E0002018490860012074
:10348000164910390860052004F086FB0020144915
:10349000C1F8A002052004F07FFB01201049C1F80B
:1034A000A0020846D0F83C0230B10B484078BDF885
:1034B0000010084308494870BDF800004FF6FF713E
:1034C00001EA40000090BDF80000FF28CCDD10208C
:1034D00004F062FB38BD00008C060020B0024242BE
:1034E0000000424210B5FFF7A9FF00F02FF90F4886
:1034F000C0780E49097940EA01200D49088000246E
:103500000FE00C4810F81400401E012101FA00F0F1
:1035100007490988084010B9601CC0B210BD601C82
:10352000C4B2102CEDDB0020F8E700008C06002070
:10353000400000204400002010B50020134908601E
:10354000102004F029FB0120FFF784FF4320FFF740
:1035500081FF0020FFF77EFF0120FFF77BFF0020A7
:10356000FFF778FF0020FFF775FF0020FFF772FFDD
:103570000020FFF76FFF0020FFF76CFF01200449D8
:10358000C1F8A802102004F007FB10BDA8024242B7
:103590000000424210B5002013490860102004F0DA
:1035A000FBFA0120FFF756FF4320FFF753FF0020EF
:1035B000FFF750FF0020FFF74DFF5A20FFF74AFFAB
:1035C0005A20FFF747FF5A20FFF744FF5A20FFF722
:1035D00041FF5A20FFF73EFF01200449C1F8A8022D
:1035E000102004F0D9FA10BDA80242420000424265
:1035F0001CB50121102000F065F94FF40040009047
:1036000000208DF8040003208DF8050002208DF8BD
:10361000070069460B48FEF757FD4FF4A85000908D
:1036200001208DF8040000208DF8060002208DF89E
:10363000050001208DF8070069460248FEF744FDA9
:103640001CBD00000010024010B5FFF74BFF00EE5C
:10365000100AB8EE400A2F4880ED000A0720FFF755
:10366000E7FE00EE100AB8EE400A2B4880ED000A93
:103670000820FFF7DDFE00EE100AB8EE400A2748EA
:1036800080ED000A0520FFF7D3FE00EE100AB8EE29
:10369000400A234880ED000A0620FFF7C9FE00EE2D
:1036A000100AB8EE400A1F4880ED000A194890ED54
:1036B000000AF1EE000AB4EE600AF1EE10FA05D14C
:1036C0001948007810B901201849086017480068A7
:1036D000F8B1124890ED000ADFED150AB4EEE00AE9
:1036E000F1EE10FA15D21048007890B91148006830
:1036F000B0F57A7F0DDB01200B49087000200E49E0
:1037000008700E4908700E4908700E4908700E497D
:10371000087010BDB8010020A8010020AC010020F5
:10372000B0010020B40100209C01002064000020B2
:103730000000EC42580200209E0100209D01002064
:103740009F010020A0010020A10100201CB5002045
:103750000190012000900020254908602549087843
:10376000FFF778FE23494878FFF774FE02200190A6
:1037700036E00120009027E001201D49083908604B
:10378000052004F009FA00201B49C1F8A002052019
:1037900004F002FA01201849C1F8A0020846D0F846
:1037A0003C0250B115489DF80410405CBDF8001073
:1037B000084312499DF804208854BDF800004FF6D4
:1037C000FF7101EA40000090BDF80000FF28D3DD42
:1037D000102004F0E1F99DF80400401CC0B20190F3
:1037E0009DF804000928C4DB0120014908601CBDC4
:1037F000A802424242000020000042428C06002003
:1038000010B500F00BF800F009F800F007F8FFF72A
:1038100093FE00F025F8FFF7BDFE10BD10B50020A7
:103820000D490860102004F0B7F90120FFF712FEDF
:103830004220FFF70FFE0020FFF70CFE0020FFF7ED
:1038400009FE0020FFF706FE01200449C1F8A80286
:10385000102004F0A1F910BDA8024242000042422B
:1038600010B50020124908600120FFF7F3FD442045
:10387000FFF7F0FD0020FFF7EDFD0120FFF7EAFD67
:103880000320FFF7E7FD0020FFF7E4FD0020FFF72E
:10389000E1FD0020FFF7DEFD0020FFF7DBFD01204A
:1038A0000449C1F8A802102004F076F910BD000008
:1038B000A8024242000042420149086270470000EB
:1038C00000000E4229B1064A12680243044B1A60F6
:1038D00004E0034A12688243014B1A6070470000FB
:1038E0003038024029B1064A12680243044B1A607C
:1038F00004E0034A12688243014B1A6070470000DB
:103900004038024029B1064A12680243044B1A604B
:1039100004E0034A12688243014B1A6070470000BA
:103920004438024029B1064A12680243044B1A6027
:1039300004E0034A12688243014B1A60704700009A
:1039400024380240F0B50021002200240225002680
:103950000223324F3F6807F00C0121B1042905D042
:10396000082937D105E02E4F076036E02D4F07605C
:1039700033E02A4F3F1F3F68C7F38056274F3F1F52
:103980003F6807F03F036EB1264FB7FBF3F7DFF850
:103990008CC0ACF1040CDCF800C0CCF3881C07FB35
:1039A0000CF40CE01E4FB7FBF3F7DFF870C0ACF17E
:1039B000040CDCF800C0CCF3881C07FB0CF4174F98
:1039C0003F1F3F68C7F301477F1C7D00B4FBF5F73D
:1039D000076002E0124F076000BF00BF0F4F3F6853
:1039E00007F0F0010909104F7A5C0768D74047607B
:1039F0000A4F3F6807F4E051890A0B4F7A5C476829
:103A0000D7408760054F3F6807F46041490B064F78
:103A10007A5C4768D740C760F0BD000008380240B4
:103A20000024F40000127A00DA0000200021094A84
:103A300011701170012802D0042808D103E001217F
:103A4000044A117004E00521024A117000E000BF31
:103A500000BF7047703802400146022906D0032992
:103A60000DD0042912D005291ED116E04FF0804256
:103A7000526A10B200224FF080435A6216E00C4A9C
:103A8000126810B200220A4B1A600FE0094A12684D
:103A900010B20022074B1A6008E0074A126810B201
:103AA0000022054B1A6001E0002000BF00BF7047F4
:103AB0002404004024080040240C004010B52DEDE3
:103AC000088BB0EE40BAF0EE60BAB0EE418AF0EE8C
:103AD000618AB0EE429AF0EE629AB0EE43AA51ECDF
:103AE0001B0B07F039FC1D490860084680ED018A70
:103AF000C0ED058ABDEEC90A80ED020ABDEEE90AF5
:103B000080ED030A80ED04AAC068800089684843FC
:103B100000EE100AB8EEC00A114880ED000A0F4806
:103B200090ED040ADFED0F0A20EE200A0E4880ED2A
:103B3000000A0A4890ED000A0C4880ED000A074888
:103B400090ED010A0A4880ED000A044890ED050A4C
:103B5000084880ED000ABDEC088B10BD145B002006
:103B600088010020DB0F49408C01002090010020DB
:103B7000940100209801002070B52DED108B82B0CB
:103B800005460E4614469FED380A8DED010A37486A
:103B900090ED000A3648D0ED000A30EE200AF0EE33
:103BA000000A80EE201AB0EE418A90ED000A2F48FC
:103BB000D0ED000A30EE600A2E48D0ED000A80EE0B
:103BC000201AF0EE418A95ED000AF7EE000A68EE41
:103BD000200A9FED251A00EE810A85ED000A94ED7A
:103BE000000A10EE101A084608F088F941EC1F0B85
:103BF000B0EE4F0AF0EE6F0A02F0B2FFB0EE40DA1C
:103C0000F0EE60DA18EE100A08F078F941EC1E0BBD
:103C100053EC1D2B07F07CFE41EC1C0B9FED160BAB
:103C200053EC102B07F074FE41EC1A0B96ED000AD2
:103C300010EE101A084608F061F941EC1B0B53EC2A
:103C40001A2B07F0BBFB41EC190B07F085FB30602A
:103C500094ED000ADFED040A08EEA00A84ED000AE4
:103C600002B0BDEC108B70BD0AD7233CB45A0020C3
:103C7000C85A00209001002000000040E17A843FF3
:103C800010B54FF4AD70554908600A210920FEF7C0
:103C9000BDFB5249096890FBF1F051490870084694
:103CA0000078052801DD052008704D4800780628B9
:103CB0005ED2DFE800F0031221303F4E9FED493A1B
:103CC000F2EE0A2AB3EE0E2ADFED471A9FED471AED
:103CD0009FED470BFFF7F2FE4AE09FED473AF2EE09
:103CE0000A2AB3EE0E2ADFED451A9FED3F1A9FED2B
:103CF000440BFFF7E3FE3BE09FED433AF2EE0A2A66
:103D0000B3EE0E2ADFED381A9FED401A9FED400BFF
:103D1000FFF7D4FE2CE09FED3C3AF2EE0A2AB3EE18
:103D20000E2ADFED311A9FED301A9FED3B0BFFF7A6
:103D3000C5FE1DE09FED343AF2EE0A2AB3EE0E2ADC
:103D4000DFED291A9FED361A9FED360BFFF7B6FE11
:103D50000EE09FED363AF2EE0A2AB3EE0E2ADFEDC0
:103D6000221A9FED211A9FED320BFFF7A7FE00BF2D
:103D700000BF1B48007806282ED2DFE800F0030AB7
:103D800011181F2608202C4908600E202B490860B6
:103D900022E00620284908600A20284908601BE024
:103DA00004202549086007202449086014E0042005
:103DB000214908600720214908600DE008201E49BC
:103DC00008600B201D49086006E004201A490860BD
:103DD00007201A49086000BF00BF10BD6401002021
:103DE000680100209A99993D000000007B14AE3DC7
:103DF000022B8716D9CEB73F8FC2753D643BDF3D9E
:103E00000000000000000000B81E853DBC74133E99
:103E1000000000806ABCC43F000000A0EFA7C63FBE
:103E2000E926313E000000C09DEFC73FC520303D70
:103E3000000000E07A14CE3FCC010020D001002029
:103E40000CB50020019000903448006840F48030A8
:103E50003249086000BF3148006800F4003000902B
:103E60000198401C0190009818B90198B0F5A04F36
:103E7000F1D12A48006800F4003010B10120009010
:103E800001E0002000900098012846D123484030EE
:103E9000006840F0805021494031086020480068A7
:103EA00040F440401E4908601C48083000681B4927
:103EB000083108600846006840F400400860084681
:103EC000006840F4A05008601648091F0860081FE9
:103ED000006840F08070091F086000BF0F4800684C
:103EE00000F000700028F9D040F205700E4908601B
:103EF0000A480830006820F00300084908310860CB
:103F00000846006840F00200086000BF034808301F
:103F1000006800F00C000828F8D10CBD0038024001
:103F20000070004008544007003C024070B5049CFB
:103F3000002807DA44F29F151E4E356005441E4ED8
:103F4000356006E044F29F151B4E35602D1A194E60
:103F50003560002906DA44F29F15184E75630D444A
:103F6000B56305E044F29F15144EB5636D1A756391
:103F7000002A06DA44F29F15114EB56315447563A5
:103F800005E044F29F150E4E7563AD1AB563002B24
:103F900006DA44F29F150A4E35641D44F56305E0C8
:103FA00044F29F15064EF563ED1A3564054D2C60FD
:103FB00070BD0000344401403448014000400140DD
:103FC000000001403818004000B5F0EE403AF0EE35
:103FD000602AB0EE413A9FED680AB0EE402AF5EE55
:103FE000C03AF1EE10FA07DD644890ED000A30EEB9
:103FF000020A80ED000A1AE0F5EEC03AF1EE10FA7E
:1040000007D25E4890ED000A30EE420A80ED000AC9
:104010000DE0F5EEC03AF1EE10FA08D1574890EDF8
:10402000000ADFED570A20EE200A80ED000AF5EEC7
:10403000C02AF1EE10FA07DD504890ED010A30EE8B
:10404000020A80ED010A1AE0F5EEC02AF1EE10FA3C
:1040500007D24A4890ED010A30EE420A80ED010A8B
:104060000DE0F5EEC02AF1EE10FA08D1434890EDCC
:10407000010ADFED430A20EE200A80ED010AB5EEC9
:10408000C03AF1EE10FA07DD3C4890ED020A30EE3E
:10409000020A80ED020A1AE0B5EEC03AF1EE10FA1B
:1040A00007D2364890ED020A30EE420A80ED020A4D
:1040B0000DE0B5EEC03AF1EE10FA08D12F4890EDC0
:1040C000020ADFED2F0A20EE200A80ED020AB0EE90
:1040D000630A03F091FDB0EE404AB0EE630A03F0CC
:1040E0008BFDB1EE400AF0EE404A2448D0ED000AC4
:1040F000B0EE600AB0EE441AF0EE640A05F017FC68
:104100001E4880ED000AB0EE620A03F075FDB0EEC5
:10411000404AB0EE620A03F06FFDB1EE400AF0EEE5
:10412000404A1648D0ED010AB0EE600AB0EE441ADB
:10413000F0EE640A05F0FBFB104880ED010AB0EEDA
:10414000430A03F059FDB0EE404AB0EE430A03F0D3
:1041500053FDB1EE400AF0EE404A0848D0ED020AA5
:10416000B0EE600AB0EE441AF0EE640A05F0DFFB30
:10417000024880ED020A00BD0AD7233CA85A00205D
:104180006666663F042808D14FF0E021096941F0D6
:1041900004014FF0E022116107E04FF0E0210969CE
:1041A00021F004014FF0E0221161704710B506F0D4
:1041B0001FFE012801D006F0A1FA10BD10B5154868
:1041C000006840F47000134908601348006840F02C
:1041D00001001149086000200F49083108600E48AD
:1041E00000680E4908400C4908600D48091D086028
:1041F000081F006820F48020091F0860002006497D
:104200000C310860FFF71CFE4FF000600149803957
:10421000086010BD88ED00E000380240FFFFF6FEA8
:1042200010300024F0B50C46154600210022068C03
:104230004FF6FE773E400684018B028C4FF60C76DB
:1042400031407E1C06EA03162E4331434FF6F576C5
:10425000324044F00106324301830284F0BDF0B5E0
:104260000C461546002100220026078C4FF6EF7CF5
:1042700007EA0C070784018B028C4FF6FF7707EAE9
:10428000041640F6FF4739404FF6FF7707EA033739
:1042900039434FF6FF7707EA052739434FF65F7733
:1042A0003A4046F010073A4301830284F0BDF0B56E
:1042B0000C461546002100220026078C4FF6FF6CA5
:1042C00007EA0C070784818B028C4FF6FF7707EA19
:1042D00004264FF60C7739404FF6FF7707EA0317AD
:1042E0002F4339434FF2FF573A4046F480773A4321
:1042F00081830284F0BDF0B50C46154600210022F2
:104300000026078C4EF6FF7C07EA0C070784818B9A
:10431000028C4FF6FF7707EA043640F6FF47394034
:104320004FF6FF7707EA052739434FF6FF7707EA8D
:104330000337394345F6FF773A4046F480573A430E
:1043400081830284F0BD000030B58BB005460C4679
:1043500001210220FFF7B6FA01214804FFF7D2FA43
:10436000032208211E48FDF7F7FE02208DF81C00ED
:1043700000208DF81E004FF48070069001208DF80B
:104380001F0003208DF81D0006A91548FDF79CFEAF
:104390000995ADF820400020ADF82800ADF82200C6
:1043A00008A9104800F0D0FE6020ADF804000120FC
:1043B000ADF806000020ADF8100001A9094800F092
:1043C0001DFD0821074800F060FD0121054800F0AF
:1043D00061FC0121034800F06FFC0BB030BD000010
:1043E000000402400044014030B58BB005460C4645
:1043F00001210220FFF766FA01218804FFF782FA03
:10440000032209212048FDF7A7FE02208DF81C0099
:1044100000208DF81E004FF40070069001208DF8EA
:104420001F0003208DF81D0006A91748FDF74CFE5C
:104430000995ADF820400020ADF82800ADF8220025
:1044400008A9124800F080FE6020ADF804000120A9
:10445000ADF806000020ADF8100001A90B4800F0EF
:10446000CDFC0821094800F010FD0121074800F0AB
:104470002FFC0121054800F00DFC0121034800F04C
:104480001BFC0BB030BD000000040240004801409E
:1044900030B58BB005460C4601214020FFF722FACB
:1044A00001210220FFF70EFA02208DF828004FF4B8
:1044B0004040099003208DF8290000208DF82A0043
:1044C00001208DF82B0009A92248FDF7FDFD0922E6
:1044D0000E212048FDF740FE09220F211D48FDF75F
:1044E0003BFE0795ADF818400020ADF82000ADF870
:1044F0001A0006A9184800F027FE6020ADF8040055
:104500000120ADF8060000200390ADF81000ADF8D2
:10451000140001A9104800F071FC01A90E4800F038
:10452000BDFC08210C4800F0B0FC08210A4800F04E
:1045300014FD0121084800F0CBFB0121064800F0E2
:10454000BBFB40F2DC50044938310860091F0860A9
:104550000BB030BD000402400018004030B58BB0F5
:1045600005460C4601210846FFF7CCF90121102031
:10457000FFF7A8F9012209213448FDF7EDFD0122DA
:104580000B213248FDF7E8FD01220D212F48FDF7F0
:10459000E3FD01220E212D48FDF7DEFD4FF4D4404E
:1045A000099002208DF8280003208DF829000020B2
:1045B0008DF82A0001208DF82B0009A92348FDF76A
:1045C00083FD0795ADF818400120ADF820000020CC
:1045D000ADF81A0006A91E4800F0B6FD6020ADF83F
:1045E00004000120ADF806000020ADF8100001A97C
:1045F000174800F003FC01A9154800F04FFC01A981
:10460000134800F0B7FC01A9114800F019FD012181
:104610000F4800F05DFB08210D4800F036FC082132
:104620000B4800F09AFC0821094800F000FD082121
:10463000074800F04EFD0121054800F02BFB012149
:10464000034800F039FB0BB030BD00000010024001
:10465000000001404FF08040008A4FF08040008A07
:1046600020F001004FF08041088270470448008824
:104670000348008820F001000149088070470000CD
:1046800010040040044800880348008820F001001E
:104690000149088070470000100800400448008865
:1046A0000348008820F0010001490880704700009D
:1046B000100C0040044800880348008820F00100E6
:1046C00001490880704700001018004010B5CA4822
:1046D0000068B0F5C86F15DDC848007890B9C848C3
:1046E0000068B0F57A7F0DDB0120C4490870002016
:1046F000C4490870C4490870C4490870C4490870A6
:10470000C4490870C448007800F08000002857D1E0
:104710000221C24800F018FB002851D00221BF48F6
:1047200000F0C7FABC48007800F04000C0B3BB48B6
:1047300000F0FEFABA49088008460088B94909889D
:10474000884204DA42F20F70B749086002E00020A4
:10475000B5490860B2480088B2490988401AB24990
:1047600009680844B14908600968B14A1268881AA2
:10477000002801DB014600E04142B1F5FA7F03DD8C
:10478000AB480068A9490860A8480068A8490860C3
:104790000020A14908700021A04800F06DFB0FE047
:1047A000FFE79E4800F0C4FA9E4908809A480078C6
:1047B00040F04000984908700221984800F05CFBE6
:1047C0009C48007800F08000002857D104219348CD
:1047D00000F0BAFA002851D00421904800F069FA9C
:1047E0009448007800F04000C0B38C4800F0A3FA71
:1047F000914908800846008890490988884204DA6F
:1048000042F20F708E49086002E000208C49086077
:104810008948008889490988401A894909680844F3
:10482000754908600968874A1268881A002801DB00
:10483000014600E04142B1F5FA7F03DD814800689E
:104840006D4908606C4800687E490860002079491D
:1048500008700021714800F073FB0FE0FFE76F481C
:1048600000F069FA754908807248007840F040000D
:10487000704908700221694800F062FB72480078B4
:1048800000F08000002857D10821644800F05CFA4D
:10489000002851D00821614800F00BFA6A480078DE
:1048A00000F04000C0B35D4800F048FA6749088056
:1048B0000846008866490988884204DA42F20F7087
:1048C0006449086002E00020624908605F4800888F
:1048D0005F490988401A5F49096808445E490860D1
:1048E00009685E4A1268881A002801DB014600E068
:1048F0004142B1F5FA7F03DD584800685649086027
:10490000554800685549086000204F49087000214B
:10491000424800F07FFB0FE0FFE7404800F00EFA4E
:104920004B4908804848007840F0400046490870EC
:1049300002213A4800F06EFB4948007800F0800000
:10494000002857D11021354800F0FEF9002851D039
:104950001021324800F0ADF94148007800F04000E5
:10496000C0B32E4800F0EDF93E49088008460088A3
:104970003D490988884204DA42F20F703B490860D9
:1049800002E0002039490860364800883649098825
:10499000401A364909680844354908600968354AAB
:1049A0001268881A002801DB014600E04142B1F597
:1049B000FA7F03DD2F4800682D4908602C48006805
:1049C0002C4908600020264908700021134800F097
:1049D00073FB0FE0FFE7114800F0B3F922490880AC
:1049E0001F48007840F040001D49087002210B4824
:1049F00000F062FB10BD0000940000209E0100202A
:104A0000580200209D0100209C0100209F010020F1
:104A1000A0010020A1010020680000200004014046
:104A20006C0000206A000020800000209000002020
:104A3000A00000206E000020720000207000002006
:104A400084000020A40000207400002078000020D2
:104A5000760000208800002098000020A800002098
:104A60007A0000207E0000207C0000208C000020C6
:104A70009C000020AC00002030B589B005460C46F3
:104A800001210220FEF73EFF01210420FEF71AFF5C
:104A90004FF47070079002208DF8200003208DF8ED
:104AA000210000208DF8220002208DF8230007A9A4
:104AB0004348FDF709FB032206214148FDF74CFB63
:104AC000032207213E48FDF747FB032208213C480B
:104AD000FDF742FB032209213948FDF73DFB05950F
:104AE000ADF810400020ADF81800ADF8120004A990
:104AF000344800F029FB0020ADF80000ADF80200BA
:104B00000120ADF804000020ADF806000F20ADF83C
:104B1000080069462B4800F028F90420ADF8000091
:104B20000020ADF802000120ADF804000020ADF82F
:104B30000600ADF808006946224800F016F9082082
:104B4000ADF800000020ADF802000120ADF804002F
:104B50000020ADF80600ADF808006946194800F0DD
:104B600004F90C20ADF800000020ADF8020001208F
:104B7000ADF804000020ADF80600ADF80800694665
:104B8000104800F0F2F82E208DF80C0002208DF86D
:104B90000D008DF80E0001208DF80F0003A8FEF720
:104BA00009FA01221E21074800F01FF901210548DA
:104BB00000F08EF80121034800F07EF809B030BD06
:104BC00000080240000401400348008820F0010072
:104BD00001490880704700001004014030B58BB0D7
:104BE00005460C4601210804FEF78CFE0121102029
:104BF000FEF768FE032205212448FDF7ADFA0322E3
:104C000006212248FDF7A8FA6020069002208DF8C0
:104C10001C0003208DF81D0000208DF81E000120CF
:104C20008DF81F0006A91948FDF74EFA0995ADF851
:104C300020400020ADF82800ADF8220008A9144853
:104C400000F082FA6020ADF804000120ADF8060003
:104C50000020ADF8100001A90D4800F0CFF801A91F
:104C60000B4800F01BF90821094800F00EF9082153
:104C7000074800F072F90121054800F00BF8012106
:104C8000034800F019F80BB030BD000000100240DE
:104C90000040014021B1028842F08002028004E01D
:104CA00002884FF67F731A4002807047CA4302821F
:104CB0007047CA430282704721B1028842F0010264
:104CC000028004E002884FF6FE731A4002807047AB
:104CD00031B1B0F8442042F40042A0F8442005E08D
:104CE000B0F84420C2F30E02A0F844207047F0B59B
:104CF0000C4615461E460021002200230189028B26
:104D0000038C4FF6F877394021434FF6FC473A4081
:104D100040F201173A434FF6DD773B404FF6FF77FD
:104D200007EA06172F433B43018102830384F0BD4A
:104D30000146486B70470146886B70470146C86B57
:104D400070470146086C704730B5024600200023CA
:104D50000024158A05EA0103958905EA010413B1C7
:104D60000CB1012000E0002030BD70B505460C46B6
:104D7000208850B92389A28861882846FFF752FA13
:104D8000E188284600F0B4F925E0208804280AD1FB
:104D90002389A28861882846FFF761FAE1882846BE
:104DA00000F0AFF917E0208808280AD12389A288EB
:104DB00061882846FFF77BFAE188284600F0AEF9C3
:104DC00009E02389A28861882846FFF794FAE188E0
:104DD000284600F0ACF970BD00210180418001211E
:104DE00081800021C180018170471AB183890B4302
:104DF000838102E083898B438381704770B50024EF
:104E000000220023058C4FF6FE7635400584028C87
:104E10008388048B4FF68F752C40B51E2C400D886F
:104E20002C43751E2A408D892A434D882A43104DF4
:104E3000A84202D00F4DA84213D14FF6F7752A4071
:104E4000CD892A434FF6FB752A408D882A434FF6B9
:104E5000FF652B404FF6FF552B400D8A2B434D8AA3
:104E60002B43838004838D684563028470BD0000FA
:104E700000000140000401400A460021018C4FF669
:104E8000FD7319401143018470470A460021018BCC
:104E90004FF6F773194011430183704770B5002432
:104EA00000220023058C4FF6EF7635400584028CF6
:104EB0008388048B48F6FF752C404FF6FF452C4045
:104EC0000D884FF6FF7606EA05252C434FF6DF7571
:104ED0002A408D8906EA05152A434D8806EA0515FC
:104EE0002A43154DA84202D0144DA8421DD14FF6B9
:104EF0007F752A40CD894FF6FF7606EA05152A43CD
:104F00004FF6BF752A408D8806EA05152A434FF6ED
:104F1000FF352B404FF2FF752B400D8A06EA8505C1
:104F20002B434D8A06EA85052B43838004838D68D5
:104F30008563028470BD0000000001400004014050
:104F40000A460021018C4FF6DF7319404FF6FF73BC
:104F500003EA02131943018470470A460021018BBA
:104F60004FF2FF7319404FF6FF7303EA0223194310
:104F70000183704770B5002400220023058C4FF692
:104F8000FF6635400584028C8388848B4FF68F75CD
:104F90002C404FF6FC752C400D882C434FF6FF55E6
:104FA0002A408D894FF6FF7606EA05252A434D886B
:104FB00006EA05252A43154DA84202D0144DA84201
:104FC0001DD14FF2FF752A40CD894FF6FF7606EAD4
:104FD00005252A434FF6FF352A408D8806EA052528
:104FE0002A434EF6FF752B404DF6FF752B400D8A78
:104FF00006EA05152B434D8A06EA05152B438380E7
:1050000084838D68C563028470BD00000000014088
:10501000000401400A460021018C4FF6FF5319405D
:105020004FF6FF7303EA02231943018470470A46CF
:105030000021818B4FF6F77319401143818370472C
:1050400070B5002200230024058C4EF6FF76354013
:105050000584038C8488828B48F6FF752A404FF6BE
:10506000FF452A400D884FF6FF7606EA05252A43BC
:105070004DF6FF752B408D8906EA05352B434D888B
:1050800006EA05352B430A4DA84202D0094DA84235
:1050900008D14BF6FF752C400D8A4FF6FF7606EAD5
:1050A00085152C43848082838D680564038470BDDC
:1050B00000000140000401400A460021018C4DF629
:1050C000FF7319404FF6FF7303EA0233194301845B
:1050D00070470A460021818B4FF2FF7319404FF64B
:1050E000FF7303EA022319438183704741627047CB
:1050F000028B4FF6F3731A400283028B0A4302833A
:105100007047028B4FF2FF331A400283028B4FF637
:10511000FF7303EA01231A4302837047828B4FF621
:10512000F3731A408283828B0A4382837047828B97
:105130004FF2FF331A408283828B4FF6FF7303EAEC
:1051400001231A438283704700220288184B984239
:105150000ED0184B98420BD0B0F1804F08D0164BB0
:10516000984205D0154B984202D0154B984204D175
:105170004FF68F731A404B881A43124B984207D050
:10518000114B984204D04FF6FF431A400B891A4343
:1051900002804B68C3620B880385054B984202D09E
:1051A000044B984201D18B7A038601238382704796
:1051B00000000140000401400004004000080040DD
:1051C000000C004000100040001400404FF0FF3180
:1051D000416000210180018141808172704700009F
:1051E00010B52DED028B40F225513B4800F0A2FB9B
:1051F00000286ED0384800F057FCC4B23748006829
:10520000B0F57A7F03DA0020BDEC028B10BD344884
:105210003449097844547B2C03D032480078002864
:1052200005DD30480078401C2E49087002E000205F
:105230002C4908702B4800780B284AD100202949B6
:1052400008702748807A7D2843D100210920FCF787
:1052500071F92349497A88423BD1002022490870DC
:1052600022490870224908702249087022490870B2
:10527000224908701A4A1179D07800F08DFC204834
:1052800080ED000A164A9179507900F085FC1D489E
:1052900080ED000A124A117AD07900F07DFCB0EE60
:1052A000408A1948007802280AD1F0EE480A1448CA
:1052B00090ED000A00F000FC144880ED000A07E0C1
:1052C000074A117AD07900F067FC104880ED000A97
:1052D00000BF002098E7000000500040D8010020E7
:1052E000C8060020C90000209C0100209E0100206B
:1052F0009D0100209F010020A1010020E20100206B
:105300007401002078010020680100207C01002049
:105310002DE9F0412DED028B40F22551434800F07C
:1053200009FB00287FD000260127404800F0BCFB85
:10533000C5B23F480068B0F57A7F04DA0020BDECC2
:10534000028BBDE8F0813B483B49097845547B2DF1
:1053500003D039480078002805DD37480078401C24
:105360003549087002E0002033490870324800785F
:105370000B2857D10020304908702E48807A7D28AC
:1053800050D1002403E02B48005D4640641C092CEA
:10539000F9DB2848407AB04200D10027002F41D1E4
:1053A0002648007858B90120244908700020244973
:1053B00008702449087024490870244908700020A6
:1053C000234908701B4A1179D07800F0E5FB214889
:1053D00080ED000A174A9179507900F0DDFB1E48F4
:1053E00080ED000A134A117AD07900F0D5FBB0EEB7
:1053F000408A1A48007802280BD1F0EE480A154876
:1054000090ED000A00F058FB154880ED000A08E016
:1054100009E0084A117AD07900F0BEFB104880ED0F
:10542000000A00BF00BF002089E700000010014013
:10543000D80100201C070020BE000020A001002091
:105440009D0100209C0100209E0100209F01002062
:10545000E201002074010020780100206801002092
:105460007C01002000B5002200BF05E00449885CF3
:1054700004F0F6FB501CC2B2182AF7DB00BD000096
:105480009806002010B52DED0C8B40F225519F4859
:1054900000F050FA00287DD09C48001D04889C48EC
:1054A0000068B0F57A7F03DA0020BDEC0C8B10BDEC
:1054B000412C15D197480078412811D196480078A1
:1054C00070B90020954908709549087001209249EB
:1054D0000870002093490870934908709349087038
:1054E0008C490C704B2C03D101209149087006E0C7
:1054F000492C01D04A2C02D100208D4908708C48DB
:10550000007888B9412C06DB482C04DCA4F140006B
:10551000884908702FE0082C02DC86490C702AE0CC
:1055200000208449087026E081480078012822D1B3
:10553000432C06D100208049087001207F49087063
:105540000DE0472C06D101207B49087000207B49E3
:10555000087004E000207849087078490870412CF0
:1055600001D0452C04D1A4F140007249087002E03A
:10557000002070490870582C08D1714890ED000A3D
:10558000DFED700A30EE200A80ED000A592C0AD1B6
:105590006B4800E0B7E090ED000ADFED6A0A30EEFC
:1055A000600A80ED000A7B2C02D101206649087058
:1055B0007D2C02D1022064490870634800780128DC
:1055C00008D16249624A12788C5461480078401CC4
:1055D0005F4908705C480078022870D15B48C07849
:1055E000502803D101205B49087070E0574840788B
:1055F00023286CD056480078574908703AE054493F
:105600000978554A1278881A06F01BF941EC1D0BEF
:10561000B0EE4D1AF0EE6D1A9FED500B00F078FCD5
:10562000B0EE40BAF0EE60BA4B490978491E474ADD
:10563000515CA1F1300006F004F941EC1C0B53EC75
:105640001B2B06F065F941EC190B4648006806F083
:1056500055FC41EC1A0B53EC192B05F0AFFE41EC55
:10566000180B05F079FE3F4908603B480078401E62
:1056700039490870384800780428C0DA334840783F
:105680003038092822D2DFE800F0050C131B1C1D5E
:105690001E1F2000334890ED000A294880ED000AC3
:1056A00014E0304890ED000A2F4880ED000A0DE02C
:1056B0002C4890ED000A2D4880ED000A06E016E027
:1056C00004E003E002E001E000E000BF00BF0020D2
:1056D0001D4908701E4908701F4908709FED240A73
:1056E000204880ED000A32211848FAF736FF1448A6
:1056F00090ED000AB5EEC00AF1EE10FA03D29FED6C
:105700001C0A80ED000A0020CFE6000000440040A3
:1057100058020020C20000209D0100209C010020B2
:105720009E0100209F010020A0010020A101002077
:10573000A5010020A4010020A2010020A301002057
:10574000700100200000C842BF0000202707002091
:10575000C0000020A6010020C100002000000000C1
:1057600000002440C40000208001002084010020AB
:105770000000000010B52DED028B40F2255142488B
:1057800000F0D8F800287CD03F4800F08DF9C4B272
:105790003E480068B0F57A7F03DA0020BDEC028B4A
:1057A00010BD3B483B49097844547B2C03D0394811
:1057B0000078002805DD37480078401C354908701E
:1057C00002E000203349087032480078072858D199
:1057D00000203049087030482D490A6802608A88E4
:1057E00082808979817180797D284AD100210520C4
:1057F000FBF7A0FE28494979884242D10020274979
:1058000008702749087027490870274908702749F8
:10581000087027490870274908701F48B0F901002F
:1058200000EE100AB8EEC00ADFED230A80EE201A5F
:10583000224880ED001A9FED220A224880ED000ADE
:105840001548B0F9030000EE100AB8EEC00ADFED0B
:105850001A0A80EE201AB0EE418A1B48007802280E
:105860000BD1F0EE480A154890ED000A00F024F93B
:10587000164880ED000A03E003E0144880ED008A3A
:1058800000BF00208AE7000000480040D801002047
:10589000B7000020C8000020B00000209C010020BC
:1058A0009E0100209D0100209F010020A0010020FA
:1058B000A1010020E201002000007A4474010020D0
:1058C0000000000078010020680100207C01002019
:1058D00010B500241A2207490748FAF7F1FD00BF66
:1058E00005E00549085D04F0C7F9601CC4B21A2C34
:1058F000F7D310BDE80600200207002000B5002203
:1059000000BF05E00449885C04F0C4F9501CC2B231
:10591000182AF7DB00BD00009806002021B182891B
:1059200042F40052828104E082894DF6FF731A40EE
:105930008281704770B502460024002300250020B4
:1059400040F66A16B14200D100BFC1F3421501F022
:105950001F03012606FA03F3012D02D19689334075
:1059600006E0022D02D1168A334001E0968A3340C8
:105970000C12012606FA04F41688344013B10CB157
:10598000012000E0002070BDF0B503460024002691
:105990000025002040F66A17B94200D100BF184622
:1059A000C1F3421401F01F06012707FA06F5012C86
:1059B00001D10C3004E0022C01D1103000E0143091
:1059C0001AB107682F43076002E00768AF4307601A
:1059D000F0BD00002DE9FF4705460E460024A14614
:1059E00000BFA046B08900B100BF2C8A24F4405407
:1059F000F08804432C82AC8941F20C608443B08867
:105A000031890843718908430443AC81AC8A24F48A
:105A10004074B0890443AC826846FDF793FF204888
:105A2000854202D01F48854202D1DDF80C9001E08A
:105A3000DDF80890A88900F4004040B109EBC900E6
:105A400000EB091031684900B0FBF1F707E009EB02
:105A5000C90000EB091031688900B0FBF1F7642040
:105A6000B7FBF0F004012009642101FB1078A8893C
:105A700000F4004040B1322000EBC800B0FBF1F070
:105A800000F00700044308E0322000EB0810642116
:105A9000B0FBF1F000F00F0004432C81BDE8FF875C
:105AA000001001400014014001468888C0F308003E
:105AB000704700BFFEE7000010B52DED0A8BF0EE39
:105AC000408AB0EE608A9FED300AF0EE409AB5EE63
:105AD000C08AF1EE10FA4FD0F5EEC08AF1EE10FA5E
