:020000040800F2
:10000000685F002055020008112D00089D2400089B
:100010000D2D0008A91000086B5800080000000012
:100020000000000000000000000000009D0100082A
:100030003115000800000000F1010008793F0008B8
:100040006F0200086F0200086F0200086F020008CC
:100050006F0200086F0200086F0200086F020008BC
:100060006F0200086F0200086F0200086F020008AC
:100070006F0200086F0200086F0200086F0200089C
:100080006F0200086F0200086F0200086F0200088C
:10009000D91200086F0200086F0200086F02000802
:1000A0006F0200086F0200086F0200086F0200086C
:1000B0002144000839440008514400086F02000838
:1000C0006F0200086F0200086F0200086F0200084C
:1000D0006F020008D550000845520008315500084D
:1000E0006F0200086F0200086F02000881440008D8
:1000F000914900086F020008994400086F02000847
:100100006F0200086F020008694400086F020008CF
:100110006F020008A94F00086F0200086F02000874
:100120006F0200086F0200086F0200086F020008EB
:100130006F0200086F0200086F0200086F020008DB
:100140006F0200086F0200086F0200086F020008CB
:100150006F0200086F0200086F0200086F020008BB
:100160006F0200086F0200086F0200086F020008AB
:100170006F0200086F0200086F0200086F0200089B
:100180006F0200086F020008DFF80CD000F0E8FBF7
:1001900000480047057D0008685F00202A4B196869
:1001A0000868B0E8F04F80F30988BFF36F8F4FF015
:1001B000000080F3118870470000000006480068C6
:1001C000006880F3088862B661B6BFF34F8FBFF353
:1001D0006F8F00DF00BF00BF08ED00E0DFF80C000C
:1001E000016841F470010160704700BF88ED00E0D4
:1001F000EFF30980BFF36F8F134B1A681EF0100FD7
:1002000008BF20ED108A20E9F04F106008B44FF0CD
:10021000500080F31188BFF34F8FBFF36F8F0AF048
:10022000B5F94FF0000080F3118808BC1968086820
:10023000B0E8F04F1EF0100F08BFB0EC108A80F34A
:100240000988BFF36F8F7047F8000020EFF3058037
:10025000704700000648804706480047FEE7FEE773
:10026000FEE7FEE7FEE7FEE7FEE7FEE7FEE7FEE766
:10027000893F000889010008202A04DB203A00FA9F
:1002800002F1002070479140C2F1200320FA03F3ED
:10029000194390407047202A06DBCB17203A41FAD9
:1002A00002F043EAE07306E041FA02F3D040C2F103
:1002B0002002914008431946704740EA01039B071A
:1002C00003D009E008C9121F08C0042AFAD203E0CB
:1002D00011F8013B00F8013B521EF9D27047D2B22F
:1002E00001E000F8012B491EFBD270470022F6E71F
:1002F00010B513460A4604461946FFF7F0FF20469C
:1003000010BD2DE9FE4F804681EA0300C00F0C4668
:10031000009021F0004123F00045B8EB0200A94114
:1003200005D24046214690461C460B46024623F025
:100330000040104347D0270DC7F30A00C3F30A510A
:100340000290401A019040286BDAC3F3130040F486
:10035000801B0098924620B10023D2EB030A63EB86
:100360000B0B01985946C0F140025046FFF784FF3D
:1003700006460D4650465946019AFFF78CFF10EB92
:1003800008006141002487EA115284EAE7731A43A6
:1003900040D0009A62B3019A012A4FEA075215DC55
:1003A000001B61EB02014FF0004202EA0752CDE967
:1003B0000042001C41F5801132462B4600F01AFA2B
:1003C00003B0BDE8F08F40462146F9E7001B61EB22
:1003D0000201001C41F5801300185B412018A2F5B2
:1003E000001747EB030140EAD570B6196D4111E0E3
:1003F0006D084FEA360645EAC0754FEA0752001B02
:1004000061EB0201001C41F5801149084FEA300000
:100410000019514132462B4603B0BDE8F04F00F0C1
:10042000DAB90098012240000023D0EB020263EB0E
:10043000E073009821464FEAE074B8EB000061EBEE
:100440000401E9E783F000435BE781F0004158E7EE
:100450002DE9FE4F81EA030404F0004421F000413D
:1004600000944FF0000B23F0004350EA01045ED0EB
:1004700052EA03045BD0C3F30A54C1F30A552C4477
:10048000A4F2F3340194A0FB0254C1F3130141F42C
:100490008011C3F3130343F4801301FB024400FBF8
:1004A000034E840A970A44EA815447EA8357A4FB1F
:1004B000076802958D0A05FB07854FEA932C04FB1C
:1004C0000C542705029D4FEA065847EA1637B5EB4C
:1004D00008056EEB070C870E920E47EA811742EA79
:1004E0008312A7FB0201B6EB0B0164EB00042B0D9A
:1004F00043EA0C335E1844EB1C50DA465146E7FBE6
:100500000201C5F313044FEA0B3343EA14534FEAD5
:100510000432019C43EA0603A4F10C040294009CFB
:10052000CDE900B400F066F903B0BDE8F08F00201B
:100530000146F9E72DE9F04D81EA030404F0004B90
:1005400021F0004514464FF0000A23F0004150EA24
:10055000050220D054EA01021DD0C5F30A57024615
:10056000C5F31303C1F31300C1F30A5640F4801519
:1005700043F48013A7EB0608101BD64608F2FD389B
:1005800073EB050002D308F1010801E092185B410A
:10059000B8F1000F03DA00200146BDE8F08D00201D
:1005A0004FF48011064684460EE0171B73EB0507D7
:1005B00005D3121B63EB050306434CEA010C490803
:1005C0004FEA300092185B4150EA0107EDD152EA40
:1005D000030012D082EA040083EA0501084305D033
:1005E000101BAB4106D20122002306E000224FF08F
:1005F000004302E06FF0010253101AEB06004CEBCF
:10060000085110EB0A0041EB0B01BDE8F04D00F082
:10061000E2B80EB5C10F80EAE0700844CA070021B5
:1006200040F233438DE80E000A460B4600F0E2F834
:1006300003B000BD0EB540F2334102910021CDE977
:1006400000110A460B4600F0D5F803B000BD70B5A6
:10065000C1F30A5201F000450024C1F3130140F236
:10066000FF3341F480119A4201DA002070BD40F25C
:1006700033439A42A2F2334203DC524200F064F860
:1006800000E090402C43F1D0404270BD00F00042A9
:1006900030F000400AD0C10D01F56071C0F31600C2
:1006A00042EA0151C2084007114370470020014649
:1006B0007047000030B5041E71F1000404DB4FF0F8
:1006C0000044404264EB0101141E73F1000405DB99
:1006D0001C464FF00043524263EB0403994208BFAB
:1006E000904230BD01F0004330B421F0004150EAA7
:1006F000010206D00A0DA2F56072C1F31301002AAF
:1007000002DC30BC00207047440F44EAC104C10041
:10071000E01830BC00EBC25000F026B830B50B46F4
:10072000014600202022012409E021FA02F59D4221
:1007300005D303FA02F5491B04FA02F52844151EF5
:10074000A2F10102F1DC30BD202A04DB203A21FABB
:1007500002F00021704721FA02F3D040C2F12002DA
:1007600091400843194670470029A8BF7047401CB4
:10077000490008BF20F00100704710B4B0FA80FCB7
:1007800000FA0CF050EA010404BF10BC704749B1F4
:10079000CCF1200421FA04F411FA0CF118BF012164
:1007A00021430843A3EB0C01CB1D4FEA00614FEA44
:1007B000102042BF002010BC704700EBC350104413
:1007C0000029A4BF10BC7047401C490008BF20F09E
:1007D000010010BC704710B5141E73F1000408DA54
:1007E000401C41F1000192185B411A4301D120F0F5
:1007F000010010BD2DE9F04D92469B4611B1B1FAB2
:1008000081F202E0B0FA80F220329046FFF734FD28
:1008100004460F4640EA0A0041EA0B0153465A4695
:10082000084313D0114653EA010019D0C8F1400221
:100830005046FFF789FF05460E4650465946424648
:10084000FFF71AFD084305D0012004E02046394691
:10085000BDE8F08D0020054346EAE0762C4337439F
:100860000A986305E40AA0EB08000022FD0A44EAA6
:1008700047540A3002D500200146E9E70105101966
:100880006941DDE9084500196941BDE8F04DA2E77D
:1008900070B521F0004303430CD0C1F30A55002486
:1008A000D5EB040564EB0403D617AD1AB34102DBA4
:1008B0000020014670BD201841EB025170BD2DE9AA
:1008C000F04D00231A461B1A8A4103DB0020014623
:1008D000BDE8F08DC1F30A52C1F3130141F4801554
:1008E0004FF0000BD10702D100186D41521E0027B6
:1008F000044640F2FF11384601EB620A3E4680464C
:10090000024600204FF48011FFF71EFFC21971410B
:10091000BB1846EB0100B4EB030C75EB000C04D3E1
:10092000E41A65EB000517460E46241908F101008C
:100930006D4180463428E3DDF91946EB0600091BBA
:10094000A84103D24FF0FF32134601E000221346C4
:100950001BEB070046EB0A51BDE8F04DFFF73BBF2C
:10096000064C074D06E0E06840F0010394E80700FC
:1009700098471034AC42F6D3FFF70AFC20CB0008AE
:1009800040CB000870B58C1810F8015B15F0070318
:1009900001D110F8013B2A1106D110F8012B03E018
:1009A00010F8016B01F8016B5B1EF9D12B0705D420
:1009B0000023521E0DD401F8013BFAE710F8013B69
:1009C000CB1A921C03E013F8015B01F8015B521E85
:1009D000F9D5A142D8D3002070BD21B1826842F080
:1009E0000102826003E0826822F0010282607047A7
:1009F0000021084A1168084A1140D0E900231A432F
:100A000083681A43C3681A431143044AC2F80413A3
:100A10007047000004230140E030FCFF002001404B
:100A20000146C86C80B270470246002013680B4034
:100A30000BB1012000E000207047000030B50246F5
:100A4000002000235068104C20400D790C6844EAC7
:100A500005242043506090680C4C2040D1E9035499
:100A60002C438D682C434D7944EA45042043906023
:100A7000D06A20F470000C7D641EE4B2234340EA87
:100A80000350D06230BD0000FFFEFFFCFDF7FFC049
:100A9000F0B504460D4600200021092D11DDE06867
:100AA000A5F10A0606EB4607072606FA07F1884372
:100AB000A5F10A0606EB460603FA06F10843E060D4
:100AC0000CE0206905EB4507072606FA07F1884385
:100AD00005EB450603FA06F108432061072A0FDA01
:100AE000606B561E06EB86071F2606FA07F1884341
:100AF000561E06EB860605FA06F10843606322E0FF
:100B00000D2A0FDA206BD61F06EB86071F2606FA82
:100B100007F18843D61F06EB860605FA06F108435F
:100B2000206310E0E06AA2F10D0606EB86071F269F
:100B300006FA07F18843A2F10D0606EB860605FAD0
:100B400006F10843E062F0BD816841F080418160B8
:100B500070470000F8B53848D0ED000A9FED371A0D
:100B60009FED370A10EE810AF3EE0B0A80EE201A91
:100B7000BDEEC10A10EE106A642E00DD6426314815
:100B800090ED000ADFED300A20EE200ABDEEC00A2B
:100B900010EE104A002C00DA64422C4890ED000A56
:100BA000DFED290A20EE200ABDEEC00A10EE105A31
:100BB000002D00DA6D422648007808B9012000E0D7
:100BC0000020234908702348007801281BD12248BF
:100BD00090ED000ABDEEC00A10EE103A1F4890EDED
:100BE000000ABDEEC00A10EE102A1D4890ED000A62
:100BF000BDEEC00A10EE101A1AA004F0E1FE0020AB
:100C00001449087017E01248007850B91948B0F933
:100C10000400EAB2E1B23346009017A004F0D0FE1F
:100C200009E01448B0F90430B0F90220B0F900101E
:100C300015A004F0C5FEF8BD1800002000007A449D
:100C400000401C46EC5A00200000C842005B002017
:100C500078020020BE010020900100208C010020BD
:100C60007C0100207B4325643A25643A25647D2479
:100C7000000000007C0200207B4125643A25643A94
:100C800025643A25647D24007B4225643A25643A34
:100C900025647D240000000000B58DB001210220F4
:100CA00002F0C0FC0121080202F0DCFC02200B90E3
:100CB00003208DF8300000208DF833000BA9154873
:100CC00001F0E2F90121080202F0DCFC00214FF4FE
:100CD000807002F0D7FC002007900A9009904FF432
:100CE0000030089007A8FFF783FE002001908DF8E0
:100CF00008008DF809000390059001208DF8180078
:100D000001A90548FFF79AFE01210348FFF765FE98
:100D10000DB000BD000402400020014000B58DB0C0
:100D20000121022002F07EFC0121480202F09AFC1F
:100D300001200B9003208DF8300000208DF8330047
:100D40000BA9154801F0A0F90121480202F09AFC14
:100D500000214FF4007002F095FC002007900A90EB
:100D600009904FF40030089007A8FFF741FE0020DB
:100D700001908DF808008DF809000390059001207E
:100D80008DF8180001A90548FFF758FE0121034816
:100D9000FFF723FE0DB000BD00040240002101401A
:100DA0001CB506F08FFF019052E10A2101A809F05D
:100DB000BFF9A848006840F6B831884204DAA5486F
:100DC0000068401CA349086001F0FCF9A2480068D3
:100DD0000028E9D1A14890ED001ADFEDA10AA14851
:100DE00090ED000A00F0A6FB01F0B2FD9E480068FD
:100DF00001287DD19D4800780028FAD19C4890EDCB
:100E0000021AF0EE410A90ED001AB0EE410A9FED91
:100E1000992A9948D0ED001A984890ED001A01F0EF
:100E200009FD00EE100AB8EEC00A914880ED010AF3
:100E3000934890ED021AF0EE410A90ED001AB0EEE0
:100E4000410A9FED8C2A8C48D0ED001A8B4890ED1A
:100E5000001A01F0EFFC00EE100AB8EEC00A884854
:100E600080ED010A87480078062828D2DFE800F0E4
:100E700003284F6586AB0020834C009094ED010A57
:100E8000BDEEC00A10EE103A804C94ED010AB1EEAE
:100E9000400ABDEEC00A10EE102A794C94ED010A0A
:100EA000B1EE400ABDEEC00A10EE101A704C94ED7F
:100EB000010ABDEEC00A10EE100A02F01DFFA3E009
:100EC0000020714C009094ED010ABDEEC00A10EEB6
:100ED000103A6E4C94ED010AB1EE400ABDEEC00A24
:100EE00010EE102A664C94ED010ABDEEC00A00E037
:100EF0008BE010EE101A5E4C94ED010AB1EE400A40
:100F0000BDEEC00A10EE100A02F0F6FE7CE060486A
:100F100000685B4A009092ED010ABDEEC00A10EE37
:100F2000101A534A92ED010ABDEEC00A10EE100AE3
:100F3000584B5A4202F0E0FE66E00020524C00900E
:100F400094ED010ABDEEC00A10EE103A4F4C94ED3C
:100F5000010ABDEEC00A10EE102A494C94ED010AB8
:100F6000BDEEC00A10EE101A414C94ED010ABDEE20
:100F7000C00A10EE100A02F0BFFE45E00020424C0D
:100F8000009094ED010ABDEEC00A10EE103A3F4CFD
:100F900094ED010AB1EE400ABDEEC00A10EE102A2F
:100FA000374C94ED010AB1EE400ABDEEC00A10EED6
:100FB000101A2F4C94ED010ABDEEC00A10EE100A73
:100FC00002F09AFE20E000202F4C009094ED010AE0
:100FD000BDEEC00A10EE103A2C4C94ED010ABDEEA5
:100FE000C00A10EE102A264C94ED010ABDEEC00A8C
:100FF00010EE101A1E4C94ED010ABDEEC00A10EE60
:10100000100A02F079FE00BF1CE09FED150A22488D
:1010100080ED000A9FED120A204880ED000A9FED46
:10102000100A1F4880ED000A9FED0D0A1D4880ED53
:10103000000A40F2DC5000231A4619460090184678
:1010400002F05AFE174B164A1449134802F044FCAA
:10105000ABE60000F0010020D40100208801002050
:1010600000000000800100200C8241426C01002041
:10107000EC5A00200AD7233C9C0100209801002054
:10108000005B002074010020285B0020145B00201E
:101090007801002061BEFFFF04020020080200204A
:1010A0000C0200201002002000BFFEE71CB5012149
:1010B000084602F0B7FA4FF48070009001208DF8D6
:1010C000040000208DF8060003208DF805000120A3
:1010D0008DF807006946024800F0D6FF1CBD0000ED
:1010E000000002402DE9FE4304460D4616461F4609
:1010F000DDF828904FF0000814B10DB106B117B912
:101100000120BDE8FE83601EC4B2681EC5B2701E19
:10111000C6B2781E87B20121082002F083FA0121AD
:10112000480602F08FFA0320019002208DF8080093
:1011300000208DF80A0003208DF8090001208DF8A9
:101140000B0001A9614800F09FFF092200215F48C0
:1011500000F0E2FF092201215C4800F0DDFF0020E1
:101160005B4908600846006840F00100086008E03C
:1011700008F101001FFA80F8B8F1640F01DD0220C8
:10118000BFE75348001D006800F001000028EFD0C1
:101190004F4800684E4908600846006808600846E5
:1011A000006808600846006840F0100008600846C3
:1011B00000680860084600680860002044491C3147
:1011C00008600846006840EA8970086008460068C0
:1011D00040EA046008600846006840EA055008607C
:1011E0000846006840EA0640086008460068384340
:1011F00008603748006820F001003549086009E0C0
:1012000008F101001FFA80F84FF6F070804501DD0B
:10121000032076E72E48001D006800F0010000283A
:10122000EED12C48006840F001002A4908602948A6
:101230001C30006820F0010026491C310860254858
:101240000C30006840F0010022490C310860214850
:10125000001D00681F49091D08601E481430006801
:101260001C491431086000201A49403108600021EF
:1012700018484430016017481C30006840F00100F5
:1012800014491C31086013480068002011490860A7
:101290000F481430006840F002000D491431086016
:1012A00014208DF8000001208DF8010003208DF836
:1012B000020001208DF80300684601F02BFD012299
:1012C0000221034800F00CF900201AE7000C02404C
:1012D000006400400066004000B52DED028B89B02F
:1012E00003A805A906AB07AACDE9001008A90020AC
:1012F00000F08AF840F281110898884266D10120F6
:10130000354908700020354908703549087035495D
:1013100008703549087035490870354908709DF8DE
:101320000D009DF80C1000EB012000B200EE100A39
:10133000B8EEC00ADFED2F0A80EE201A2E4880EDAD
:10134000001A9DF80F009DF80E1000EB012000B26E
:1013500000EE100AB8EEC00ADFED260A80EE201A71
:10136000264880ED001A9DF811009DF8101000EB42
:10137000012000B200EE100AB8EEC00ADFED1D0A2F
:1013800080EE201AB0EE418A1D48007802280AD16A
:10139000F0EE480A184890ED000A04F069FA19487E
:1013A00080ED000A11E09DF811009DF8101000EB8F
:1013B000012000B200EE100AB8EEC00ADFED0D0AFF
:1013C00080EE201A0F4880ED001A00E000BF09B03F
:1013D000BDEC028B00BD0000B7010020B40100206D
:1013E000B6010020B5010020B8010020B90100209D
:1013F000FA01002000007A448001002084010020CE
:101400007401002088010020F0B5DDE90554324E5A
:1014100006EB0016366806F004061670167836B924
:101420002D4E06EB00163668760D0E6005E02A4E4E
:1014300006EB00163668F6080E60274E06EB00161F
:10144000366806F002061E70234E06EB001676681C
:1014500006F00F062E70204E06EB0016B6682670BA
:101460001D4E06EB0016B668360A66701A4E06EB7D
:101470000016B668360CA670174E06EB0016B66856
:10148000360EE670144E06EB0016F6682671124E04
:1014900006EB0016F668360A66710F4E06EB00166C
:1014A000F668360CA6710C4E06EB0016F668360E82
:1014B000E67130B9094E366846F02006074F3E60A7
:1014C00009E0012807D1054E361D366846F0200692
:1014D000024F3F1D3E60F0BDB06500400C6400400F
:1014E0001AB143690B43436102E043698B43436193
:1014F0007047000010B502460B460020012B08D1B2
:10150000002104E0084C645C60404C1CE1B2914254
:10151000F8DB43B9002104E0044C645C60404C1CDF
:10152000E1B29142F8DB10BD3A070020B70000207D
:101530007047000000B52DED108B89B0B0EE408AE9
:10154000F0EE609AF0EE418AB0EE0C0AB0EE409AEE
:10155000FC48007818B1FB480078012814D1B0EE9F
:10156000681AF0EE690AB0EE480A02F013FCF64879
:1015700090ED000AB0EE408A90ED010AF0EE409A3C
:1015800090ED020AF0EE408AEE480078002879D10A
:1015900039EE880AED48D0ED000AED4890ED001ACA
:1015A00070EE810A08EEE00AEA4880ED020AB1EE28
:1015B000690A30EE080AE548D0ED000AE44890EDEB
:1015C000001A70EE810A08EEE00AE34880ED020A94
:1015D00039EE880ADD48D0ED000ADD4890ED001AAA
:1015E00070EE810A08EEA00ADC4880ED020AB1EE36
:1015F000690A30EE080AD548D0ED000AD44890EDCB
:10160000001A70EE810A08EEA00AD54880ED020AA1
:10161000D048D0ED020AB0EE600AB0EE491AF1EE01
:10162000490A08F0CEF9CB4880ED020ACA48D0ED4D
:10163000020AB0EE600AB0EE491AF1EE490A08F06B
:10164000C0F9C54880ED020AC448D0ED020AB0EEE8
:10165000600AB0EE491AF1EE490A08F0B2F9BF4843
:1016600080ED020ABE48D0ED020AB0EE600AB0EE8C
:10167000491AF1EE490A08F0A4F9B94880ED020AC6
:1016800038E3FFE7AF48007801287AD1B548D0EDBC
:10169000000AB0EE690A00EEA80AAE4880ED020A20
:1016A000B04890ED000A20EE280A10EE101A084605
:1016B000FEF7ECFF41EC1B0BB6EE000A29EE800AA8
:1016C00010EE101A0846FEF7E1FFCDE9040118EE0E
:1016D000100AFEF7DBFF41EC1C0B9FEDA30B05F09E
:1016E000F3F9B0EE40FAF0EE60FA9FEDA10B53EC87
:1016F000102B51EC1F0BFEF71DFF41EC1D0B81F071
:10170000004141EC1E0B53EC1C2BFEF7A1FECDE972
:1017100002019DED040B53EC102B9DED020B51ECDF
:10172000100BFEF78FFE53EC1B2BCDE906019DED50
:10173000060B51EC100BFEF7E4FD41EC1A0BFEF723
:10174000D1FF85498860874890ED000A20EE280A7D
:1017500010EE101A0846FEF799FF41EC1B0BB6EE8F
:10176000000A29EE800A10EE101A0846FEF78EFFD6
:1017700041EC1C0B18EE100AFEF788FF41EC1D0B24
:1017800000E05BE09FED780B05F09EF98DED040B1A
:101790009FED770B53EC102B9DED040B51EC100BD0
:1017A000FEF7C8FE53EC1D2BCDE906019DED060B9F
:1017B00051EC100BFEF74CFE41EC1F0B53EC1C2BB5
:1017C000FEF740FE41EC1E0B53EC1B2BFEF799FD80
:1017D00041EC1A0BFEF786FF604988605D48D0ED4A
:1017E000020AB0EE600AB0EE491AF1EE490A08F0BA
:1017F000E8F8584880ED020A5748D0ED020AB0EEEA
:10180000600AB0EE491AF1EE490A08F0DAF85248D7
:1018100080ED020A5148D0ED020AB0EE600AB0EE47
:10182000491AF1EE490A08F0CCF84C4880ED020A5A
:101830009FED510A4A4880ED020A5BE24148007878
:1018400002287DD19FED4D0AF0EE40DAB0EE68AA95
:101850003F4890ED000AF6EE000A20EE200A10EE56
:10186000101A0846FEF712FF41EC1B0B1AEE100A85
:10187000FEF70CFFCDE904019DED040B05F064F9C2
:10188000B0EE40EAF0EE60EA30480068FEF7FEFE97
:1018900041EC1F0B53EC1E2BFEF74CFE41EC1C0BD6
:1018A00053EC1B2BFEF7CEFDCDE906019DED060B9B
:1018B00051EC100BFEF716FF0AEE900A9FED301A5E
:1018C000DFED300AB0EE4A0A08F07BF8B0EE40AA2D
:1018D000B5EEC0AAF1EE10FA20D01D48D0ED000AF6
:1018E000B6EE001AB0EE6A0A01EE600A20EE080AAF
:1018F000C0EE2A0A1748C0ED020A1548D0ED000ACA
:10190000B6EE001AB0EE6A0A01EE200A20EE080ACE
:10191000C0EE2A0A1048C0ED020A05E00D4880ED2D
:10192000028A0D4880ED028A9FED170A2AEE000A0E
:1019300010EE101A0846FEF7A9FE41EC1E0B25E03A
:10194000C0E0000074010020E05A0020AC0100203B
:10195000A8010020EC5A0020005B0020145B00204E
:10196000285B0020B00100200000000000000840BB
:10197000000000000000004000000000D7231F44CA
:1019800048E1FA3E48E1FABEE5D0E23F1AEE100A1D
:10199000FEF77CFE41EC1C0B1FED0B1BB0EE4C0A5E
:1019A000F0EE6C0A04F004FAB0EE40BAF0EE60BA61
:1019B0009FEDD20B53EC102B51EC1B0BFEF748FDA7
:1019C000CDE902011AEE100AFEF760FE41EC1B0B96
:1019D0001FED1B1BB0EE4B0AF0EE6B0A04F0E8F9AA
:1019E000B0EE40CAF0EE60CA9FEDC60B53EC102B70
:1019F00051EC1C0BFEF72CFDCDE900019DED020B17
:101A000053EC102B9DED000B51EC100BFEF779FC05
:101A100041EC1F0B53EC1E2BFEF714FD9FEDBB0B8F
:101A200053EC102BCDE904019DED040B51EC100B90
:101A3000FEF767FCCDE906019DED060B51EC100B9E
:101A4000FEF750FE0DEE100A9FEDB20A7DEE400A41
:101A50009FEDB10A00EEAD0ABDEEC00AAF4880EDC1
:101A6000000AAF48D0ED020AB0EE600AB0EE491AA3
:101A7000F1EE490A07F0A5FFA94880ED020AA9483E
:101A8000D0ED020AB0EE600AB0EE491AF1EE490A52
:101A900007F097FFA34880ED020A1FED490AA2480C
:101AA00080ED020A1FED4C0AA04880ED020A40F6C4
:101AB00098024FF448719948006807F097FF9749DA
:101AC000086017E19A480078032842D1994890EDC0
:101AD000000A68EE800AB0EE001A80EE810A38EE45
:101AE000400A8F4880ED020A924890ED000A68EEA5
:101AF000800AB0EE001A80EE810A30EE080A8948AA
:101B000080ED020A8648D0ED020AB0EE600AB0EE1F
:101B1000491AF1EE490A07F054FF814880ED020AA4
:101B20008048D0ED020AB0EE600AB0EE491AF1EE3C
:101B3000490A07F046FF7B4880ED020A1FED720A52
:101B4000794880ED020A1FED740A784880ED020A98
:101B5000D0E07748007804287DD1764890ED000ADF
:101B60007548D0ED000A30EE200A60EE280AB0EE8B
:101B7000001A80EE810A38EE400A694880ED020AB8
:101B80006C4890ED000A6C48D0ED000A30EE200A57
:101B900060EE280AB0EE001A80EE810A38EE400AA4
:101BA000604880ED020A634890ED000A6248D0ED7B
:101BB000000A30EE200A60EE280AB0EE001A80EE2D
:101BC000810A30EE080A584880ED020A594890ED23
:101BD000000A5948D0ED000A30EE200A60EE280ACB
:101BE000B0EE001A80EE810A30EE080A4F4880ED10
:101BF000020A4B48D0ED020AB0EE600AB0EE491A74
:101C0000F1EE490A07F0DDFE454880ED020A45483D
:101C1000D0ED020AB0EE600AB0EE491AF1EE490AC0
:101C200007F0CFFE3F4880ED020A3F48D0ED020AA0
:101C3000B0EE600AB0EE491AF1EE490A07F0C1FEB3
:101C4000394880ED020A3948D0ED020AB0EE600A48
:101C5000B0EE491A00E007E0F1EE490A07F0B1FEE4
:101C6000324880ED020A45E031480078052841D12C
:101C7000304890ED000A68EE800AB0EE001A80EE5F
:101C8000810A38EE400A264880ED020A294890ED84
:101C9000000A68EE800AB0EE001A80EE810A30EE8B
:101CA000080A204880ED020A1D48D0ED020AB0EE75
:101CB000600AB0EE491AF1EE490A07F082FE1848B0
:101CC00080ED020A1748D0ED020AB0EE600AB0EECD
:101CD000491AF1EE490A07F074FE124880ED020A33
:101CE0001FEDDB0A104880ED020A1FEDDD0A0F48E8
:101CF00080ED020A09B0BDEC108B00BD00000000B1
:101D0000D34DF43F000000809318E4BF00000000B2
:101D1000022BF93F1058C93F0080BB4478010020D6
:101D2000EC5A0020005B0020145B0020285B0020A0
:101D300074010020A8010020AC0100201CB5012185
:101D4000082001F06FFC0820009000208DF80400AE
:101D500003208DF8050001208DF807006946024830
:101D600000F092F91CBD0000000C024000B589B0E3
:101D70000121084601F066FC0121032001F052FC1C
:101D80004FF40040019003208DF8090002208DF8E7
:101D9000080001208DF80A008DF80B0001A92B48DE
:101DA00000F072F90820019003208DF8090002204C
:101DB0008DF8080001208DF80A008DF80B0001A9AC
:101DC000234800F061F901220F21204800F0A4F916
:101DD000012203211E4800F09FF906A803F0DAF85B
:101DE0000020ADF818004FF6FF7007900020ADF806
:101DF0002000ADF81A0006A94FF0804003F088F8E3
:101E000000231A4603214FF0804002F054FE03A83D
:101E100002F0C6FE0020ADF8140003A94FF0804088
:101E200002F087FE0121880702F024FE01221146FC
:101E3000900702F0BEFE00214FF0804003F03AF818
:101E40000121880702F01CFE09B000BD000002401D
:101E50000004024000B589B00121022001F0F2FB2C
:101E60000121022001F0DEFB3020019003208DF8DB
:101E7000090002208DF8080001208DF80A008DF875
:101E80000B0001A9204800F0FFF8022204211E489F
:101E900000F042F9022205211B4800F03DF906A896
:101EA00003F078F80020ADF818004FF6FF700790A7
:101EB0000020ADF82000ADF81A0006A9134803F081
:101EC00027F800231A460321104802F0F4FD03A866
:101ED00002F066FE0020ADF8140003A90B4802F0E2
:101EE00028FE0121094802F0C5FD012211460748DC
:101EF00002F05FFE0021054802F0DCFF01210348EB
:101F000002F0BEFD09B000BD000402400004004024
:101F100000B589B00121042001F094FB01210220C9
:101F200001F080FBC020019003208DF80900022001
:101F30008DF8080001208DF80A008DF80B0001A92A
:101F4000204800F0A1F8022206211E4800F0E4F823
:101F5000022207211B4800F0DFF806A803F01AF858
:101F60000020ADF818004FF6FF7007900020ADF884
:101F70002000ADF81A0006A9134802F0C9FF00239B
:101F80001A460321104802F096FD03A802F008FE4D
:101F90000020ADF8140003A90B4802F0CAFD01218E
:101FA000094802F067FD01221146074802F001FED0
:101FB0000021054802F07EFF0121034802F060FD88
:101FC00009B000BD000402400008004000B589B01F
:101FD0000121082001F036FB0121084601F022FB17
:101FE00002220021264800F097F80222012124480D
:101FF00000F092F80320019002208DF809008DF87E
:10200000080001208DF80A008DF80B0001A91C487A
:1020100000F03AF806A802F0BDFF0020ADF8180065
:102020004FF6FF7007900020ADF82000ADF81A00C1
:1020300006A9144802F06CFF00231A460321114838
:1020400002F039FD03A802F0ABFD0020ADF814004A
:1020500003A90C4802F06DFD01210A4802F00AFDB7
:1020600001221146074802F0A4FD0021054802F0B4
:1020700021FF0121034802F003FD09B000BD00006B
:1020800000000240000C0040F0B50A460021002389
:10209000002400BF3DE0012505FA01F3156805EABB
:1020A00003049C4234D105684F000326BE40B5436B
:1020B000056015794E00B540066835430560157911
:1020C000012D02D01579022D16D185684F00032607
:1020D000BE40B543856055794E00B54086683543AE
:1020E0008560456801268E40B54345604568967910
:1020F0008E40B6B235434560C5684F000326BE40EA
:10210000B543C560D5794E00B540C6683543C56056
:10211000491C1029BFD3F0BDF0B5002300244D07A2
:10212000ED0E02FA05F3CE1000F1200555F8265009
:102130004E07F70E0F26BE40B543CF1000F1200624
:1021400046F82750CE1000F1200555F8265045EAF4
:102150000304CE1000F1200545F82640F0BD0183B0
:102160007047000010B504460723012221460848A5
:10217000FEF78EFC0648FEF7E7FC00BF022104488C
:10218000FEF752FC0028F9D00148FEF749FC10BDCB
:102190000020014010B504460723012221460848CB
:1021A000FEF776FC0648FEF7CFFC00BF022104488C
:1021B000FEF73AFC0028F9D00148FEF731FC10BDCB
:1021C0000021014010B52DED048B022001F0F4FA3E
:1021D00075490860032001F0EFFA73494860042054
:1021E00001F0EAFA70498860052001F0E5FA6E49CD
:1021F000C8606E48007806281AD2DFE800F0031A9B
:10220000374C6178684890ED000AB8EEC08A90EDCE
:10221000010AF8EEC08A8068404200EE100AB8EE6B
:10222000C09A6148C068404200EE100AF8EEC09AB9
:1022300072E05D480068404200EE100AB8EEC08AC5
:1022400059484068404200EE100AF8EEC08A5648ED
:102250008068404200EE100AB8EEC09A5248C0684A
:10226000404200EE100AF8EEC09A55E04E4890ED5C
:10227000000AB8EEC08A4068404200EE100AF8EE4C
:10228000C08A494890ED020AB8EEC09A90ED030A60
:10229000F8EEC09A40E0444890ED000AB8EEC08ADB
:1022A0004068404200EE100AF8EEC08A3E4890EDC9
:1022B000020AB8EEC09A90ED030AF8EEC09A2BE03D
:1022C000394890ED000AB8EEC08A90ED010AF8EEA8
:1022D000C08A8068404200EE100AB8EEC09A3248C8
:1022E000C068404200EE100AF8EEC09A14E02E4892
:1022F00090ED000AB8EEC08A4068404200EE100A35
:10230000F8EEC08A284890ED020AB8EEC09A90ED27
:10231000030AF8EEC09A00BF00BF9FED250A28EE21
:10232000000A2448D0ED000A20EE200A2248D0ED11
:10233000000A80EE201A214880ED001A9FED1C0A49
:1023400028EE800A1B48D0ED000A20EE200A1A4829
:10235000D0ED000A80EE201A194880ED001A9FED9A
:10236000140A29EE000A1348D0ED000A20EE200AD4
:102370001148D0ED000A80EE201A124880ED001AB4
:102380009FED0B0A29EE800A0A48D0ED000A20EEE4
:10239000200A0948D0ED000A80EE201A0A4880ED94
:1023A000001ABDEC048B10BD3C5B002074010020C2
:1023B0000000C842A4010020A0010020EC5A002027
:1023C000005B0020145B0020285B00202DE9F04119
:1023D00007460C460025002608E03846FFF7C2FEF7
:1023E0000544052005F002FC701CC6B2A642F4DBD1
:1023F000B5FBF4F080B2BDE8F081000010B52DED22
:102400000E8B0820FFF7C6FE0446FEF713F941ECD9
:102410001E0B9FED180B53EC102BFEF719F841EC37
:102420001D0B9FED160B53EC102BFEF711F841EC32
:102430001C0B9FED140B53EC102BFEF709F841EC2D
:102440001B0B9FED120B53EC102BFEF773F841ECB6
:102450001A0B9FED100B53EC102BFEF76BF841ECB1
:10246000190BFEF73FF908EE100AB0EE480ABDEC72
:102470000E8B10BD6666666666660A400000000048
:10248000000026400000008014AEEF3F0000000076
:102490000000F03F000000000000B04000BFFEE779
:1024A00010B500200E4908600E48006820F4400076
:1024B0000C4908600846006840F48000086000206D
:1024C0000949C1F8AC02012005F0B0FB0120044924
:1024D000086005F0ABFB00200349C1F8A80210BD5D
:1024E000A882404200040240008040421CB5012105
:1024F000022001F097F84FF44060009001208DF821
:10250000040000208DF8060003208DF8050001204E
:102510008DF8070069460548FFF7B6FD012004491C
:1025200008600449C1F8AC021CBD00000004024070
:10253000A88240420080404210B500200E49086049
:102540000E48006820F440000C4908600846006806
:1025500040F48000086001200949C1F8AC0205F090
:1025600065FB01200449086005F060FB0020044978
:10257000C1F8A80210BD0000A88240420004024039
:102580000080404270B5054600241748006820F4DA
:10259000400015490860084600680860002619E0F8
:1025A000002012490860012005F040FB012010497D
:1025B000C1F8A8026006040E0C487C38006810B10F
:1025C00044F0010401E024F00104012005F02EFB99
:1025D000701CC6B2082EE3DB15B9FFF761FF01E0FE
:1025E000FFF7AAFF204670BD00040240A8824042C7
:1025F0000080404270B504460D46002600F01AF8EF
:10260000204600F0CBF800F06BF8284600F0C6F842
:1026100000F066F800F00EF844F0010000F0BEF89B
:1026200000F05EF80120FFF7ADFF064600F034F839
:10263000304670BD10B51548006820F440001349BD
:1026400008600846006840F48000086001201049D6
:1026500008601048D0F82C0200B910BD01200C49C8
:10266000091F086005F0E2FA00200A49C1F8AC022F
:1026700007488038006800B1EFE7012005F0D6FA7E
:1026800000200349091F086000BFE6E7000402407C
:10269000AC8240420080404210B50E48006820F4F1
:1026A00040000C4908600846006840F4800008605B
:1026B0000020094908600949C1F8AC02012005F071
:1026C000B5FA0120044908600449C1F8AC0205F0DC
:1026D000ADFA10BD00040240A88240420080404292
:1026E00010B500241448006820F440001249086026
:1026F00008460068086001201049086005F096FA55
:1027000001200F49C1F8A80205F090FA0AE0601C08
:10271000C4B2322C03DDFFF7BFFF002010BD012043
:1027200005F084FA0548803800680028EFD1034995
:10273000091F08600120F1E700040240AC8240421A
:10274000008040422DE9F0478046894614461D46E8
:10275000089E49464046FFF74DFF0746601CFF2193
:1027600001FA00F0C4F108012944491EFF220A4180
:10277000104300F0FF0AC5F1080006FA00F0C6B2E7
:10278000C4F10700064107EA0A0737433A464946BB
:10279000404600F035F80120BDE8F08770B50446EA
:1027A0001448006820F44000124908600846006898
:1027B00040F48000086000200F490860002516E002
:1027C000E0090D49091D08606006040E012005F0AE
:1027D0002DFA01200949C1F8A80205F027FA0020C6
:1027E00005490860012005F021FA681CC5B2082DD2
:1027F000E6DB70BD00040240A882404200804042F7
:1028000070B504460D461646FFF714FF2046FFF745
:10281000C5FFFFF765FF2846FFF7C0FFFFF760FF22
:102820003046FFF7BBFFFFF75BFFFFF735FF0120E7
:1028300070BD000000B5B0EE403AF0EE603AF0EE48
:10284000412A33EEC30A2D4880ED000A2C4890ED52
:10285000000A2A48D0ED000A20EE200A294880ED1F
:10286000000A294890ED000A2448D0ED000A60EEE5
:10287000200A264890ED000A00EE820A80ED000A48
:102880001E4890ED000A2248D0ED000A30EE600AA2
:102890002048D0ED000A20EE200AC0EE020A1E48B1
:1028A000C0ED000AF0EE620AB1EE620A174800F0CD
:1028B00019FA144890ED000A1448D0ED000A30EEE1
:1028C000200A1548D0ED000A30EE200A134880EDAA
:1028D000000AF0EE610AB1EE610A00F003FA07485F
:1028E00090ED000A0A4880ED000A0C4890ED000ABD
:1028F000BDEEC00A10EE100A00BD00002402002048
:102900008C010020140200209001002018020020F9
:1029100028020020940100201C0200202002002038
:102920001CB50121102000F07DFE01200090002048
:102930008DF8040003208DF8050001208DF80700B4
:1029400069460248FFF7A0FB1CBD000000100240D2
:1029500010B5322005F016F80446022C0BD10648BB
:1029600006490A68026089888180054805490A6825
:1029700002608988818010BD9002002096020020AC
:102980009C020020A20200201CB50121084600F094
:1029900049FE4FF48050009001208DF80400002083
:1029A0008DF8060003208DF8050001208DF8070042
:1029B00069460448FFF768FB4FF480510148FFF770
:1029C000CEFB1CBD0000024070B504460025BC2CA7
:1029D00001DB012510E0622C01DB02250CE02A2C32
:1029E00001DB032508E0142C01DB042504E00A2C9C
:1029F00001DB052500E006252A461A21D020FFF735
:102A0000FFFE70BD70B50446B4F57A7F01DD4FF46A
:102A10007A74042C00DA04244FF47A7090FBF4F0FA
:102A2000401EC5B22A461921D020FFF7E9FE05460F
:102A3000264604EBD671C1F34F00FFF7C5FF70BD0A
:102A400010B580226B21D020FFF7DAFEC82005F0F8
:102A5000CDF800226B21D020FFF7D2FE012000F03C
:102A60003DF8002000F030F83220FFF7CBFF0022C5
:102A70003821D020FFF7C4FE00226A21D020FFF7C2
:102A8000BFFE00222321D020FFF7BAFE802237218B
:102A9000D020FFF7B5FE7521D020FFF7ABFD04462F
:102AA000682C0DD101226B21D020FFF7A9FE002256
:102AB0006C21D020FFF7A4FE3220FFF7A3FF01E036
:102AC000012010BD0020FCE738B504460223042293
:102AD0001C21D0200094FFF735FE38BD38B50446E0
:102AE000022304221B21D0200094FFF72BFE38BDC7
:102AF00008B505F0E7F800901CE00A21684607F0E9
:102B000017FB0D480068642810DA0B480068401C69
:102B10000949086009480A490A6802608988818071
:102B2000084809490A6802608988818000F06AF8CB
:102B300000F00CF8E1E700008C0200209002002079
:102B40007C0200209C0200208202002010B53C2163
:102B5000D020FFF74FFD04463B21D020FFF74AFD70
:102B600004EB002000B2234908803E21D020FFF76B
:102B700041FD04463D21D020FFF73CFD04EB002041
:102B800000B21C4948804021D020FFF733FD0446A5
:102B90003F21D020FFF72EFD04EB002000B21549A5
:102BA000888015480068642823DB0846008813499C
:102BB00008801048408848800E48808888800846F1
:102BC00000880F490988401A00B20A4908800B485A
:102BD00040880B494988401A00B206494880074896
:102BE000808807498988401A00F5804000B2014971
:102BF000888010BD820200208C020020A2020020EA
:102C00009C02002010B54421D020FFF7F3FC0446BD
:102C10004321D020FFF7EEFC04EB002000B22B494B
:102C200008804621D020FFF7E5FC04464521D0204E
:102C3000FFF7E0FC04EB002000B224494880482163
:102C4000D020FFF7D7FC04464721D020FFF7D2FC65
:102C500004EB002000B21D4988801D4800686428EC
:102C600005DA01201B4908601B4908702CE0184850
:102C70000068642802D10020174908704FF496704C
:102C80001449086011480088144908800F4840889A
:102C900048800E4880888880084600881049098846
:102CA000401A00B2094908800C4840880C494988FC
:102CB000401A00B205494880084880880849898838
:102CC000401A00B20149888010BD00007C0200203B
:102CD0008C020020380000206C01002096020020A9
:102CE0009002002090ED001AB4EEC01AF1EE10FA36
:102CF00002D280ED000A08E090ED001AB4EEE01A6E
:102D0000F1EE10FA01DDC0ED000A704700BFFEE7EA
:102D10007047000070B5002100230F22C4781CB357
:102D2000174C246804F4E064C4F5E064C4F307219C
:102D3000C1F10404E3B20A4144789C40E1B28478D2
:102D4000144021430C07210E0E4C05786155047880
:102D500004F01F050124AC4005786D11AD0005F1AC
:102D6000E025C5F8004109E0047804F01F050124BE
:102D7000AC40054D0678761145F8264070BD000040
:102D80000CED00E000E400E080E100E002490143D6
:102D9000024A1160704700000000FA050CED00E0E7
:102DA00030B500240CE0002506E00020074901EBC7
:102DB000C5010855681CC5B2802DF6DB601CC4B285
:102DC000082CF0DB00F0D2F830BD0000C402002077
:102DD000F0B5144600267F2801DC3F2900DDF0BD58
:102DE0000B46CF1701EB5777FF10C7F10707FAB271
:102DF000CF1701EB5777FF10A1EBC707FDB2C5F165
:102E000007070123BB40DEB24CB10A4B03EBC00302
:102E10009B5C3343074F07EBC007BB5408E0054BEF
:102E200003EBC0039B5CB343024F07EBC007BB54EB
:102E300000BFD4E7C40200201CB50121082000F027
:102E4000F1FB4FF4F040009001208DF804000020C9
:102E50008DF806008DF805008DF80700694640489A
:102E6000FFF712F90121080700F0ECFB012000F048
:102E7000D3FB002000F08AFC002000F0CDFB0020F6
:102E800038490860642004F0B1FE01203649C1F8D9
:102E9000B0020021AE2000F04FF90021D52000F053
:102EA0004BF90021502000F047F90021A82000F044
:102EB00043F900213F2000F03FF90021D32000F02A
:102EC0003BF90021084600F037F90021402000F0CE
:102ED00033F900218D2000F02FF90021142000F09B
:102EE0002BF90021202000F027F90021022000F01A
:102EF00023F90021A12000F01FF90021C02000F0DB
:102F00001BF90021DA2000F017F90021122000F04F
:102F100013F90021812000F00FF90021EF2000F0CB
:102F20000BF90021D92000F007F90021F12000F071
:102F300003F90021DB2000F0FFF80021302000F031
:102F4000FBF80021A42000F0F7F80021A62000F0F3
:102F5000F3F80021AF2000F0EFF8FFF721FF1CBDD0
:102F6000000C0240B08241420080414230B5002452
:102F70001CE004F1B001C8B2002100F0DDF800212E
:102F8000084600F0D9F80021102000F0D5F80025FF
:102F900008E0084901EBC501085D012100F0CCF80B
:102FA000681CC5B2802DF4DB601CC4B2082CE0DBC9
:102FB00030BD0000C40200202DE9F04F80460C46D1
:102FC00015461E46A346A5F12000C5B200273EE0E7
:102FD0000C2E07D105EB45001F4901EB800010F8CE
:102FE000079004E01D4800EB051010F807904FF023
:102FF000000A26E009F0800028B121464046099ADF
:10300000FFF7E6FE09E0099808B9012000E000207A
:10301000024621464046FFF7DBFE4FEA49604FEA91
:103020001069601CC4B2A4EB0B00B04205D15C4631
:1030300008F1010000F0FF0806E00AF1010000F0CD
:10304000FF0ABAF1080FD5DB00BF781CC7B2B74240
:10305000BEDBBDE8F08F0000D4B3000848B800081C
:103060002DE9FF4F81B0074691461E460E9D4FF059
:10307000000A002439E0301B401EC1B20A2004F0CF
:103080005DFEB9FBF0F00A21B0FBF1F201FB120882
:10309000BAF1000F16D1701EA04213DDB8F1000F77
:1030A0000ED10120AB4605EBDB71491001FB047129
:1030B0000090C8B22B4620220299FFF77DFF12E054
:1030C0004FF0010A0120AB4605EBDB71491001FB13
:1030D00004710090C8B208F13001CAB22B460299BF
:1030E000FFF76AFF00BF601CC4B2B442C3DB05B087
:1030F000BDE8F08F78B505460E46144618E07A2DE7
:1031000003DD002506F11000C6B23A2E04DD0020D2
:1031100005460646FFF744FE0120009022780C2366
:1031200031462846FFF748FF05F10800C5B2641C88
:1031300020780028E3D178BD10B50A461AB10123E2
:10314000124C236002E00023104C2360002116E0A3
:1031500000230E4C0C34236000F080031BB10123CC
:10316000241F236003E00023084C0834236001235C
:10317000064C0C3423604306180E4B1CD9B20829A8
:10318000E6DB0123014C236010BD0000AC8241420C
:1031900001460148405C7047C4060020002004E05E
:1031A0000021034A1154411CC8B20928F8DB7047BA
:1031B000C406002038B504460120009000201E49B6
:1031C0004870012000902EE0BDF80000204018B1AA
:1031D00001201A49086002E0002018490860012017
:1031E000164910390860052004F020FD002014491C
:1031F000C1F8A002052004F019FD01201049C1F812
:10320000A0020846D0F83C0230B10B484078BDF827
:103210000010084308494870BDF800004FF6FF71E0
:1032200001EA40000090BDF80000FF28CCDD10202E
:1032300004F0FCFC38BD0000C4060020B00242428D
:103240000000424210B5FFF7A9FF00F02FF90F4828
:10325000C0780E49097940EA01200D490880002410
:103260000FE00C4810F81400401E012101FA00F094
:1032700007490988084010B9601CC0B210BD601C25
:10328000C4B2102CEDDB0020F8E70000C4060020DB
:10329000400000204400002010B5002013490860C1
:1032A000102004F0C3FC0120FFF784FF4320FFF748
:1032B00081FF0020FFF77EFF0120FFF77BFF00204A
:1032C000FFF778FF0020FFF775FF0020FFF772FF80
:1032D0000020FFF76FFF0020FFF76CFF012004497B
:1032E000C1F8A802102004F0A1FC10BDA8024242BF
:1032F0000000424210B5002013490860102004F07D
:1033000095FC0120FFF756FF4320FFF753FF0020F5
:10331000FFF750FF0020FFF74DFF5A20FFF74AFF4D
:103320005A20FFF747FF5A20FFF744FF5A20FFF7C4
:1033300041FF5A20FFF73EFF01200449C1F8A802CF
:10334000102004F073FC10BDA8024242000042426B
:103350001CB50121102000F065F94FF400400090E9
:1033600000208DF8040003208DF8050002208DF860
:10337000070069460B48FEF787FE4FF4A8500090FF
:1033800001208DF8040000208DF8060002208DF841
:10339000050001208DF8070069460248FEF774FE1B
:1033A0001CBD00000010024010B5FFF74BFF00EEFF
:1033B000100AB8EE400A2F4880ED000A0720FFF7F8
:1033C000E7FE00EE100AB8EE400A2B4880ED000A36
:1033D0000820FFF7DDFE00EE100AB8EE400A27488D
:1033E00080ED000A0520FFF7D3FE00EE100AB8EECC
:1033F000400A234880ED000A0620FFF7C9FE00EED0
:10340000100AB8EE400A1F4880ED000A194890EDF6
:10341000000AF1EE000AB4EE600AF1EE10FA05D1EE
:103420001948007810B90120184908601748006849
:10343000F0B1124890ED000ADFED150AB4EEE00A93
:10344000F1EE10FA14D21048007888B911480068DB
:1034500064280DDB01200C49087000200E4908701B
:103460000E4908700E4908700E4908700E49087020
:1034700010BD0000D0010020C0010020C4010020C8
:10348000C8010020CC010020B4010020640000200D
:103490000000EC428C020020B6010020B5010020A3
:1034A000B7010020B8010020B90100201CB50020A0
:1034B00001900120009000202549086025490878E6
:1034C000FFF778FE23494878FFF774FE0220019049
:1034D00036E00120009027E001201D4908390860EE
:1034E000052004F0A3FB00201B49C1F8A002052021
:1034F00004F09CFB01201849C1F8A0020846D0F84E
:103500003C0250B115489DF80410405CBDF8001015
:10351000084312499DF804208854BDF800004FF676
:10352000FF7101EA40000090BDF80000FF28D3DDE4
:10353000102004F07BFB9DF80400401CC0B20190F9
:103540009DF804000928C4DB0120014908601CBD66
:10355000A80242424200002000004242C40600206D
:1035600010B500F00BF800F009F800F007F8FFF7CD
:1035700093FE00F025F8FFF7BDFE10BD10B500204A
:103580000D490860102004F051FB0120FFF712FEE6
:103590004220FFF70FFE0020FFF70CFE0020FFF790
:1035A00009FE0020FFF706FE01200449C1F8A80229
:1035B000102004F03BFB10BDA80242420000424232
:1035C00010B50020124908600120FFF7F3FD4420E8
:1035D000FFF7F0FD0020FFF7EDFD0120FFF7EAFD0A
:1035E0000320FFF7E7FD0020FFF7E4FD0020FFF7D1
:1035F000E1FD0020FFF7DEFD0020FFF7DBFD0120ED
:103600000449C1F8A802102004F010FB10BD00000E
:10361000A80242420000424201490862704700008D
:1036200000000E4229B1064A12680243044B1A6098
:1036300004E0034A12688243014B1A60704700009D
:103640003038024029B1064A12680243044B1A601E
:1036500004E0034A12688243014B1A60704700007D
:103660004038024029B1064A12680243044B1A60EE
:1036700004E0034A12688243014B1A60704700005D
:103680004438024029B1064A12680243044B1A60CA
:1036900004E0034A12688243014B1A60704700003D
:1036A00024380240F0B50021002200240225002623
:1036B0000223324F3F6807F00C0121B1042905D0E5
:1036C000082937D105E02E4F076036E02D4F0760FF
:1036D00033E02A4F3F1F3F68C7F38056274F3F1FF5
:1036E0003F6807F03F036EB1264FB7FBF3F7DFF8F3
:1036F0008CC0ACF1040CDCF800C0CCF3881C07FBD8
:103700000CF40CE01E4FB7FBF3F7DFF870C0ACF120
:10371000040CDCF800C0CCF3881C07FB0CF4174F3A
:103720003F1F3F68C7F301477F1C7D00B4FBF5F7DF
:10373000076002E0124F076000BF00BF0F4F3F68F5
:1037400007F0F0010909104F7A5C0768D74047601D
:103750000A4F3F6807F4E051890A0B4F7A5C4768CB
:10376000D7408760054F3F6807F46041490B064F1B
:103770007A5C4768D740C760F0BD00000838024057
:103780000024F40000127A00E60000200021094A1B
:1037900011701170012802D0042808D103E0012122
:1037A000044A117004E00521024A117000E000BFD4
:1037B00000BF7047703802400146022906D0032935
:1037C0000DD0042912D005291ED116E04FF08042F9
:1037D000526A10B200224FF080435A6216E00C4A3F
:1037E000126810B200220A4B1A600FE0094A1268F0
:1037F00010B20022074B1A6008E0074A126810B2A4
:103800000022054B1A6001E0002000BF00BF704796
:103810002404004024080040240C004010B52DED85
:10382000088BB0EE40BAF0EE60BAB0EE418AF0EE2E
:10383000618AB0EE429AF0EE629AB0EE43AA51EC81
:103840001B0BFCF74FFF1D490860084680ED018AFD
:10385000C0ED058ABDEEC90A80ED020ABDEEE90A97
:1038600080ED030A80ED04AAC0688000896848439F
:1038700000EE100AB8EEC00A114880ED000A0F48A9
:1038800090ED040ADFED0F0A20EE200A0E4880EDCD
:10389000000A0A4890ED000A0C4880ED000A07482B
:1038A00090ED010A0A4880ED000A044890ED050AEF
:1038B000084880ED000ABDEC088B10BD4C5B002071
:1038C000A0010020DB0F4940A4010020A801002036
:1038D000AC010020B0010020F0B52DED108B81B0BF
:1038E00005460E4614461F469FED520A8DED000A0E
:1038F0005148D0ED000A514890ED000A30EE800AA0
:10390000F0EE000A80EE201AB0EE418A90ED000A37
:103910004948D0ED000A70EE600A494890ED001A5F
:1039200080EE810AF0EE408A94ED000A10EE101A43
:103930000846FCF7ABFE41EC1F0BB0EE4F0AF0EE71
:103940006F0A02F0D1F9B0EE40DAF0EE60DA18EE6C
:10395000100AFCF79BFE41EC1E0B53EC1D2BFCF7F1
:1039600077FD41EC1C0B9FED370B53EC102BFCF754
:103970006FFD41EC1A0B95ED000A10EE101A084687
:10398000FCF784FE41EC1B0B53EC1A2BFCF7B9FC43
:1039900041EC190BFCF7A6FE286094ED000A10EE2E
:1039A000101A0846FCF772FE41EC1F0BB0EE4F0AEE
:1039B000F0EE6F0A03F024F8B0EE40DAF0EE60DAD1
:1039C00018EE100AFCF762FE41EC1E0B53EC1D2BA7
:1039D000FCF73EFD41EC1C0B9FED1A0B53EC102B3A
:1039E000FCF736FD41EC1A0B96ED000A10EE101AAA
:1039F0000846FCF74BFE41EC1B0B53EC1A2BFCF773
:103A000080FC41EC190BFCF76DFE306094ED000A70
:103A1000DFED080A08EEA00A84ED000A97ED000A1F
:103A2000DFED040A08EE200A87ED000A01B0BDECC4
:103A3000108BF0BD0AD7233CEC5A0020005B00201D
:103A4000A801002000000040E17A843F10B54FF447
:103A5000AD70554908600A210920FEF7B7FC5249AC
:103A6000096890FBF1F05149087008460078052874
:103A700001DD052008704D48007806285ED2DFE899
:103A800000F0031221303F4E9FED493AF2EE0A2A30
:103A9000B3EE0E2ADFED471A9FED471A9FED470B55
:103AA000FFF7BCFE4AE09FED473AF2EE0A2AB3EE7A
:103AB0000E2ADFED451A9FED3F1A9FED440BFFF7ED
:103AC000ADFE3BE09FED433AF2EE0A2AB3EE0E2A3A
:103AD000DFED381A9FED401A9FED400BFFF79EFE79
:103AE0002CE09FED3C3AF2EE0A2AB3EE0E2ADFED0F
:103AF000311A9FED301A9FED3B0BFFF78FFE1DE053
:103B00009FED343AF2EE0A2AB3EE0E2ADFED291ABF
:103B10009FED361A9FED360BFFF780FE0EE09FED0E
:103B2000363AF2EE0A2AB3EE0E2ADFED221A9FEDA4
:103B3000211A9FED320BFFF771FE00BF00BF1B483B
:103B4000007806282ED2DFE800F0030A11181F269D
:103B500008202C4908600E202B49086022E006202E
:103B6000284908600A20284908601BE004202549EC
:103B7000086007202449086014E0042021490860F7
:103B80000720214908600DE008201E4908600B202D
:103B90001D49086006E004201A49086007201A49F8
:103BA000086000BF00BF10BD70010020740100203C
:103BB0009A99993D000000007B14AE3D022B8716B8
:103BC000D9CEB73F8FC2753D643BDF3D000000009A
:103BD00000000000B81E853DBC74133E000000804C
:103BE0006ABCC43F000000A0EFA7C63FE926313EF3
:103BF000000000C09DEFC73FC520303D000000E041
:103C00007A14CE3FE4010020E80100200CB500202A
:103C1000019000903448006840F4803032490860D8
:103C200000BF3148006800F4003000900198401C4B
:103C30000190009818B90198B0F5A04FF1D12A4829
:103C4000006800F4003010B10120009001E0002075
:103C500000900098012846D123484030006840F089
:103C600080502149403108602048006840F44040BD
:103C70001E4908601C48083000681B49083108606C
:103C80000846006840F4004008600846006840F4B8
:103C9000A05008601648091F0860081F006840F01F
:103CA0008070091F086000BF0F48006800F00070B6
:103CB0000028F9D040F205700E4908600A48083023
:103CC000006820F0030008490831086008460068D1
:103CD00040F00200086000BF03480830006800F0B0
:103CE0000C000828F8D10CBD0038024000700040DC
:103CF00008544007003C024070B5049C002807DAD5
:103D000044F29F151E4E356005441E4E356006E098
:103D100044F29F151B4E35602D1A194E356000294F
:103D200006DA44F29F15184E75630D44B56305E03D
:103D300044F29F15144EB5636D1A7563002A06DAB6
:103D400044F29F15114EB5631544756305E044F2C6
:103D50009F150E4E7563AD1AB563002B06DA44F25B
:103D60009F150A4E35641D44F56305E044F29F1526
:103D7000064EF563ED1A3564054D2C6070BD0000EC
:103D800034440140344801400040014000000140FB
:103D90003818004000B5F0EE403AF0EE602AB0EE80
:103DA000413A9FED680AB0EE402AF5EEC03AF1EED6
:103DB00010FA07DD644890ED000A30EE020A80ED4B
:103DC000000A1AE0F5EEC03AF1EE10FA07D25E48AA
:103DD00090ED000A30EE420A80ED000A0DE0F5EEAB
:103DE000C03AF1EE10FA08D1574890ED000ADFED25
:103DF000570A20EE200A80ED000AF5EEC02AF1EE07
:103E000010FA07DD504890ED010A30EE020A80ED0D
:103E1000010A1AE0F5EEC02AF1EE10FA07D24A487C
:103E200090ED010A30EE420A80ED010A0DE0F5EE58
:103E3000C02AF1EE10FA08D1434890ED010ADFEDF7
:103E4000430A20EE200A80ED010AB5EEC03AF1EEF9
:103E500010FA07DD3C4890ED020A30EE020A80EDD0
:103E6000020A1AE0B5EEC03AF1EE10FA07D236486F
:103E700090ED020A30EE420A80ED020A0DE0B5EE46
:103E8000C03AF1EE10FA08D12F4890ED020ADFEDAA
:103E90002F0A20EE200A80ED020AB0EE630A03F03A
:103EA000F5FEB0EE404AB0EE630A03F0EFFEB1EE6D
:103EB000400AF0EE404A2448D0ED000AB0EE600A15
:103EC000B0EE441AF0EE640A05F07BFD1E4880ED6A
:103ED000000AB0EE620A03F0D9FEB0EE404AB0EE3E
:103EE000620A03F0D3FEB1EE400AF0EE404A1648F3
:103EF000D0ED010AB0EE600AB0EE441AF0EE640AAA
:103F000005F05FFD104880ED010AB0EE430A03F0B2
:103F1000BDFEB0EE404AB0EE430A03F0B7FEB1EE8C
:103F2000400AF0EE404A0848D0ED020AB0EE600ABE
:103F3000B0EE441AF0EE640A05F043FD024880ED4D
:103F4000020A00BD0AD7233CE05A00206666663F9D
:103F5000042808D14FF0E021096941F004014FF035
:103F6000E022116107E04FF0E021096921F004012E
:103F70004FF0E0221161704710B506F083FF012871
:103F800001D006F005FC10BD10B51548006840F4DE
:103F90007000134908601348006840F0010011499F
:103FA000086000200F49083108600E4800680E497B
:103FB00008400C4908600D48091D0860081F00688A
:103FC00020F48020091F0860002006490C31086099
:103FD000FFF71CFE4FF0006001498039086010BDFA
:103FE00088ED00E000380240FFFFF6FE10300024AC
:103FF000F0B50C46154600210022068C4FF6FE77E0
:104000003E400684018B028C4FF60C7631407E1CBC
:1040100006EA03162E4331434FF6F576324044F05C
:104020000106324301830284F0BDF0B50C4615460B
:10403000002100220026078C4FF6EF7C07EA0C07D0
:104040000784018B028C4FF6FF7707EA041640F6CF
:10405000FF4739404FF6FF7707EA033739434FF6FA
:10406000FF7707EA052739434FF65F773A4046F076
:1040700010073A4301830284F0BDF0B50C461546A3
:10408000002100220026078C4FF6FF6C07EA0C0780
:104090000784818B028C4FF6FF7707EA04264FF6E0
:1040A0000C7739404FF6FF7707EA03172F43394360
:1040B0004FF2FF573A4046F480773A4381830284B7
:1040C000F0BDF0B50C461546002100220026078CF5
:1040D0004EF6FF7C07EA0C070784818B028C4FF6B3
:1040E000FF7707EA043640F6FF4739404FF6FF777F
:1040F00007EA052739434FF6FF7707EA03373943C5
:1041000045F6FF773A4046F480573A43818302846C
:10411000F0BD000030B58BB005460C4601210220F1
:10412000FFF780FA01214804FFF79CFA03220821D7
:104130001E48FDF7F1FF02208DF81C0000208DF8CD
:104140001E004FF48070069001208DF81F000320A0
:104150008DF81D0006A91548FDF796FF0995ADF8E5
:1041600020400020ADF82800ADF8220008A9104832
:1041700000F0CEFE6020ADF804000120ADF806008E
:104180000020ADF8100001A9094800F01BFD08212E
:10419000074800F05EFD0121054800F05FFC0121A9
:1041A000034800F06DFC0BB030BD0000000402407D
:1041B0000044014030B58BB005460C460121022079
:1041C000FFF730FA01218804FFF74CFA0322092196
:1041D0002048FDF7A1FF02208DF81C0000208DF87B
:1041E0001E004FF40070069001208DF81F00032080
:1041F0008DF81D0006A91748FDF746FF0995ADF893
:1042000020400020ADF82800ADF8220008A912488F
:1042100000F07EFE6020ADF804000120ADF806003D
:104220000020ADF8100001A90B4800F0CBFC0821DC
:10423000094800F00EFD0121074800F02DFC012186
:10424000054800F00BFC0121034800F019FC0BB0FD
:1042500030BD0000000402400048014030B58BB082
:1042600005460C4601214020FFF7ECF90121022010
:10427000FFF7D8F902208DF828004FF4404009904C
:1042800003208DF8290000208DF82A0001208DF8E8
:104290002B0009A92248FDF7F7FE09220E2120482C
:1042A000FDF73AFF09220F211D48FDF735FF07955D
:1042B000ADF818400020ADF82000ADF81A0006A9AE
:1042C000184800F025FE6020ADF804000120ADF88C
:1042D000060000200390ADF81000ADF8140001A90D
:1042E000104800F06FFC01A90E4800F0BBFC08214B
:1042F0000C4800F0AEFC08210A4800F012FD012134
:10430000084800F0C9FB0121064800F0B9FB40F263
:10431000DC50044938310860091F08600BB030BD1B
:10432000000402400018004030B58BB005460C4632
:1043300001210846FFF796F901211020FFF772F9D5
:10434000012209213448FDF7E7FE01220B21324802
:10435000FDF7E2FE01220D212F48FDF7DDFE0122CF
:104360000E212D48FDF7D8FE4FF4D44009900220CD
:104370008DF8280003208DF8290000208DF82A00F0
:1043800001208DF82B0009A92348FDF77DFE079534
:10439000ADF818400120ADF820000020ADF81A005B
:1043A00006A91E4800F0B4FD6020ADF8040001200D
:1043B000ADF806000020ADF8100001A9174800F084
:1043C00001FC01A9154800F04DFC01A9134800F0BB
:1043D000B5FC01A9114800F017FD01210F4800F0BC
:1043E0005BFB08210D4800F034FC08210B4800F06D
:1043F00098FC0821094800F0FEFC0821074800F05D
:104400004CFD0121054800F029FB0121034800F083
:1044100037FB0BB030BD000000100240000001402F
:104420004FF08040008A4FF08040008A20F0010069
:104430004FF0804108827047044800880348008894
:1044400020F001000149088070470000100400407E
:10445000044800880348008820F0010001490880D2
:104460007047000010080040044800880348008896
:1044700020F001000149088070470000100C004046
:10448000044800880348008820F0010001490880A2
:10449000704700001018004010B5C9480068B0F51A
:1044A000C86F14DDC748007888B9C7480068642819
:1044B0000DDB0120C34908700020C4490870C449BD
:1044C0000870C4490870C4490870C4490870C448D9
:1044D000007800F08000002857D10221C14800F088
:1044E00017FB002851D00221BE4800F0C6FABC4894
:1044F000007800F04000C0B3BA4800F0FDFABA49B5
:10450000088008460088B9490988884204DA42F2DE
:104510000F70B749086002E00020B5490860B24852
:104520000088B2490988401AB14909680844B1496C
:1045300008600968B04A1268881A002801DB014641
:1045400000E04142B1F5FA7F03DDAB480068A949BC
:104550000860A8480068A84908600020A0490870C1
:104560000021A04800F06CFB0FE0FFE79D4800F041
:10457000C3FA9E4908809A48007840F04000984964
:1045800008700221974800F05BFB9C48007800F01F
:104590008000002857D10421924800F0B9FA002881
:1045A00051D004218F4800F068FA9448007800F058
:1045B0004000C0B38B4800F0A2FA91490880084639
:1045C000008890490988884204DA42F20F708E49C7
:1045D000086002E000208C49086089480088894909
:1045E0000988401A884909680844754908600968BB
:1045F000864A1268881A002801DB014600E0414221
:10460000B1F5FA7F03DD814800686D4908606C48A8
:1046100000687E49086000207849087000217148D0
:1046200000F072FB0FE0FFE76E4800F068FA754992
:1046300008807248007840F04000704908700221FC
:10464000684800F061FB7248007800F080000028A4
:1046500057D10821634800F05BFA002851D00821A7
:10466000604800F00AFA6A48007800F04000C0B3E1
:104670005C4800F047FA67490880084600886649A8
:104680000988884204DA42F20F706449086002E047
:104690000020624908605F4800885F490988401A25
:1046A0005E49096808445E49086009685D4A126805
:1046B000881A002801DB014600E04142B1F5FA7F8B
:1046C00003DD584800685649086055480068554958
:1046D000086000204E4908700021424800F07EFB2F
:1046E0000FE0FFE73F4800F00DFA4B4908804848CB
:1046F000007840F04000464908700221394800F037
:104700006DFB4948007800F08000002857D1102147
:10471000344800F0FDF9002851D01021314800F054
:10472000ACF94148007800F04000C0B32D4800F0DB
:10473000ECF93E490880084600883D4909888842CE
:1047400004DA42F20F703B49086002E00020394968
:1047500008603648008836490988401A3549096892
:104760000844354908600968344A1268881A0028E4
:1047700001DB014600E04142B1F5FA7F03DD2F483D
:1047800000682D4908602C4800682C49086000200A
:10479000254908700021134800F072FB0FE0FFE785
:1047A000104800F0B2F9224908801F48007840F014
:1047B00040001D49087002210A4800F061FB10BD4D
:1047C00094000020B60100208C020020B5010020DA
:1047D000B4010020B7010020B8010020B901002079
:1047E00068000020000401406C0000206A000020E6
:1047F0008000002090000020A00000206E0000201B
:10480000720000207000002084000020A40000201E
:10481000740000207800002076000020880000202E
:1048200098000020A80000207A0000207E000020D0
:104830007C0000208C0000209C000020AC000020A8
:1048400030B589B005460C4601210220FEF70AFF6B
:1048500001210420FEF7E6FE4FF47070079002205D
:104860008DF8200003208DF8210000208DF8220013
:1048700002208DF8230007A94348FDF705FC032219
:1048800006214148FDF748FC032207213E48FDF779
:1048900043FC032208213C48FDF73EFC032209218A
:1048A0003948FDF739FC0595ADF810400020ADF80A
:1048B0001800ADF8120004A9344800F029FB0020CC
:1048C000ADF80000ADF802000120ADF804000020B2
:1048D000ADF806000F20ADF8080069462B4800F03F
:1048E00028F90420ADF800000020ADF802000120F6
:1048F000ADF804000020ADF80600ADF808006946E8
:10490000224800F016F90820ADF800000020ADF8AC
:1049100002000120ADF804000020ADF80600ADF85B
:1049200008006946194800F004F90C20ADF80000B1
:104930000020ADF802000120ADF804000020ADF821
:104940000600ADF808006946104800F0F2F82E2085
:104950008DF80C0002208DF80D008DF80E0001205E
:104960008DF80F0003A8FEF7D5F901221E21074894
:1049700000F01FF90121054800F08EF801210348DD
:1049800000F07EF809B030BD00080240000401408C
:104990000348008820F001000149088070470000AA
:1049A0001004014030B58BB005460C4601210804C7
:1049B000FEF758FE01211020FEF734FE03220521E8
:1049C0002448FDF7A9FB032206212248FDF7A4FB9A
:1049D0006020069002208DF81C0003208DF81D0039
:1049E00000208DF81E0001208DF81F0006A919482F
:1049F000FDF74AFB0995ADF820400020ADF82800EE
:104A0000ADF8220008A9144800F082FA6020ADF841
:104A100004000120ADF806000020ADF8100001A947
:104A20000D4800F0CFF801A90B4800F01BF9082150
:104A3000094800F00EF90821074800F072F9012139
:104A4000054800F00BF80121034800F019F80BB0FD
:104A500030BD0000001002400040014021B102883A
:104A600042F08002028004E002884FF67F731A4011
:104A700002807047CA4302827047CA43028270476D
:104A800021B1028842F00102028004E002884FF660
:104A9000FE731A400280704731B1B0F8442042F4EE
:104AA0000042A0F8442005E0B0F84420C2F30E0212
:104AB000A0F844207047F0B50C4615461E4600216C
:104AC000002200230189028B038C4FF6F8773940CE
:104AD00021434FF6FC473A4040F201173A434FF664
:104AE000DD773B404FF6FF7707EA06172F433B433E
:104AF000018102830384F0BD0146486B7047014683
:104B0000886B70470146C86B70470146086C704758
:104B100030B50246002000230024158A05EA01036F
:104B2000958905EA010413B10CB1012000E00020D1
:104B300030BD70B505460C46208850B92389A2883F
:104B400061882846FFF754FAE188284600F0B4F956
:104B500025E0208804280AD12389A2886188284674
:104B6000FFF763FAE188284600F0AFF917E02088E4
:104B700008280AD12389A28861882846FFF77DFA90
:104B8000E188284600F0AEF909E02389A28861880F
:104B90002846FFF796FAE188284600F0ACF970BD88
:104BA000002101804180012181800021C18001819B
:104BB00070471AB183890B43838102E083898B4359
:104BC0008381704770B5002400220023058C4FF6C6
:104BD000FE7635400584028C8388048B4FF68F75F2
:104BE0002C40B51E2C400D882C43751E2A408D8903
:104BF0002A434D882A43104DA84202D00F4DA842A7
:104C000013D14FF6F7752A40CD892A434FF6FB752D
:104C10002A408D882A434FF6FF652B404FF6FF55FB
:104C20002B400D8A2B434D8A2B43838004838D6850
:104C30004563028470BD0000000001400004014093
:104C40000A460021018C4FF6FD731940114301847F
:104C500070470A460021018B4FF6F7731940114344
:104C60000183704770B5002400220023058C4FF6A5
:104C7000EF7635400584028C8388048B48F6FF75F7
:104C80002C404FF6FF452C400D884FF6FF7606EA84
:104C900005252C434FF6DF752A408D8906EA051558
:104CA0002A434D8806EA05152A43154DA84202D02D
:104CB000144DA8421DD14FF67F752A40CD894FF67D
:104CC000FF7606EA05152A434FF6BF752A408D8800
:104CD00006EA05152A434FF6FF352B404FF2FF75C4
:104CE0002B400D8A06EA85052B434D8A06EA850589
:104CF0002B43838004838D688563028470BD00002C
:104D000000000140000401400A460021018C4FF6DA
:104D1000DF7319404FF6FF7303EA0213194301844E
:104D200070470A460021018B4FF2FF7319404FF67E
:104D3000FF7303EA022319430183704770B500240F
:104D400000220023058C4FF6FF6635400584028C57
:104D50008388848B4FF68F752C404FF6FC752C4062
:104D60000D882C434FF6FF552A408D894FF6FF766C
:104D700006EA05252A434D8806EA05252A43154DEE
:104D8000A84202D0144DA8421DD14FF2FF752A400F
:104D9000CD894FF6FF7606EA05252A434FF6FF3503
:104DA0002A408D8806EA05252A434EF6FF752B40DA
:104DB0004DF6FF752B400D8A06EA05152B434D8AEB
:104DC00006EA05152B43838084838D68C5630284BE
:104DD00070BD000000000140000401400A460021AF
:104DE000018C4FF6FF5319404FF6FF7303EA02237D
:104DF0001943018470470A460021818B4FF6F773EF
:104E0000194011438183704770B5002200230024AC
:104E1000058C4EF6FF7635400584038C8488828BA2
:104E200048F6FF752A404FF6FF452A400D884FF699
:104E3000FF7606EA05252A434DF6FF752B408D893E
:104E400006EA05352B434D8806EA05352B430A4D06
:104E5000A84202D0094DA84208D14BF6FF752C405C
:104E60000D8A4FF6FF7606EA85152C4384808283EF
:104E70008D680564038470BD00000140000401409A
:104E80000A460021018C4DF6FF7319404FF6FF735F
:104E900003EA02331943018470470A460021818BDB
:104EA0004FF2FF7319404FF6FF7303EA02231943D1
:104EB0008183704741627047028B4FF6F3731A404B
:104EC0000283028B0A4302837047028B4FF2FF3347
:104ED0001A400283028B4FF6FF7303EA01231A4341
:104EE00002837047828B4FF6F3731A408283828B62
:104EF0000A4382837047828B4FF2FF331A408283CA
:104F0000828B4FF6FF7303EA01231A4382837047B3
:104F100000220288184B98420ED0184B98420BD0B2
:104F2000B0F1804F08D0164B984205D0154B9842EF
:104F300002D0154B984204D14FF68F731A404B881C
:104F40001A43124B984207D0114B984204D04FF6A7
:104F5000FF431A400B891A4302804B68C3620B88D7
:104F60000385054B984202D0044B984201D18B7ABD
:104F70000386012383827047000001400004014042
:104F80000004004000080040000C004000100040F9
:104F9000001400404FF0FF31416000210180018189
:104FA000418081727047000010B52DED028B40F2F8
:104FB00025513A4800F09AFB00286DD0374800F0A0
:104FC0004FFCC4B236480068642803DA0020BDEC08
:104FD000028B10BD33483449097844547B2C03D0EC
:104FE00031480078002805DD2F480078401C2E4904
:104FF000087002E000202C4908702B4800780B282C
:105000004AD10020284908702648807A7D2843D15B
:1050100000210920FCF76EFA2249497A88423BD1E7
:10502000002022490870224908702249087022494C
:10503000087022490870224908701A4A1179D078FC
:1050400000F086FC1F4880ED000A164A91795079DD
:1050500000F07EFC1C4880ED000A124A117AD079DB
:1050600000F076FCB0EE408A1848007802280AD199
:10507000F0EE480A134890ED000A00F0F9FB1448DE
:1050800080ED000A07E0074A117AD07900F060FC51
:105090000F4880ED000A00BF002098E70050004054
:1050A000F001002000070020D5000020B4010020FE
:1050B000B6010020B5010020B7010020B901002091
:1050C000FA010020800100208401002074010020EA
:1050D000880100202DE9F0412DED028B40F2255191
:1050E000424800F003FB00287ED0002601273F48FD
:1050F00000F0B6FBC5B23E480068642804DA002020
:10510000BDEC028BBDE8F0813A483B490978455433
:105110007B2D03D038480078002805DD364800781C
:10512000401C3549087002E00020334908703248BD
:1051300000780B2857D100202F4908702D48807A1D
:105140007D2850D1002403E02A48005D4640641CBD
:10515000092CF9DB2748407AB04200D10027002F04
:1051600041D12648007858B9012024490870002010
:10517000234908702349087023490870234908709F
:105180000020234908701B4A1179D07800F0E0FB19
:10519000204880ED000A174A9179507900F0D8FB39
:1051A0001D4880ED000A134A117AD07900F0D0FB37
:1051B000B0EE408A1948007802280BD1F0EE480A78
:1051C000144890ED000A00F053FB154880ED000AEA
:1051D00008E009E0074A117AD07900F0B9FB1048DD
:1051E00080ED000A00BF00BF002089E700100140E9
:1051F000F001002054070020C8000020B801002062
:10520000B5010020B4010020B6010020B701002044
:10521000FA01002080010020840100207401002098
:105220008801002000B5002200BF05E00449885C29
:1052300004F060FD501CC2B2182AF7DB00BD00006C
:10524000D006002010B52DED0C8B40F225519E4864
:1052500000F04CFA00287CD09B48001D04889B4835
:105260000068642803DA0020BDEC0C8B10BD412CD3
:1052700015D197480078412811D19648007870B927
:1052800000209549087095490870012091490870DF
:1052900000209349087093490870934908708C491D
:1052A0000C704B2C03D101209049087006E0492C6A
:1052B00001D04A2C02D100208C4908708B4800781C
:1052C00088B9412C06DB482C04DCA4F14000884955
:1052D00008702FE0082C02DC85490C702AE00020C1
:1052E0008349087026E081480078012822D1432CA8
:1052F00006D100207F49087001207F4908700DE029
:10530000472C06D101207B49087000207A4908709B
:1053100004E000207749087077490870412C01D0DB
:10532000452C04D1A4F140007149087002E000202E
:105330006F490870582C08D1704890ED000ADFEDD5
:10534000700A30EE200A80ED000A592C0AD16B4811
:1053500000E0B7E090ED000ADFED690A30EE600A88
:1053600080ED000A7B2C02D10120664908707D2C5B
:1053700002D102206349087062480078012808D1F0
:105380006149624A12788C5460480078401C5F4939
:1053900008705C480078022870D15B48C0785028BB
:1053A00003D101205A49087070E0574840782328FB
:1053B0006CD056480078574908703AE0534909784C
:1053C000544A1278881AFBF724F941EC1D0BB0EE11
:1053D0004D1AF0EE6D1A9FED500B00F0E9FCB0EEA7
:1053E00040BAF0EE60BA4B490978491E464A515C12
:1053F000A1F13000FBF70DF941EC1C0B53EC1B2B1A
:10540000FBF726F841EC190B45480068FBF73EF91D
:1054100041EC1A0B53EC192BFAF773FF41EC180B04
:10542000FBF760F93E4908603A480078401E394968
:105430000870384800780428C0DA3348407830389B
:10544000092822D2DFE800F0050C131B1C1D1E1FCB
:105450002000334890ED000A284880ED000A14E04F
:105460002F4890ED000A2F4880ED000A0DE02C48EF
:1054700090ED000A2C4880ED000A06E016E004E0FA
:1054800003E002E001E000E000BF00BF00201D4992
:1054900008701E4908701F4908709FED240A2048B3
:1054A00080ED000A32211848FAF720FF134890EDEA
:1054B000000AB5EEC00AF1EE10FA03D29FED1B0A06
:1054C00080ED000A0020CFE6004400408C0200205E
:1054D000CC000020B5010020B4010020B60100205E
:1054E000B7010020B8010020B9010020BD01002053
:1054F000BC010020BA010020BB0100207C0100207B
:105500000000C842C90000205F070020CA00002038
:10551000BE010020CB00002000000000000024405D
:10552000D00000208C01002090010020000000002D
:1055300010B52DED028B40F22551414800F0D6F810
:1055400000287BD03E4800F08BF9C4B23D4800688B
:10555000642803DA0020BDEC028B10BD3A483B49B9
:10556000097844547B2C03D038480078002805DDA6
:1055700036480078401C3549087002E00020334965
:10558000087032480078072858D100202F49087049
:105590002F482D490A6802608A8882808979817142
:1055A00080797D284AD100210520FBF7A3FF2849F7
:1055B0004979884242D1002026490870264908705E
:1055C000264908702649087026490870264908703F
:1055D000264908701E48B0F9010000EE100AB8EE26
:1055E000C00ADFED230A80EE201A224880ED001A5F
:1055F0009FED210A214880ED000A1548B0F903000B
:1056000000EE100AB8EEC00ADFED190A80EE201A8B
:10561000B0EE418A1A48007802280BD1F0EE480A11
:10562000144890ED000A00F023F9164880ED000AB6
:1056300003E003E0134880ED008A00BF00208AE702
:1056400000480040F0010020B7000020D4000020F6
:10565000B0000020B4010020B6010020B5010020F8
:10566000B7010020B8010020B9010020FA01002094
:1056700000007A4480010020000000008401002026
:10568000740100208801002010B500241A22074967
:105690000748FAF712FE00BF05E00549085D04F06F
:1056A00035FB601CC4B21A2CF7D310BD20070020B4
:1056B0003A07002000B5002200BF05E00449885CDD
:1056C00004F032FB501CC2B2182AF7DB00BD000008
:1056D000D006002021B1828942F40052828104E088
:1056E00082894DF6FF731A408281704770B5024679
:1056F000002400230025002040F66A16B14200D1A4
:1057000000BFC1F3421501F01F03012606FA03F39F
:10571000012D02D19689334006E0022D02D1168A6E
:10572000334001E0968A33400C12012606FA04F455
:105730001688344013B10CB1012000E0002070BD88
:10574000F0B50346002400260025002040F66A1725
:10575000B94200D100BF1846C1F3421401F01F0640
:10576000012707FA06F5012C01D10C3004E0022CC8
:1057700001D1103000E014301AB107682F430760E0
:1057800002E00768AF430760F0BD00002DE9FF4766
:1057900005460E460024A14600BFA046B08900B1D0
:1057A00000BF2C8A24F44054F08804432C82AC8936
:1057B00041F20C608443B088318908437189084301
:1057C0000443AC81AC8A24F44074B0890443AC82B5
:1057D0006846FDF767FF2048854202D01F48854292
:1057E00002D1DDF80C9001E0DDF80890A88900F402
:1057F000004040B109EBC90000EB091031684900D5
:10580000B0FBF1F707E009EBC90000EB09103168C4
:105810008900B0FBF1F76420B7FBF0F00401200928
:10582000642101FB1078A88900F4004040B13220C7
:1058300000EBC800B0FBF1F000F00700044308E003
:10584000322000EB08106421B0FBF1F000F00F00F3
:1058500004432C81BDE8FF87001001400014014083
:1058600001468888C0F30800704700BFFEE70000CB
:1058700010B52DED0A8BF0EE408AB0EE608A9FEDF8
:10588000300AF0EE409AB5EEC08AF1EE10FA4FD031
:10589000F5EEC08AF1EE10FA4AD088EE880AF0EEF2
:1058A00040AA02F0F3F9B4EEE90AF1EE10FA17D8C3
:1058B000B5EEC08AF1EE10FA08DDB0EE680A02F02B
:1058C000E5F9C0EE290AB0EE608A09E0B0EE680A98
:1058D00002F0DCF9B1EE400AC0EE290AB0EE608AAF
:1058E00088EE88AA1748D0ED000AB6EE001AB0EE8E
:1058F0004A0A01EE200A1448D0ED000A80EE801A10
:1059000011EE104A2046FAF7C1FE41EC1C0BB0EE36
:105910004C0AF0EE6C0A00F07BF8B0EE40BAF0EE04
:1059200060BA51EC1B0BFAF7DDFE09EE100A01E03C
:105930009FED069AB0EE490ABDEC0A8B10BD00003F
:105940003333B33EA8010020AC010020000000006A
:105950002DE9F0412DED088B04460D4605EB0420A2
:1059600006B24FF47A7096FBF0F100FB11673846EF
:10597000FAF74FFE41EC1B0B9FED0F0B53EC102B76
:10598000FAF766FD41EC190B4FF47A7096FBF0F7CD
:105990003846FAF73EFE41EC1A0B53EC192BFAF796
:1059A000B0FC41EC180BFAF79DFE00EE100ABDECBE
:1059B000088BBDE8F0810000FCA9F1D24D62503F98
:1059C0000FB4054B10B503A9044A029801F0FEFE7E
:1059D00010BC5DF814FB0000A97C0008E00000206A
:1059E00003B401984100009850EAC12018BF042078
:1059F0004A0D18BF40F0010040F2FF72B2EB515F58
:105A000008BF40F00200012808BF052002B070471F
:105A100070B59B482DED020B2DED068B079D25F0F3
:105A20000044A04218DC9748844202DC0AD1069860
:105A300040B19DED060BBDEC068B02B0BDE8704099
:105A400001F06ABE002DCCBF9FED8F0B9FED900B38
:105A5000BDEC068B02B070BD8F48A04215DD8F48AB
:105A6000A042D8BF4FF0FF3458DD9DED060B51EC3E
:105A7000100BFFF7B5FF042808BF01F081FE9DED74
:105A8000060BBDEC068B02B070BD9DED060B51EC14
:105A9000100B02F0EFF8CDE9060181489FED828BF3
:105AA000A0423CDD8248A0421FDD00249FED82AB76
:105AB0009DED060B53EC1A2B51EC100BFAF721FC61
:105AC0009DED060B41EC190B53EC1A2B51EC100B0E
:105AD000FAF7BEFC53EC182BFAF7B4FC53EC192B75
